:100000000C9474000C9495000C9495000C9495003D
:100010000C9495000C9495000C9495000C9495000C
:100020000C9495000C9495000C9495000C949500FC
:100030000C9495000C9495000C9495000C949500EC
:100040000C9495000C9495000C9495000C949500DC
:100050000C9495000C9495000C9495000C949500CC
:100060000C9495000C9495000C9495000C949500BC
:100070000C9495000C9495000C9495000C949500AC
:100080000C9495000C9495000C9495000C9495009C
:100090000C9495000C9495000C9495000C9495008C
:1000A0000C9495000C9495000C9495000C9495007C
:1000B0000C9495000C9495000C9495000C9495006C
:1000C0000C9495000C9495000C9495000C9495005C
:1000D0000C9495000C9495000C9495000C9495004C
:1000E0000C9495000C94BA0111241FBECFEFD1E2FD
:1000F000DEBFCDBF00E00CBF12E0A0E0B2E0ECEF4D
:10010000FFE000E00BBF02C007900D92AC3AB107D0
:10011000D9F722E0ACEAB2E001C01D92A63BB207DB
:10012000E1F70E940D020C94FC070C940000CF92A2
:10013000DF92EF92FF920F931F93CF93DF93D82F0D
:10014000C92F84E192E00E9412050D2F1C2F780127
:1001500080E1E80EF11CC4E2D2E0C12CD12CD80120
:10016000ED91FC91EC0DFD1D81818F9380818F932A
:10017000DF93CF930E94F804A2E0CA0ED11C0F9027
:100180000F900F900F90B0E1CB16D10441F78AE0A9
:1001900090E00E940C050E5F1F4FE016F106E9F695
:1001A0008CE692E0DF91CF911F910F91FF90EF903D
:1001B000DF90CF900C941205AF92BF92CF92DF9256
:1001C000EF92FF920F931F93CF93DF93EB01A22E39
:1001D000FC0120E030E090B1B1909B2199F09FEFBD
:1001E000A0E7B2E09150A040B040E1F700C00000AD
:1001F0002F5F3F4F2830310509F45FC090B1B190B7
:100200009B2169F78A01000F111F0C0F1D1F790137
:10021000EE0CFF1CD801ED91FC91EE0DFF1D8081CD
:100220009181892B09F45CC05F934F933F932F9387
:1002300088E292E09F938F930E94F804D801ED9199
:10024000FC91EE0DFF1D8081918101979183808348
:1002500084E192E00E9412057E01B0E1EB0EF11CF8
:100260000F900F900F900F900F900F9004E212E0FC
:10027000C12CD12CE881F981EC0DFD1D81818F937A
:1002800080818F931F930F930E94F80462E0C60E43
:10029000D11C0F900F900F900F9080E1C816D104E1
:1002A00049F78AE090E00E940C052296EC16FD06C4
:1002B000F9F65BC08FB18A2181F480B18B21D1F333
:1002C00081E090E0DF91CF911F910F91FF90EF902F
:1002D000DF90CF90BF90AF90089580E090E0F2CF94
:1002E0005F934F933F932F938BE492E09F938F9371
:1002F0000E94F804D801ED91FC91EE0DFF1D808164
:10030000918101969183808384E192E00E9412059D
:100310007E01B0E1EB0EF11C0F900F900F900F904B
:100320000F900F9004E212E0C12CD12CE881F981EA
:10033000EC0DFD1D81818F9380818F931F930F930F
:100340000E94F80462E0C60ED11C0F900F900F902F
:100350000F9080E1C816D10449F78AE090E00E942E
:100360000C052296EC16FD06F9F68CE692E00E944A
:100370001205A3CF8A3049F09091C00095FFFCCFC1
:100380008093C60080E090E008959091C00095FFB2
:10039000FCCF9DE09093C600EFCF9093C500809373
:1003A000C40086E08093C20088E98093C10008956C
:1003B0009091C00095FFFCCF8093C6000895809176
:1003C000C00087FFFCCF8091C60008958091C000D7
:1003D000881F8827881F0895FC012081222351F05F
:1003E00031969091C00095FFFCCF2093C6002191DB
:1003F0002111F7CF089580E092E09093B3028093AB
:10040000B2021092C50082E38093C40086E080931C
:10041000C20088E98093C10008950E94FB0188E032
:1004200090E00E94D703EC0181E0888382E0898319
:1004300084E08A8388E08B8380E18C8380E28D83F3
:1004400080E48E8380E88F83809891B38881892BA4
:1004500081BB81B198819095892381B992B18881BE
:10046000892B82B980B399819095892380BB91B300
:100470008981892B81BB81B199819095892381B92B
:1004800092B18981892B82B980B39A819095892311
:1004900080BB91B38A81892B81BB81B19A81909570
:1004A000892381B992B18A81892B82B980B39B81DA
:1004B0009095892380BB91B38B81892B81BB81B1BE
:1004C0009B819095892381B992B18B81892B82B9C7
:1004D00080B39C819095892380BB91B38C81892BBB
:1004E00081BB81B19C819095892381B992B18C8126
:1004F000892B82B980B39D819095892380BB91B36C
:100500008D81892B81BB81B19D819095892381B992
:1005100092B18D81892B82B980B39E819095892378
:1005200080BB91B38E81892B81BB81B19E819095D7
:10053000892381B992B18E81892B82B980B39F8141
:100540009095892380BB91B38F81892B81BB81B129
:100550009F819095892381B992B18F81892B82B92E
:1005600080E190E00E94D7037C018C016C0120E1C6
:10057000C20ED11C80E190E00E94D703D8018D9378
:100580009D938D01CA16DB06A9F7D701ED91FC9169
:10059000119711821082138212821582148217829F
:1005A0001682118610861386128615861486178683
:1005B00016861296ED91FC91139711821082138288
:1005C0001282158214821782168211861086138673
:1005D000128615861486178616861496ED91FC9160
:1005E000159711821082138212821582148217824B
:1005F0001682118610861386128615861486178633
:1006000016861696ED91FC9117971182108213822F
:100610001282158214821782168211861086138622
:10062000128615861486178616861896ED91FC910B
:1006300019971182108213821282158214821782F6
:1006400016821186108613861286158614861786E2
:1006500016861A96ED91FC911B97118210821382D7
:1006600012821582148217821682118610861386D2
:10067000128615861486178616861C96ED91FC91B7
:100680001D971182108213821282158214821782A2
:100690001682118610861386128615861486178692
:1006A00016861E96ED91FC911F971182108213827F
:1006B0001282158214821782168211861086138682
:1006C0001286158614861786168600E812E08EE6D6
:1006D00092E00E941205D8808FB18D2109F44DC09F
:1006E0008FB19981892309F44AC08FB19A818923F6
:1006F00009F449C08FB19B81892309F448C08FB1A7
:100700009C81892309F447C08FB19D81892309F415
:1007100046C08FB19E81892309F445C08FB19F8166
:100720008923D1F6D92E57E0C52E1F92CF921F9361
:100730000F930E94F8048FB18D210F900F900F90AE
:100740000F9029F088E992E00E941205C0CF2D2D6C
:100750004C2D50E0B701CE010E94DC00892B91F3B3
:10076000BFEFE0E7F2E0B150E040F040E1F700C059
:1007700000008FB18D2131F7EACFC12CD6CFD92E11
:10078000CC24C394D2CFD92E42E0C42ECECFD92EC2
:1007900033E0C32ECACFD92E24E0C22EC6CFD92E25
:1007A00095E0C92EC2CFD92E86E0C82EBECF0F93BA
:1007B0001F93CF93DF938230910510F482E090E095
:1007C000E091AE02F091AF0220E030E0A0E0B0E0B6
:1007D000309719F1408151810281138148175907DF
:1007E000C8F08417950769F4109731F012960C93AE
:1007F000129713961C9327C00093AE021093AF027A
:1008000022C02115310519F04217530718F49A0137
:10081000BD01EF01DF01F801DBCF21153105F9F052
:10082000281B390B2430310580F48A819B816115A6
:10083000710521F0FB019383828304C09093AF0282
:100840008093AE02FE01329644C0FE01E20FF31F18
:100850008193919322503109398328833AC02091A2
:10086000AC023091AD02232B41F420911002309163
:1008700011023093AD022093AC0220910E02309110
:100880000F022115310541F42DB73EB740911202F8
:1008900050911302241B350BE091AC02F091AD0294
:1008A000E217F307A0F42E1B3F0B2817390778F047
:1008B000AC014E5F5F4F2417350748F04E0F5F1FA6
:1008C0005093AD024093AC028193919302C0E0E05B
:1008D000F0E0CF01DF91CF911F910F910895CF9359
:1008E000DF93009709F481C0FC01329713821282D2
:1008F000A091AE02B091AF02109781F420813181B6
:10090000820F931F2091AC023091AD022817390756
:1009100051F5F093AD02E093AC0267C0ED0120E029
:1009200030E0CE17DF0740F44A815B819E0141151C
:100930005105F1F0EA01F5CFD383C28340815181A3
:10094000840F951FC817D90759F488819981840F9E
:10095000951F0296918380838A819B8193838283F2
:100960002115310529F4F093AF02E093AE023DC0AA
:10097000E901FB83EA8349915991C40FD51FEC1714
:10098000FD0761F480819181840F951F0296E90132
:1009900099838883828193819B838A83E0E0F0E05E
:1009A00012968D919C911397009719F0FD01DC012F
:1009B000F7CF8D919C9111979D012E5F3F4F820F34
:1009C000931F2091AC023091AD022817390769F4CA
:1009D000309729F41092AF021092AE0202C0138237
:1009E0001282B093AD02A093AC02DF91CF91089533
:1009F000CF93DF93CDB7DEB7AE014A5F5F4FFA0109
:100A000061917191AF018091B2029091B3020E9405
:100A10004205DF91CF9108956091B2027091B302C7
:100A20000C9462070F931F93CF93DF93E091B20270
:100A3000F091B302238121FF1BC08C01D0E0C0E004
:100A4000F80181918F016091B2027091B302DB01D4
:100A50001896ED91FC911997882331F01995892BFF
:100A600079F3DFEFCFEFECCF8AE01995892B19F0FE
:100A70008FEF9FEF02C08D2F9C2FDF91CF911F91A1
:100A80000F9108952F923F924F925F926F927F92B3
:100A90008F929F92AF92BF92CF92DF92EF92FF928E
:100AA0000F931F93CF93DF93CDB7DEB72B970FB67E
:100AB000F894DEBF0FBECDBF6C017B018A01FC0143
:100AC00017821682838181FFCCC1CE0101963C0141
:100AD000F6019381F70193FD859193FF81917F0149
:100AE000882309F4BAC1853239F493FD859193FFC7
:100AF00081917F01853229F4B60190E00E9462075E
:100B0000E7CF912C212C312CFFE1F315D8F08B325B
:100B100079F038F4803279F08332A1F4232D20610A
:100B20001DC08D3261F0803369F4232D216016C021
:100B3000832D8260382EE32DE4603E2E2AC0F32DF3
:100B4000F8601DC037FC2DC020ED280F2A3040F082
:100B50008E32B9F436FC81C1232D2064322E19C0A7
:100B600036FE06C08AE0989E200D1124922E11C0F8
:100B7000EAE02E9E200D1124222EF32DF0623F2E4E
:100B800008C08C3621F4832D8068382E02C0883648
:100B900041F4F70193FD859193FF81917F018111CC
:100BA000B3CF982F9F7D9554933028F40C5F1F4F3F
:100BB0009FE399830DC0833631F0833771F083351D
:100BC00009F059C021C0F801808189830E5F1F4F51
:100BD00088248394912C530113C02801F2E04F0E16
:100BE000511CF801A080B18036FE03C0692D70E071
:100BF00002C06FEF7FEFC5010E9457074C018201D1
:100C0000F32DFF773F2E16C0280122E0420E511C23
:100C1000F801A080B18036FE03C0692D70E002C0EB
:100C20006FEF7FEFC5010E944C074C01F32DF06878
:100C30003F2E820133FC1BC0822D90E0881699065E
:100C4000B0F4B60180E290E00E9462072A94F4CFEB
:100C5000F50137FC859137FE81915F01B60190E087
:100C60000E94620721102A9421E0821A91088114BF
:100C7000910471F7E8C0843611F0893641F5F80126
:100C800037FE07C060817181828193810C5F1F4FA5
:100C900008C060817181072E000C880B990B0E5FD4
:100CA0001F4FF32DFF763F2E97FF09C0909580953B
:100CB000709561957F4F8F4F9F4FF0683F2E2AE0D0
:100CC00030E0A3010E949E07882E861845C0853714
:100CD00031F4232D2F7EB22E2AE030E025C0932D53
:100CE000997FB92E8F36C1F018F4883579F0B5C0E8
:100CF000803719F0883721F0B0C0E92FE061BE2EAF
:100D0000B4FE0DC0FB2DF460BF2E09C034FE0AC036
:100D1000292F2660B22E06C028E030E005C020E171
:100D200030E002C020E132E0F801B7FE07C0608188
:100D30007181828193810C5F1F4F06C06081718138
:100D400080E090E00E5F1F4FA3010E949E07882E57
:100D50008618FB2DFF773F2E36FE0DC0232D2E7FEC
:100D6000A22E891458F434FE0BC032FC09C0832D26
:100D70008E7EA82E05C0B82CA32C03C0B82C01C0B1
:100D8000B92CA4FE0FC0FE01E80DF11D8081803357
:100D900021F49A2D997EA92E09C0A2FE06C0B39413
:100DA000B39404C08A2D867809F0B394A3FC11C0D3
:100DB000A0FE06C0B21488F4280C922C9B180EC01A
:100DC000B21460F4B60180E290E00E946207B3942E
:100DD000F7CFB21418F42B1802C0982C212CA4FEC3
:100DE00010C0B60180E390E00E946207A2FE17C027
:100DF000A1FC03C088E790E002C088E590E0B6015E
:100E00000CC08A2D867859F0A1FE02C08BE201C089
:100E100080E2A7FC8DE2B60190E00E94620789148F
:100E200038F4B60180E390E00E9462079A94F7CF0D
:100E30008A94F301E80DF11D8081B60190E00E94D3
:100E400062078110F5CF222009F442CEB60180E27C
:100E500090E00E9462072A94F6CFF601868197817E
:100E600002C08FEF9FEF2B960FB6F894DEBF0FBE38
:100E7000CDBFDF91CF911F910F91FF90EF90DF9049
:100E8000CF90BF90AF909F908F907F906F905F902A
:100E90004F903F902F900895FC0105906150704055
:100EA0000110D8F7809590958E0F9F1F0895FC0133
:100EB0006150704001900110D8F7809590958E0F89
:100EC0009F1F08950F931F93CF93DF93FB012381FF
:100ED00021FD03C08FEF9FEF2CC022FF16C046817B
:100EE0005781248135814217530744F4A081B18191
:100EF0009D012F5F3F4F318320838C932681378163
:100F00002F5F3F4F3783268314C08B01EC01FB0119
:100F10000084F185E02D1995892BE1F6D80116960C
:100F20008D919C911797019617969C938E93169787
:100F3000CE01DF91CF911F910F910895FA01AA2759
:100F4000283051F1203181F1E8946F936E7F6E5F0C
:100F50007F4F8F4F9F4FAF4FB1E03ED0B4E03CD0BA
:100F6000670F781F891F9A1FA11D680F791F8A1F9D
:100F7000911DA11D6A0F711D811D911DA11D20D004
:100F800009F468943F912AE0269F11243019305DBE
:100F90003193DEF6CF010895462F4770405D4193AF
:100FA000B3E00FD0C9F7F6CF462F4F70405D4A33FC
:100FB00018F0495D31FD4052419302D0A9F7EACFC4
:100FC000B4E0A6959795879577956795BA95C9F7F3
:100FD00000976105710508959B01AC010A2E0694E6
:100FE0005795479537952795BA95C9F7620F731F9F
:0C0FF000841F951FA01D0895F894FFCFEA
:100FFC000000000200000000BA0100000000000028
:10100C00B60220000A0A4C5543492041434345533C
:10101C00453A0A002564200053706567696D656E5A
:10102C00746F206C7563652025642C2063616E6180
:10103C006C652025642E2E2E200A00416363656E9C
:10104C0073696F6E65206C7563652025642C206355
:10105C00616E616C652025642E2E2E200A0052696B
:10106C0063657263612063616E616C652E2E2E0068
:10107C0043616E616C652073656C657A696F6E6136
:10108C00746F202564200A0043686975737572615A
:0C109C002063616E616C652E2E2E00003A
:00000001FF
