:100000000C94A2000C94C3000C94C3000C94C30085
:100010000C94C3000C94C3000C94C3000C94C30054
:100020000C94C3000C94C3000C94C3000C94C30044
:100030000C94C3000C94C3000C94C3000C94C30034
:100040000C94C3000C94C3000C94C3000C94C30024
:100050000C94C3000C94C3000C94C3000C94C30014
:100060000C94C3000C9492010C94C7010C94C3002F
:100070000C94C3000C94C3000C94C3000C94C300F4
:100080000C94C3000C94C3000C94C3000C94C300E4
:100090000C94C3000C94C3000C94C3000C94C300D4
:1000A0000C94C3000C94C3000C94C3000C94C300C4
:1000B0000C94C3000C94C3000C94C3000C94C300B4
:1000C0000C94C3000C94C3000C94C3000C94C300A4
:1000D0000C94C3000C94C3000C94C3000C94C30094
:1000E0000C94C300510356035B035E036303680370
:1000F0006D034C033003B418B118AC18A718C31B18
:10010000B918BB180C94AC180C94A7180C94B91817
:100110000C9430030C9468030C945B030C944C0314
:100120000C94B4180C9451030C9456030C946D0366
:100130000C94C31B0C945E030C94BB180C946303C7
:100140000C94B11811241FBECFEFD1E2DEBFCDBF9A
:1001500000E00CBF13E0A0E0B2E0E8E4F3E400E06C
:100160000BBF02C007900D92A232B107D9F72AE067
:10017000A2E2B3E001C01D92A233B207E1F70E94F0
:100180000C0B0C94A2210C940000EF92FF920F93A1
:100190001F93CF93DF938C01CB01039668177907E8
:1001A00088F4780183E0E80EF11CEB01F999FECFA9
:1001B000CE010E948C21F80181938F012196EE15CA
:1001C000FF05A1F7DF91CF911F910F91FF90EF9065
:1001D0000895EF92FF920F931F93CF93DF939B01AC
:1001E000205F3F4F6217730798F4EC017C0180E1B8
:1001F000E80EF11C8B010C1B1D0BF999FECFCE01F3
:10020000800F911F0E948C218993CE15DF05A9F7DD
:10021000DF91CF911F910F91FF90EF900895109271
:10022000C50082E38093C40010922B0710922A0726
:100230001092220510922305109224051092250792
:10024000109226071092270786E08093C20088E963
:100250008093C100789482E293E0089580E091E079
:10026000089580E091E008958B5F9B4FFC018081B1
:1002700090E008958E5F9D4FFC01808190E008958D
:100280008E5F9D4FFC01908120E031E0A901491B68
:100290005109CA010895CF93DF939C01EC01CE5F11
:1002A000DD4F8881F894D901AF5FBD4F9C91E92F54
:1002B000F0E0EE0FFF1FE20FF31F70E07183608329
:1002C0008C918F5F8C938C9188818F5F88837894D9
:1002D000E1ECF0E0808180628083DF91CF9108952E
:1002E000CF93DF939C01EC01CB5FDB4F88818823A8
:1002F000E9F3F894D901AD5FBB4F9C91E92FF0E091
:10030000EE0FFF1FE20FF31FED5FFD4F80819C9109
:100310009F5F9C939C919881915098837894DF91F2
:10032000CF9108951F920F920FB60F9211240BB622
:100330000F928F939F93AF93BF93CF93DF93EF93DE
:10034000FF938091C600C7E2D7E09881A6E2B7E0AC
:10035000EC91F0E0EE0FFF1FEB5DFA4F90E0918320
:1003600080838C918F5F8C938C9188818F5F888341
:10037000FF91EF91DF91CF91BF91AF919F918F91BD
:100380000F900BBE0F900FBE0F901F9018951F92ED
:100390000F920FB60F9211240BB60F928F93EF931B
:1003A000FF9380912405882301F1E0912205F0E07C
:1003B000EE0FFF1FEE5DFC4F80818093C6008091A1
:1003C00022058F5F8093220580912205809124056C
:1003D000815080932405FF91EF918F910F900BBE78
:1003E0000F900FBE0F901F9018958091C1008F7DC8
:1003F0008093C100F0CF9091C00095FFFCCF08958D
:10040000CF93DF939C01EB01CB5FDB4FDB01AD5F53
:10041000BB4F98819923E9F3F894EC91F0E0EE0F4B
:10042000FF1FE60FF71FED5FFD4F40819C919F5F1F
:100430009C939C919881915098837894F901419371
:100440009F01442361F04A3011F04D3011F7F9015A
:1004500011929E2F981B892FDF91CF910895E81B51
:100460008E2FDF91CF910895CF93DF93AC01FB01E5
:100470002081222329F16F5F7F4FEC01CE5FDD4F9A
:10048000DC01AF5FBD4F8881F894EC91F0E0EE0F96
:10049000FF1FE40FF51F30E0318320838C918F5FC5
:1004A0008C938C9188818F5F888378949091C10020
:1004B00090629093C100FB012191BF012111E3CF14
:1004C000DF91CF91089584B5836A84BDE0E8F0E0C0
:1004D0008081836A8083E0EBF0E08081836A80839F
:1004E000E0E9F0E08081836A8083E0EAF0E08081E7
:1004F000836A808385B5816085BDE1E8F0E0808115
:1005000081608083E1EBF0E0808181608083E1E9BC
:10051000F0E0808181608083E1EAF0E080818160A9
:100520008083269A259A249A9D9AE1E0F1E08081C1
:10053000806180838081886080836B9A6C9A10923E
:100540008B0010928A0010928900109288001092FD
:10055000B3001092AB001092AA001092A900109262
:10056000A800109299001092980018BC10929B005D
:1005700010929A000895EAE7F0E080818460808319
:1005800080818068808380818068808310BA8FEF4B
:1005900081BB80937E0080E480937C0080818064B6
:1005A00080830895806480937C0080917A008064C9
:1005B00080937A0080917A008439E1F78091780005
:1005C00090917900992708950895EF92FF920F93E3
:1005D0001F93CF93DF938C017B01E40EF51E6E1504
:1005E0007F0568F4EB01F999FECFCE010E948C21C2
:1005F000F80181938F012196EC16FD06A1F7DF919A
:10060000CF911F910F91FF90EF900895EF92FF927D
:100610000F931F93CF93DF938C017B01E40EF51EA4
:100620006E157F0560F4EB01F999FECF6991C80161
:100630000E9494210F5F1F4FCE15DF05A9F7DF91B0
:10064000CF911F910F91FF90EF9008958930910500
:1006500010F5FC018827EE58FF4F8F4F0C94F41FC4
:1006600068BD7093A9006093A8007093AB0060937D
:10067000AA006093B3007093890060938800709320
:100680008B0060938A007093990060939800709338
:100690009B0060939A00089570939B0060939A006A
:1006A000089570938B0060938A0008957093890079
:1006B0006093880008956093B30008957093AB0031
:1006C0006093AA0008957093A9006093A80008950C
:1006D0007093990060939800089568BD08952F92D3
:1006E0003F924F925F926F927F928F929F92AF92C2
:1006F000BF92CF92DF92EF92FF920F931F93CF930F
:10070000DF93CDB7DEB7CC52D1400FB6F894DEBF41
:100710000FBECDBF5C01CB5DDE4F79836883C552D0
:10072000D1401A01ECE2F8E0DE011196919180913E
:10073000C00085FFFCCF9D9329E0EC32F207B1F7B2
:100740008B80912C30E3831A910858E08516910430
:1007500008F446C060912C0970912D0947E052E0E1
:1007600083E49B012E5F3D4FDB01AF5FBD4FF9017D
:100770009081F894EC91F0E0EE0FFF1FE60FF71F69
:1007800090E0918380838C918F5F8C938C91F901A1
:1007900080818F5F808378948091C1008062809394
:1007A000C100FA018191AF018111E1CFC45DDE4F3B
:1007B0000FB6F894DEBF0FBECDBFDF91CF911F9172
:1007C0000F91FF90EF90DF90CF90BF90AF909F90F0
:1007D0008F907F906F905F904F903F902F900895F3
:1007E0008E010F5E1E4F80E1D801E82F1D92EA9521
:1007F000E9F79E012F5F3E4FC55DDE4F39832883A9
:10080000CB52D140D9011D928A95E9F78C818A3269
:1008100009F435C6F80180838D818A3209F4D5C583
:1008200081838E818A3209F4D3C582838F818A3293
:1008300009F4D1C5838388858A3209F4CFC58483BE
:1008400089858A3209F4CDC585838A858A3209F47F
:10085000CBC586838B858A3209F4C9C587838C858D
:100860008A3209F4C7C580878D858A3209F4C5C5E7
:1008700081878E858A3209F4C3C582878F858A3243
:1008800009F4C1C5838788898A3209F4BFC5848782
:1008900089898A3209F4BDC585878A898A3209F433
:1008A000BBC586878B898A3209F4B9C5878780E101
:1008B00090E00496A1E0B0E0AC0FBD1FA80FB91FF7
:1008C0002C91222309F4AEC5CF5FDE4F2883C1509F
:1008D000D140DE01A80FB91F12962C91222309F4F2
:1008E000A4C5CE5FDE4F2883C250D140DE01A80FE1
:1008F000B91F13962C91222309F49AC5CD5FDE4FC0
:100900002883C350D140DE01A80FB91F14962C9143
:10091000222309F490C5CC5FDE4F2883C450D14018
:10092000DE01A80FB91F15962C91222309F486C564
:10093000CB5FDE4F2883C550D140DE01A80FB91F21
:1009400016962C91222309F47CC5CA5FDE4F2883BA
:10095000C650D140DE01A80FB91F17962C91222353
:1009600009F472C5C95FDE4F2883C750D140DE014C
:10097000A80FB91F18962C91222309F468C5C85FE7
:10098000DE4F2883C850D140DE01A80FB91F199649
:100990002C91222309F45EC5C75FDE4F2883C9501E
:1009A000D140DE01A80FB91F1A962C91222309F419
:1009B00054C5C65FDE4F2883CA50D140DE01A80F60
:1009C000B91F1B962C91222309F44AC5C55FDE4F3F
:1009D0002883CB50D140DE01A80FB91F1C962C9163
:1009E000222309F440C5C45FDE4F2883CC50D14098
:1009F000DE01A80FB91F1D962C91222309F436C5DC
:100A0000C35FDE4F2883CD50D140DE01A80FB91F50
:100A10001E962C91222309F42CC5C25FDE4F288339
:100A2000CE50D140DE01A80FB91F1F962C91222372
:100A300009F422C5C15FDE4F2883CF50D140DE01CB
:100A4000A80FB91F50968C91882309F41BC5C05F6D
:100A5000DE4F8883C051D14060E170E0D8018C91B5
:100A6000882309F4ADC090912E0989137CC0F80148
:100A70008181882309F47BC290912F09891373C067
:100A80008281882309F46EC29091300989136BC06A
:100A9000F8018381882309F460C290913109891398
:100AA00062C08481882309F453C29091320989136A
:100AB0005AC0F8018581882309F445C29091330911
:100AC000891351C08681882309F438C29091340972
:100AD000891349C0F8018781882309F42AC29091BB
:100AE0003509891340C08085882309F41DC290917F
:100AF0003609891338C0F8018185882309F44BC26F
:100B00009091370989132FC08285882309F43EC24A
:100B100090913809891327C0F8018385882309F447
:100B200030C29091390989131EC08485882309F445
:100B300023C290913A09891316C0F801858588234C
:100B400009F433C290913B0989130DC0868588232F
:100B500009F426C290913C09891305C0F8018785E4
:100B6000882309F4DCC120912C0930912D0968E318
:100B700072E084E5A9014E5F5D4FD901AF5FBD4FC3
:100B8000FA019081F894EC91F0E0EE0FFF1FE20F74
:100B9000F31F90E0918380838C918F5F8C938C9175
:100BA000FA0180818F5F808378948091C100806298
:100BB0008093C100FB018191BF018111E1CFF6CD8E
:100BC00080912E098111CFCFCF5FDE4F5880C15069
:100BD000D140CE5FDE4FF881C250D140CF5DDE4FB5
:100BE000F883C152D140CD5FDE4F2881C350D14040
:100BF000CE5DDE4F2883C252D140CC5FDE4F3881BC
:100C0000C450D140CD5DDE4F3883C352D140CB5F5D
:100C1000DE4F5881C550D140CC5DDE4F5883C45261
:100C2000D140D501350182E1680E711CC95DDE4FEE
:100C300079836883C752D140752DC75DDE4F198314
:100C40000883C952D140CF5DDE4F9881C152D14057
:100C50009F3409F4FEC17E3409F42FC241E051E013
:100C60004C0F5D1F4F5F5F4F472E20E030E0C12CDF
:100C7000D12C172F442009F4B0C18D919C9111976C
:100C8000BC01620F731FFB016081662309F4A5C1DB
:100C9000641509F48FC1712F1296A615B70599F640
:100CA000572EC95DDE4F68817981C752D140C75D3B
:100CB000DE4F08811981C952D140C401880F991FA4
:100CC000A80EB91E6115710509F069C2D501ED9133
:100CD000FC911082D501ED91FC911182D501ED912D
:100CE000FC911282D501ED91FC911382D501ED9119
:100CF000FC911482D501ED91FC911582D501ED9105
:100D0000FC911682D501ED91FC911782D501ED91F0
:100D1000FC911086D501ED91FC911186D501ED91E4
:100D2000FC911286D501ED91FC911386D501ED91D0
:100D3000FC911486D501ED91FC911586D501ED91BC
:100D4000FC911686D501ED91FC9117862A942328F3
:100D500009F4FFC280912C0990912D09F80140817E
:100D60004111CAC348E752E060E2DC01AE5FBD4F0B
:100D7000FC01EF5FFD4F8D01D8012C91F89420818B
:100D800030E0220F331F280F391F70E0D9016D9317
:100D90007C9320812F5F20832081D8012C912F5FAD
:100DA0002C9378942091C10020622093C100DA0135
:100DB0006D91AD016111E0CFE0912C09F0912D0909
:100DC0009F012E5F3D4FD9018C91F89411978C9122
:100DD00090E0880F991FE80FF91F80E3880D90E0DD
:100DE000918380838C918F5F8C938C91F9018081AA
:100DF0008F5F808378948091C10080628093C1006E
:100E000020912C0930912D0966E872E080E2A90159
:100E10004E5F5D4FD901AF5FBD4FFA019081F894ED
:100E2000EC91F0E0EE0FFF1FE20FF31F90E09183D3
:100E300080838C918F5F8C938C91FA0180818F5F7E
:100E4000808378948091C10080628093C100FB010F
:100E50008191BF018111E1CFD501ED91FC9180918C
:100E60002C0990912D094081442371F1BF016F5FDE
:100E70007F4FDC01AE5FBD4FFC01EF5FFD4F8D0189
:100E8000D8012C91F894208130E0220F331F280FD5
:100E9000391F50E0D9014D935C9320812F5F20834F
:100EA0002081D8012C912F5F2C9378942091C10040
:100EB00020622093C100DB014D91BD014111E0CFC3
:100EC00080912C0990912D0965E772E04AE0DC01E0
:100ED000AE5FBD4FFC01EF5FFD4F8D01D8012C913E
:100EE000F894208130E0220F331F280F391F50E083
:100EF000D9014D935C9320812F5F20832081D801FD
:100F00002C912F5F2C9378942091C1002062209324
:100F1000C100DB014D91BD014111E0CF47CC809173
:100F20003D09811120CE50CE8091360981111BCE12
:100F30004BCE80913509811116CE46CE8091340971
:100F4000811111CE41CE8091330981110CCE3CCE5E
:100F500080913209811107CE37CE809131098111FC
:100F600002CE32CE809130098111FDCD2DCE8091FF
:100F70002F098111F8CD28CE80913A098111F3CD46
:100F800023CE809139098111EECD1ECE8091380992
:100F90008111E9CD19CE809137098111E4CD14CEAC
:100FA00080913C098111DFCD0FCE80913B098111E9
:100FB000DACD0ACE2F5F3F4FFA014190AF014420B6
:100FC00071F0820F931FFC018081882309F463CEA6
:100FD000CC24C394D12C411050CE712F0AC0712F54
:100FE000820F931FFC018081811156CECC24C394C3
:100FF000D12CCD2809F450CE40912C0950912D09C7
:101000006BE172E083E49A012E5F3D4FDA01AF5F3E
:10101000BD4FF9019081F894EC91F0E0EE0FFF1FC5
:10102000E40FF51F90E0918380838C918F5F8C9308
:101030008C91F90180818F5F808378948091C100C9
:1010400080628093C100FB018191BF018111E1CFDA
:10105000ADCB7E3409F462C0EE24E394FE2CEC0E9A
:10106000FD1EFFEFEF1AFF0A472E80E090E0C12C33
:10107000D12C442009F4BDCF2D913C911197A901A9
:10108000480F591FFA014081442309F4B2CF44119B
:1010900003CE0196F70141907F01442009F4A0CFCF
:1010A000280F391FF9012081222309F4F5CDCC2422
:1010B000C394D12C4110E0CF9CCFEE24E394FE2CBE
:1010C000EC0EFD1EFFEFEF1AFF0A1EE480E090E039
:1010D000C12CD12C112309F48CCF2D913C91119767
:1010E000A901480F591FFA014081442309F481CF17
:1010F0004113D2CD0196F70111917F01112309F41B
:101100006FCF280F391FF9012081222309F4C4CDA4
:10111000CC24C394D12C1111E0CF6BCFCC5DDE4F2A
:10112000E881C452D140EE2309F4AFC1CE5DDE4F59
:10113000F881C252D140EE24E394FE2CEC0EFD1E49
:10114000FE3409F417C12FEFE21AF20A1EE480E020
:1011500090E0C12CD12C112309F44BCF2D913C915F
:101160001197A901480F591FFA014081442309F43E
:1011700040CF411391CD0196F70111917F011123C9
:1011800009F42ECF280F391FF9012081222309F4F9
:1011900083CDCC24C394D12C1111E0CF2ACFF501FB
:1011A000A081B1815C92623071050CF493CDF501A0
:1011B000A081B181CF5DDE4FF881C152D14011963F
:1011C000FC93633071050CF489CDF501A081B181E8
:1011D000CE5DDE4FF881C252D1401296FC9364304E
:1011E00071050CF47FCDF501A081B181CD5DDE4F9D
:1011F000F881C352D1401396FC93653071050CF40D
:1012000075CDF501A081B181CC5DDE4FF881C4526E
:10121000D1401496FC93663071050CF46BCDF5014A
:10122000A081B181CA5FDE4F2881C650D14015969A
:101230002C93673071050CF461CDF501A081B1816B
:10124000C95FDE4F2881C750D14016962C93683075
:1012500071050CF457CDF501A081B181C85FDE4F57
:101260002881C850D14017962C93693071050CF431
:101270004DCDF501A081B181C75FDE4F2881C950F6
:10128000D14018962C936A3071050CF443CDF501CA
:10129000A081B181C65FDE4F2881CA50D140199626
:1012A0002C936B3071050CF439CDF501A081B1811F
:1012B000C55FDE4F2881CB50D1401A962C936C30FD
:1012C00071050CF42FCDF501A081B181C45FDE4F13
:1012D0002881CC50D1401B962C936D3071050CF4B5
:1012E00025CDF501A081B181C35FDE4F2881CD50AE
:1012F000D1401C962C936E3071050CF41BCDF5017A
:10130000A081B181C25FDE4F2881CE50D1401D96B1
:101310002C936F3071050CF411CDF501A081B181D2
:10132000C15FDE4F2881CF50D1401E962C93603193
:10133000710509F007CDF501A081B181C05FDE4FD5
:101340002881C051D1401F962C932A94232809F05C
:1013500001CDCB5DDE4F28813981C552D140F901E5
:10136000E80FF91F1182108260E070E0C4010E9452
:101370002603F0CCFFEFEF1AFF0A1EE480E090E0B6
:10138000C12CD12C11C00196F70111917F011123BD
:1013900009F426CE280F391FF9012081222309F4F0
:1013A0007BCCCC24C394D12C112309F422CE2D91D3
:1013B0003C911197A901480F591FFA01408144231C
:1013C00009F417CE411368CCDECF81E090E071CAFA
:1013D00082E090E06ECA83E090E06BCA84E090E027
:1013E00068CA85E090E065CA86E090E062CA87E05E
:1013F00090E05FCA88E090E05CCA89E090E059CA5A
:101400008AE090E056CA8BE090E053CA8CE090E00E
:1014100050CA8DE090E04DCA8EE090E04ACA8FE05D
:1014200090E047CA60E070E019CB61E070E016CB55
:1014300062E070E013CB63E070E010CB64E070E03A
:101440000DCB65E070E00ACB66E070E007CB67E0AB
:1014500070E004CB68E070E001CB69E070E0FECAA8
:101460006AE070E0FBCA6BE070E0F8CA6CE070E024
:10147000F5CA6DE070E0F2CA6EE070E0EFCA84E099
:1014800090E018CA6FE070E0E9CACD5DDE4FF881E8
:10149000C352D140EE24E394FE2CEC0EFD1EF53435
:1014A00009F458C03FEFE31AF30A1EE480E090E02D
:1014B000C12CD12C112309F49CCD2D913C91119775
:1014C000A901480F591FFA014081442309F491CD25
:1014D0004113E2CB0196F70111917F01112309F429
:1014E0007FCD280F391FF9012081222309F4D4CBA5
:1014F000CC24C394D12CDECF0F5F1F4FDC01AE5F35
:10150000BD4FFC01EF5FFD4FBD01DB012C91F89455
:10151000208130E0220F331F280F391F50E0D901FE
:101520004D935C9320812F5F20832081DB012C91E0
:101530002F5F2C9378942091C10020622093C100EA
:10154000D8014D918D014111E0CF80912C099091EE
:101550002D0908CC2FEFE21AF20A1EE480E090E099
:10156000C12CD12C2D01D201112309F442CD2D9192
:101570003C911197A901480F591FFA01408144235A
:1015800009F437CDCE5DDE4FF881C252D140FE3432
:1015900021F0411779F1D2017FCB20912C093091B4
:1015A0002D096CE472E089E5A9014E5F5D4FD90118
:1015B000AF5FBD4FFA019081F894EC91F0E0EE0F2F
:1015C000FF1FE20FF31F90E0918380838C918F5F68
:1015D0008C938C91FA0180818F5F808378948091C5
:1015E000C10080628093C100FB018191BF01811124
:1015F000E1CFDCC80196F70111917F01112351F071
:10160000280F391FD9012C91222329F2CC24C3940D
:10161000D12CA9CFD201E4CCCF93DF93CDB7DEB7E5
:10162000CA54D1400FB6F894DEBF0FBECDBF0E94A2
:1016300063020E94BB021092C50082E38093C40043
:1016400010922B0710922A07109222051092230560
:101650001092240510922507109226071092270752
:1016600086E08093C20088E98093C100789482E28A
:1016700093E090932D0980932C0982E190E00E94E1
:101680001020C55CDE4F99838883CB53D14082E123
:1016900090E00E941020C35CDE4F99838883CD5375
:1016A000D140C55CDE4FC880D980CB53D14022E108
:1016B000C20ED11C7C01C55CDE4F08811981CB5361
:1016C000D14080E190E00E941020D8018D939D933D
:1016D0008D0180E190E00E941020F70181939193A9
:1016E0007F010C151D0569F7C35CDE4FA881B98128
:1016F000CD53D140C55CDE4FE881F981CB53D14059
:10170000BE016F5F7E4F20E030E08EE44FE495E451
:101710007F01FB0111921192BF01F701008111813C
:10172000F8018083F70100811181F8014183F701FD
:1017300000811181F8018283F70100811181F80194
:1017400093830D911C911197F80180830D911C9149
:101750001197F80141830D911C911197F801828333
:101760000D911C911197F8019383F701008111816C
:10177000F80114820D911C911197F8011482F70160
:1017800000811181F80115820D911C911197F801CA
:101790001582F70100811181F80116820D911C91CB
:1017A0001197F8011682F70100811181F801178263
:1017B0000D911C911197F8011782F7010081118199
:1017C000F80110860D911C911197F8011086F70110
:1017D00000811181F80111860D911C911197F8017A
:1017E0001186F70100811181F80112860D911C917B
:1017F0001197F8011286F70100811181F801138613
:101800000D911C911197F8011386F7010081118148
:10181000F80114860D911C911197F8011486F701B7
:1018200000811181F80115860D911C911197F80125
:101830001586F70100811181F80116860D911C9122
:101840001197F8011686F701019111917F01F801B6
:1018500017860D911D91F80117862F5F3F4F293094
:10186000310509F056CFC55CDE4FA881B981CB5355
:10187000D1405096ED91FC91519791E49083509610
:10188000ED91FC9151978CE481835096ED91FC9100
:10189000519782835096ED91FC9151971382C35CCE
:1018A000DE4FA881B981CD53D1405096ED91FC9186
:1018B000519790835096ED91FC915197818350966A
:1018C000ED91FC91519782835096ED91FC91519747
:1018D000138280E091E0EEE2F9E0DF019C011D92CD
:1018E00021503040E1F78F01882799278E1B9F0BED
:1018F000CD5BDE4F99838883C354D140F999FECFE5
:10190000CD5BDE4F88819981C354D140800F911FF8
:101910000E948C21D8018D938D01B9E00E331B07F5
:1019200069F780E3CD5CDE4F8883C353D140CC5C44
:10193000DE4F8883C453D140CB5CDE4F8883C553D0
:10194000D140FE01ED5DFE4FC75CDE4FF983E883B9
:10195000C953D14080E111928A95E9F78EE4CD5DBB
:10196000DE4F8883C352D1409FE4CC5DDE4F988325
:10197000C452D140CB5DDE4F8883C552D14085E44F
:10198000CA5DDE4F8883C652D1409E012F5F3E4F15
:10199000CB5BDE4F39832883C554D140C75BDE4F14
:1019A00039832883C954D140C35CDE4FA881B981F3
:1019B000CD53D140CF5BDE4FB983A883C154D14012
:1019C000C55CDE4FE881F981CB53D140C15CDE4F6D
:1019D000F983E883CF53D140C95BDE4F3983288335
:1019E000C754D140212C312C412C512C4AE0BE014E
:1019F0006A5C7E4FC95BDE4FA881B981C754D14074
:101A00008D919D91C95BDE4FB983A883C754D140A6
:101A10000E944F214201B0E18B0E911CB401C15CC8
:101A2000DE4FE881F981CF53D140808191810E94BE
:101A3000E9006201F0E9CF0ED11CB601CF5BDE4FA9
:101A4000A881B981C154D1408D919C910E94E90037
:101A50007101B0EFEB1ABEEFFB0AB701CE018A5C51
:101A60009E4F0E94C500CE018A5C9E4F0E9431218C
:101A7000C75BDE4FE881F981C954D14081939193CE
:101A8000C75BDE4FF983E883C954D140C15CDE4FA8
:101A9000A881B981CF53D1408D919C91892B09F4B4
:101AA00070C1CF5BDE4FA881B981C154D1408D9107
:101AB0009C91892B09F4A7C1B701CE018A5C9E4F86
:101AC0000E94C500B401C15CDE4FE881F981CF53AB
:101AD000D14081919191C15CDE4FF983E883CF536E
:101AE000D1400E94E900B601CF5BDE4FA881B981E9
:101AF000C154D1408D919D91CF5BDE4FB983A883B6
:101B0000C154D1400E94E900CE018A5C9E4F0E94E0
:101B10003121CB5BDE4FE881F981C554D1408193FF
:101B20009193CB5BDE4FF983E883C554D140F3E05A
:101B30002F0E311C240120E88216910409F056CFA3
:101B4000CE018F5F9E4F7C0100E010E0D7016D91C8
:101B50007D917D01C8010E9426030F5F1F4F083051
:101B60001105A1F7ECE2F8E0C95BDE4FF983E883E9
:101B7000C754D140DF01E0E0F1E01D923197E9F771
:101B8000ACE2B7E0E0E0F1E01D923197E9F7FFEF5A
:101B900027EA31E6F15020403040E1F700C0000074
:101BA00040912C0950912D090CE218E0C95BDE4FE1
:101BB00019830883C754D1409801CA018B5F9B4F9A
:101BC000DA01AD5FBB4FFC0160816623E1F3F8945D
:101BD000EC91F0E0EE0FFF1FE40FF51FED5FFD4FFE
:101BE00070816C916F5F6C936C91FC0160816150AE
:101BF00060837894F90171939F01772331F07A30F3
:101C000011F07D3001F7D9011C92ACE2B7E0ECE2B3
:101C1000F8E091918091C00085FFFCCF9D9329E071
:101C2000EC32F207B1F780912C07803309F401C13F
:101C300040912C0950912D0925EF32E066E4CA014C
:101C40008E5F9D4FDA01AF5FBD4FFC017081F8944C
:101C5000EC91F0E0EE0FFF1FE40FF51F70E07183D1
:101C600060836C916F5F6C936C91FC0160816F5F1E
:101C7000608378946091C10060626093C100F90153
:101C800061919F016111E1CFC35CDE4F6880798073
:101C9000CD53D140C55CDE4F48805980CB53D140F5
:101CA0009E012F5F3E4F190190EAC92ED12C23E1EE
:101CB000A22EBB24B3944AE0BE016A5C7E4FD101E0
:101CC0008D919D911D010E944F218601005911099E
:101CD000F201819091902F017601F0E8EF1AF1085E
:101CE000F999FECFD4016D914D01C8010E94942154
:101CF0000F5F1F4FE016F10699F786010051110999
:101D0000F301E190F1903F01F999FECFD7016D9178
:101D10007D01C8010E9494210F5F1F4FC016D1069C
:101D200099F7850103501109FE01EA5CFE4F7F011E
:101D3000F999FECFD7016D917D01C8010E949421D0
:101D40000F5F1F4FA016B10699F7B3E0AB0EB11CA1
:101D5000E0E1CE0ED11CFBE2AF16F1E0BF0609F0C8
:101D6000AACF2FEF39E648E1215030404040E1F75B
:101D700000C00000C95BDE4FA881B981C754D140C3
:101D8000FACEFE01ED5DFE4F3F015201F0E2AF0ED3
:101D9000B11C8401F999FECFD3016D913D01C801B9
:101DA0000E9494210F5F1F4FA016B10699F7CF5BD9
:101DB000DE4FA881B981C154D1408D919C91892B6E
:101DC00011F1C15CDE4FA881B981CF53D1408D9113
:101DD0009C91892B09F070CEDE01AD5CBE4F3D01B8
:101DE00081010D5E1E4F5701F999FECFF3016191FC
:101DF0003F01C5010E949421FFEFAF1ABF0A0A15E7
:101E00001B0591F759CEFE01ED5DFE4F5F01F0EA33
:101E10004F0E511C8601F999FECFF50161915F01CA
:101E2000C8010E9494210F5F1F4F4016510699F779
:101E3000C8CF80912D07803311F40C94CE178133D5
:101E400011F40C949618823309F4F5C3833309F422
:101E5000D9C2843309F4DFC3853309F4CCC1863396
:101E600009F495C0873399F1883309F461C0893347
:101E700009F00ACF80912C0990912D0945EF52E08D
:101E800066E49C012E5F3D4FDC01AF5FBD4FF90161
:101E90007081F894EC91F0E0EE0FFF1FE80FF91F4E
:101EA00070E0718360836C916F5F6C936C91F9014A
:101EB00060816F5F608378946091C100606260931D
:101EC000C100FA016191AF016111E1CFDDCE8091D6
:101ED0002C0990912D0945EF52E066E49C012E5F9C
:101EE0003D4FDC01AF5FBD4FF9017081F894EC917B
:101EF000F0E0EE0FFF1FE80FF91F70E071836083C1
:101F00006C916F5F6C936C91F90160816F5F60837E
:101F100078946091C10060626093C100FA016191A0
:101F2000AF016111E1CF80912D07883309F09FCF78
:101F300080912C0990912D0945EF52E066E49C01B7
:101F40002E5F3D4FDC01AF5FBD4FF9017081F8940A
:101F5000EC91F0E0EE0FFF1FE80FF91F70E07183C6
:101F600060836C916F5F6C936C91F90160816F5F1E
:101F7000608378946091C10060626093C100FA014F
:101F80006191AF016111E1CF80912D0770CF00E029
:101F900010E0F999FECF60910000C8010E949421E1
:101FA0000F5F1F4F0115F2E01F0799F7C55CDE4F69
:101FB00028813981CB53D140C15CDE4F39832883DE
:101FC000CF53D140C35CDE4F88819981CD53D1403E
:101FD000CF5BDE4F99838883C154D140DE01AF5F70
:101FE000BE4FCB5BDE4FB983A883C554D14093E18C
:101FF000492E5524539420E2622E712C30EA232E70
:10200000312C7301B0E1EB1AF108FE01ED5DFE4FDA
:102010005F016F018701F999FECFD6016D916D01C6
:10202000C8010E9494210F5F1F4F6016710699F737
:10203000830100591F4F6801F999FECFF5016191A5
:102040005F01C6010E949421FFEFCF1ADF0A2C1412
:102050003D0491F7620123E0C21AD108CE018D5CE4
:102060009E4F4C015601F999FECFD4016D914D015F
:10207000C5010E949421BFEFAB1ABB0AA414B5049A
:1020800091F7C414D50490F4FE01EA5CFE4F5F01A1
:10209000F999FECFC6010E948C21D5018D935D0177
:1020A000BFEFCB1ADB0AC414D50490F38EE2C82E1E
:1020B00089E0D82EF999FECFCD5BDE4F88819981DA
:1020C000C354D1408C0D9D1D0E948C21F60181933B
:1020D0006F01FEE3CF16F9E0DF0661F7C15CDE4F6A
:1020E000A881B981CF53D140CD90DD90C15CDE4F46
:1020F000B983A883CF53D140E614F70470F4F9995B
:10210000FECFC7010E948C21D6018D936D01BFEFD8
:10211000EB1AFB0AE614F70491F7CF5BDE4FE88178
:10212000F981C154D140E190F190CF5BDE4FF9834A
:10213000E883C154D1400215130568F4F999FECF24
:10214000C8010E948C21D7018D937D010F5F1F4F25
:102150000215130598F3CE018A5C9E4F0E9431212F
:10216000CB5BDE4FE881F981C554D14081939193D7
:10217000CB5BDE4FF983E883C554D140F0E12F0EED
:10218000311C20E1620E711C33E0430E511C40EA09
:102190006416710409F035CF80912C0990912D09B6
:1021A00048EE52E062E59C012E5F3D4FDC01AF5FDF
:1021B000BD4FF9017081F894EC91F0E0EE0FFF1F34
:1021C000E80FF91F70E0718360836C916F5F6C930F
:1021D0006C91F90160816F5F608378946091C100B8
:1021E00060626093C100FA016191AF016111E1CFBA
:1021F00080912D0737CEE0902E07EE2011F40C943D
:10220000BD19F0902F07FF2011F40C94F81D0091D8
:102210003007002311F40C946B1E10913107112329
:1022200011F40C945D1EB0913207BB2311F40C9491
:10223000501EA0913307AA2311F40C94441EF09170
:102240003407FF2311F40C94841EE0913507EE232C
:1022500011F40C947A1E70913607772311F40C94C4
:102260008F1E60913707662311F40C943C1E509129
:102270003807552311F40C94911F409139074423DA
:1022800011F40C948B1F30913A07332311F40C9402
:10229000861F20913B07222311F40C94821F80910A
:1022A0003C07882311F40C94B91990913D07EE2056
:1022B00011F40C94BD19D0902E09DE1074C0FF20CB
:1022C00011F40C94EC1EE0902F09EF106CC0002369
:1022D00011F40C94E61EF0903009F01264C0112342
:1022E00011F40C94E01E0091310901135CC0BB2372
:1022F00011F40C94DA1E109132091B1354C0AA2356
:1023000011F40C94D41EB0913309BA134CC0FF23BE
:1023100011F40C94CE1EA0913409AF1344C0EE23E7
:1023200011F40C94C81EF0913509FE133CC07723BC
:1023300011F40C94C21EE0913609E71334C06623F1
:1023400011F40C94BC1E7091370976132CC05523E0
:1023500011F40C94B61E60913809561324C044231E
:1023600011F40C94B01E5091390954131CC033233E
:1023700011F40C94AA1E40913A09341314C022237C
:1023800011F40C94A41E30913B0932130CC0882325
:1023900011F40C949E1E20913C09281304C099232B
:1023A00011F40C94981E80912C0990912D0948E30A
:1023B00052E064E59C012E5F3D4FDC01AF5FBD4FF5
:1023C000F9017081F894EC91F0E0EE0FFF1FE80F37
:1023D000F91F70E0718360836C916F5F6C936C91F7
:1023E000F90160816F5F608378946091C1006062E1
:1023F0006093C100FA016191AF016111E1CF809159
:102400002D072DCDE0902E07EE2011F40C94CC1B5F
:10241000F0902F07FF2011F40C94601F00913007FB
:10242000002311F40C94511F10913107112311F462
:102430000C94431FB0913207BB2311F40C94361F48
:10244000A0913307AA2311F40C942A1FF0913407AA
:10245000FF2311F40C941F1FE0913507EE2311F4B4
:102460000C94151F70913607772311F40C940C1FF0
:1024700060913707662311F40C94041F50913807BC
:10248000552311F40C94FD1E40913907442311F497
:102490000C94F71E30913A07332311F40C94F21E7A
:1024A00020913B07222311F40C94381E80913C07A5
:1024B000882311F40C94C81B90913D07EE2011F471
:1024C0000C94CC1BD0902E09DE1074C0FF2011F4A8
:1024D0000C94DA1FE0902F09EF106CC0002311F468
:1024E0000C94D41FF09030090F1164C0112311F423
:1024F0000C94CE1F0091310901135CC0BB2311F471
:102500000C94C81F109132091B1354C0AA2311F454
:102510000C94C21FB0913309BA134CC0FF2311F4BD
:102520000C94BC1FA0913409AF1344C0EE2311F4E6
:102530000C94B61FF0913509FE133CC0772311F4BB
:102540000C94B01FE09136097E1334C0662311F459
:102550000C94AA1F7091370967132CC0552311F4EE
:102560000C94A41F60913809651324C0442311F40E
:102570000C949E1F5091390954131CC0332311F43D
:102580000C94981F40913A09431314C0222311F46C
:102590000C947C1F30913B0932130CC0882311F43A
:1025A0000C94761F20913C09821304C0992311F4E6
:1025B0000C94701F80912C0990912D0948E352E0F2
:1025C00064E59C012E5F3D4FDC01AF5FBD4FF9011B
:1025D0007081F894EC91F0E0EE0FFF1FE80FF91F07
:1025E00070E0718360836C916F5F6C936C91F90103
:1025F00060816F5F608378946091C10060626093D6
:10260000C100FA016191AF016111E1CF80912D0705
:10261000843309F021CC40E050E0BE016F5F7E4F73
:10262000C35CDE4F88819981CD53D1400E946F03F6
:1026300080912D0711CCCD5EDE4F1882C351D14061
:10264000CC5EDE4F1882C451D140CB5EDE4F188283
:10265000C551D140CA5EDE4F1882C651D140C95E15
:10266000DE4F1882C751D140C85EDE4F1882C85174
:10267000D140C75EDE4F1882C951D140C65EDE4FE1
:102680001882CA51D140C55EDE4F1882CB51D1406D
:10269000C45EDE4F1882CC51D140C35EDE4F18823B
:1026A000CD51D140C25EDE4F1882CE51D140C15EC5
:1026B000DE4F1882CF51D140C05EDE4F1882C0522B
:1026C000D140CF5DDE4F1882C152D140CE5DDE4F8A
:1026D0001882C252D140FE013196D8019D918D01E0
:1026E0008091C00085FFFCCF9193B9E00C321B07AD
:1026F000A1F77E80772009F431C63B80CD5EDE4FA6
:102700003882C351D1402F81222309F41CC65C803A
:10271000CC5EDE4F5882C451D1409884992009F490
:1027200009C66D80CB5EDE4F6882C551D140998568
:10273000992309F4F6C5CA5EDE4F7882C651D140AE
:102740008A85882309F4E5C5C95EDE4F2883C75111
:10275000D1403B85332309F4D4C5C85EDE4F98824F
:10276000C851D1402C85222309F4C4C5C75EDE4F71
:102770009883C951D1409D85992311F40C94A71BCE
:10278000C65EDE4F8883CA51D1408E85882311F4FE
:102790000C94A01BC55EDE4F3883CB51D1403F85E2
:1027A000332311F40C94991BC45EDE4F2883CC5163
:1027B000D1402889222309F4B5C7C35EDE4F988330
:1027C000CD51D1409989992311F40C94B51BC25E67
:1027D000DE4F8883CE51D1408A89882309F4BEC751
:1027E000C15EDE4F3883CF51D1403B89332311F492
:1027F0000C94BC1BC05EDE4F2883C052D1402C8994
:10280000222309F470C5CF5DDE4F9883C152D140B9
:102810009D89992309F436C5CE5DDE4F8883C25267
:10282000D14004E110E063E170E0A2E1B0E0CD5EF0
:10283000DE4F8880C351D140C55CDE4FE881F9810D
:10284000CB53D140A12CB12C81E090E0C15CDE4F94
:1028500079836883CF53D140732D1D01652DCF5BE4
:10286000DE4F19830883C154D140162D6F3409F40B
:1028700037C27E3409F407C2B3E1CB2EDD24D394F2
:10288000CC0EDD1EBFEFCB1ADB0A482C20E030E077
:10289000062F442009F457C040815181DA01A20F6C
:1028A000B31F6C91662309F44EC06415D1F1602FFB
:1028B00080E090E0BFEFAB1ABB0A329629E0A21687
:1028C000B104A1F680912C0990912D0945E952E0BF
:1028D00063E49C012E5F3D4FDC01AF5FBD4FF9010A
:1028E0007081F894EC91F0E0EE0FFF1FE80FF91FF4
:1028F00070E0718360836C916F5F6C936C91F901F0
:1029000060816F5F608378946091C10060626093C2
:10291000C100FA016191AF016111E1CF80912D07F2
:1029200095CA2F5F3F4FD6014D906D01442069F04D
:10293000DA01A20FB31F8C91882309F4B8CF81E08C
:1029400090E04110A9CF602F09C0602F240F351FE0
:10295000D9018C918111ACCF81E090E0813091055B
:1029600009F0A8CFC15CDE4F68817981CF53D14097
:10297000D101CF5BDE4F08811981C154D14080E382
:10298000982E9A0CE1E0F0E0EC0FFD1FE20DF31D34
:10299000808190E0C09744E6489F9001499F300DA8
:1029A0001124E1E0F0E0EC0FFD1FE60FF71F80813E
:1029B00090E0C097AC01440F551F880F991F880FF6
:1029C000991F880F991F840F951F280F391FE1E069
:1029D000F0E0EC0FFD1FE00FF11F808190E0C09749
:1029E000280F391FF501EE0FFF1F81E091E08C0FDA
:1029F0009D1FE80FF91F3183208398E0A916B104C9
:102A000009F4A4C1F5013197E730F10508F498C144
:102A100030938B0020938A0040912C0950912D090E
:102A20008CE7C82E82E0D82E83E7FA01EE5FFD4FD7
:102A30007F019A012F5F3D4FF7019081F894F901D2
:102A40009081E92FF0E0EE0FFF1FE40FF51F90E0FB
:102A500091838083F90180818F5F80838081F7017A
:102A600080818F5F808378948091C10080628093A1
:102A7000C100F60181916F018111DECFE0902C0938
:102A8000F0902D09A7014E5F5D4FFA018081F89407
:102A900097012F5F3D4FF901808190E0880F991FCA
:102AA000F701E80FF91F892D90E091838083F901E8
:102AB00080818F5F80838081FA0180818F5F808336
:102AC00078948091C10080628093C10040912C096C
:102AD00050912D09F3EDCF2EF2E0DF2E80E29A0126
:102AE0002E5F3D4F790121503109F7019081F89413
:102AF000F9019081E92FF0E0EE0FFF1FE40FF51FC1
:102B000090E091838083F90180818F5F8083808151
:102B1000F70180818F5F808378948091C10080620B
:102B20008093C100F60181916F018111DECF21E018
:102B300030E02C0F3D1FA20FB31FFC9040912C09D9
:102B400050912D099A012E5F3D4FD9018C91F89437
:102B500011978C9190E0880F991FFA01E80FF91FE7
:102B60008F2D90E0918380838C918F5F8C938C91DB
:102B7000F90180818F5F808378948091C1008062A9
:102B80008093C100E1E0F0E0EC0FFD1FE60FF71FBE
:102B90004081E0912C09F0912D099F012E5F3D4F5E
:102BA000D9018C91F89411978C9190E0880F991F1E
:102BB000E80FF91F842F90E0918380838C918F5FC1
:102BC0008C938C91F90180818F5F808378948091C0
:102BD000C10080628093C100E1E0F0E0EC0FFD1FD6
:102BE000E00FF11F4081E0912C09F0912D099F0128
:102BF0002E5F3D4FD9018C91F89411978C9190E004
:102C0000880F991FE80FF91F842F90E0918380832C
:102C10008C918F5F8C938C91F90180818F5F808381
:102C200078948091C10080628093C10080912C09CA
:102C300090912D0945E752E06AE09C012E5F3D4FDF
:102C4000DC01AF5FBD4FF9017081F894EC91F0E0C9
:102C5000EE0FFF1FE80FF91F70E0718360836C9126
:102C60006F5F6C936C91F90160816F5F6083789402
:102C70006091C10060626093C100FA016191AF018F
:102C80006111E1CF4BCEA3E1EA2EFF24F394EC0EC9
:102C9000FD1EBFEFEB1AFB0A482C20E030E0062FA8
:102CA000442009F450CE40815181DA01A20FB31FB4
:102CB0006C91662309F447CE6411F9CD2F5F3F4F25
:102CC000D7014D907D01442009F43FCEDA01A20FD7
:102CD000B31F8C91882309F4EACD81E090E0E0CF26
:102CE0007E3409F44DC203E1E02EFF24F394EC0E90
:102CF000FD1EBFEFEB1AFB0A482C20E030E0062F48
:102D0000442009F420CE40815181DA01A20FB31F83
:102D10006C91662309F417CE4612C9CD2F5F3F4F41
:102D2000D7014D907D01442009F40FCEDA01A20FA6
:102D3000B31F8C91882309F4BACD81E090E0E0CFF5
:102D40008827E558FF4F8F4F0C94F41FCF5FDE4F5D
:102D500039832883C150D140CD5FDE4F398328832A
:102D6000C350D140CB5FDE4F39832883C550D1405B
:102D7000C95FDE4F39832883C750D140C75FDE4F1C
:102D800039832883C950D140C55FDE4F39832883FA
:102D9000CB50D140C35FDE4F39832883CD50D14023
:102DA000C15FDE4F39832883CF50D14028BD309397
:102DB000A9002093A8003093AB002093AA00209391
:102DC000B300309389002093880030938B002093C8
:102DD0008A00309399002093980030939B002093B1
:102DE0009A0040912C0950912D0922EBC22E22E02D
:102DF000D22E81E49A012E5F3D4F79012150310995
:102E0000F7019081F894F9019081E92FF0E0EE0F3D
:102E1000FF1FE40FF51F90E091838083F90180810B
:102E20008F5F80838081F70180818F5F80837894BA
:102E30008091C10080628093C100F60181916F0191
:102E40008111DECF21E030E02C0F3D1FA20FB31F18
:102E5000FC9040912C0950912D099A012E5F3D4F15
:102E6000D9018C91F89411978C9190E0880F991F5B
:102E7000FA01E80FF91F8F2D90E0918380838C91E8
:102E80008F5F8C938C91F90180818F5F8083789420
:102E90008091C10080628093C100E1E0F0E0EC0F1E
:102EA000FD1FE60FF71F4081E0912C09F0912D09DD
:102EB0009F012E5F3D4FD9018C91F89411978C9111
:102EC00090E0880F991FE80FF91F842F90E09183FD
:102ED00080838C918F5F8C938C91F90180818F5FBF
:102EE000808378948091C10080628093C100E1E08A
:102EF000F0E0EC0FFD1FE00FF11F4081E0912C0985
:102F0000F0912D099F012E5F3D4FD9018C91F894CE
:102F100011978C9190E0880F991FE80FF91F842F6B
:102F200090E0918380838C918F5F8C938C91F901D9
:102F300080818F5F808378948091C10080628093CC
:102F4000C10080912C0990912D0945E752E06AE07B
:102F50009C012E5F3D4FDC01AF5FBD4FF9017081D9
:102F6000F894EC91F0E0EE0FFF1FE80FF91F70E00E
:102F7000718360836C916F5F6C936C91F9016081D8
:102F80006F5F608378946091C10060626093C1005C
:102F9000FA016191AF016111E1CFC0CC9E012F5FB9
:102FA0003F4FAEE2B9E0ECE2F8E0AD0191918091E3
:102FB000C00085FFFCCFD9019D939D01DA011D92D0
:102FC000AD01B9E0EC32FB0789F78B81882341F032
:102FD000DE011496EEE2F9E081938D918111FCCF30
:102FE0002EE2C22E29E0D22EE12CF12CF999FECF4F
:102FF000F60161916F01C7010E949421FFEFEF1A62
:10300000FF0A20E1E216F10489F720912C093091A2
:103010002D0964E872E08DE4A9014E5F5D4FD9018E
:10302000AF5FBD4FFA019081F894EC91F0E0EE0FA4
:10303000FF1FE20FF31F90E0918380838C918F5FDD
:103040008C938C91FA0180818F5F8083789480913A
:10305000C10080628093C100FB018191BF01811199
:10306000E1CF80912C0990912D0940912E094423A4
:1030700069F16FE279E0DC01AE5FBD4FFC01EF5F0B
:10308000FD4F7D01D7012C91F894208130E0220F73
:10309000331F280F391F50E0D9014D935C932081D5
:1030A0002F5F20832081D7012C912F5F2C93789460
:1030B0002091C10020622093C100DB014D91BD0130
:1030C0004111E0CF80912C0990912D0965E772E0C4
:1030D0004AE0DC01AE5FBD4FFC01EF5FFD4F7D01BB
:1030E000D7012C91F894208130E0220F331F280F54
:1030F000391F50E0D9014D935C9320812F5F2083CD
:103100002081D7012C912F5F2C9378942091C100BE
:1031100020622093C100DB014D91BD014111E0CF40
:1031200080912D07813311F00C94230F41E050E082
:10313000BE016F5F7E4FC55CDE4F88819981CB53A6
:10314000D1400E946F0380912D070C94230F309380
:10315000A9002093A80060CC3093AB002093AA0074
:103160005BCC2093B30058CC309389002093880027
:1031700053CC28BD51CC30939B0020939A004CCC6B
:10318000992009F44FC023E1E22EFF24F394EC0EC2
:10319000FD1EBFEFEB1AFB0A482C20E030E0062FA3
:1031A0001E3489F1442009F4CECB40815181DA01EB
:1031B000A20FB31F6C91662309F4C5CB461277CBDF
:1031C0002F5F3F4FD7014D907D01442009F4BDCBC7
:1031D000DA01A20FB31F8C91882309F468CB81E038
:1031E00090E0E0CF2F5F3F4FD7014D907D0144200D
:1031F00009F4ABCBDA01A20FB31F8C91882309F439
:1032000056CB81E090E0442009F49DCB4081518170
:10321000DA01A20FB31F6C91662309F494CB461216
:1032200046CBE0CF35E443E1E42EFF24F394EC0EEB
:10323000FD1E731671F1AFEFEA1AFA0A482C20E06E
:1032400030E0062F442009F47ECB40815181DA0121
:10325000A20FB31F6C91662309F475CB461227CBDE
:103260002F5F3F4FD7014D907D01442009F46DCB76
:10327000DA01A20FB31F8C91882309F418CB81E0E7
:1032800090E0E0CF03E110E062E170E0A1E1B0E0A6
:10329000CECA4FEFE41AF40A482C20E030E0062FA3
:1032A000442009F450CB40815181DA01A20FB31FB1
:1032B0006C91662309F447CB1E3409F4F8CA6411F3
:1032C000F6CA2F5F3F4FD7014D907D01442009F48E
:1032D0003CCBDA01A20FB31F8C91882309F4E7CA13
:1032E00081E090E0DDCF02E110E061E170E0A0E17B
:1032F000B0E09DCA0AE010E069E070E0A8E0B0E04C
:1033000096CA912C09E010E068E070E0A7E0B0E018
:103310008ECA912C08E010E067E070E0A6E0B0E013
:1033200086CA912C712C07E010E066E070E0A5E001
:10333000B0E07DCA712C612C06E010E065E070E021
:10334000A4E0B0E074CA912C712C612C512C05E0E2
:1033500010E064E070E0A3E0B0E069CA912C612C59
:10336000512C312C04E010E063E070E0A2E0B0E00A
:103370005ECA90E0E1100C945B1180912E098111DE
:103380000C94D31180912C0990912D0944E153E0C4
:1033900064E49C012E5F3D4FDC01AF5FBD4FF9013E
:1033A0007081F894EC91F0E0EE0FFF1FE80FF91F29
:1033B00070E0718360836C916F5F6C936C91F90125
:1033C00060816F5F608378946091C10060626093F8
:1033D000C100FA016191AF016111E1CF20912C0987
:1033E00030912D0960912E09662359F14FE259E081
:1033F000C9018E5F9D4FD901AF5FBD4FFC01708148
:10340000F894EC91F0E0EE0FFF1FE20FF31F70E075
:10341000718360836C916F5F6C936C91FC01608130
:103420006F5F608378946091C10060626093C100B7
:10343000FA016191AF016111E1CF20912C09309126
:103440002D09C35CDE4FE880F980CD53D14000E305
:1034500010E0D12CECE9CE2EF6EFBF2E42EE52E07A
:103460006AE0C9018E5F9D4FD901AF5FBD4FFC017E
:103470007081F894EC91F0E0EE0FFF1FE20FF31F64
:1034800070E0718360836C916F5F6C936C91FC0151
:1034900060816F5F608378946091C1006062609327
:1034A000C100FA016191AF016111E1CFE0912C09F6
:1034B000F0912D099F012E5F3D4FD9018C91F89419
:1034C00011978C9190E0880F991FE80FF91F1183D5
:1034D00000838C918F5F8C938C91F90180818F5F39
:1034E000808378948091C10080628093C100E091D4
:1034F0002C09F0912D099F012E5F3D4FD9018C9130
:10350000F89411978C9190E0880F991FE80FF91F9C
:1035100089E090E0918380838C918F5F8C938C9174
:10352000D9018C918F5F8C9378948091C1008062D7
:103530008093C100F701A191B1917F0180912C0985
:1035400090912D096C91662359F11196AC014E5F53
:103550005D4F9C012F5F3D4FFA017081F894F90196
:103560007081E72FF0E0EE0FFF1FE80FF91F70E00A
:1035700071836083F90160816F5F60836081FA010C
:1035800060816F5F608378946091C1006062609336
:10359000C1006D916111E0CF80912C0990912D09AE
:1035A000AC014E5F5D4FFA012081F8943197208184
:1035B00030E0220F331F820F931F29E030E0DC013F
:1035C0002D933C9380818F5F80838081DA018C9181
:1035D0008F5F8C9378948091C10080628093C1004A
:1035E0008D2D806480937C0080917A00806480932C
:1035F0007A0080917A008439E1F720917800309147
:1036000079003327C90164E670E00E94E01FE09171
:103610002C09F0912D09AF014E5F5D4FDA018C91BD
:10362000F89411978C9190E0880F991FE80FF91F7B
:10363000CB01C096918380838C918F5F8C938C910A
:10364000FA0180818F5F808378948091C1008062CD
:103650008093C1004C2D4603C001479F900D11245B
:103660004901880E991EC4016AE070E00E94E01FC3
:10367000E0912C09F0912D09AF014E5F5D4FDA0109
:103680008C91F89411978C9190E0880F991FE80F16
:10369000F91FCB01C096918380838C918F5F8C93AF
:1036A0008C91FA0180818F5F808378948091C10032
:1036B00080628093C100E0912C09F0912D09AF0147
:1036C0004E5F5D4FDA018C91F89411978C9190E0E8
:1036D000880F991FE80FF91F2B2D2603C001279F84
:1036E000900D1124880D991DC09699279183808390
:1036F0008C918F5F8C938C91DA018C918F5F8C937E
:1037000078948091C10080628093C100D3940F5F50
:103710001F4FB8E0DB1609F47BC220912C093091D1
:103720002D099CCE0EE010E06DE070E0ACE0B0E062
:103730007EC80DE010E06CE070E0ABE0B0E077C870
:103740000CE010E06BE070E0AAE0B0E070C80BE0C5
:1037500010E06AE070E0A9E0B0E069C800E110E0C4
:103760006FE070E0AEE0B0E062C80FE010E06EE045
:1037700070E0ADE0B0E05BC801E110E060E170E056
:10378000AFE0B0E054C8309399002093980044C94A
:1037900090E0E1100C94621280912E0981110C943A
:1037A000DA1280912C0990912D0944E153E064E4F0
:1037B0009C012E5F3D4FDC01AF5FBD4FF901708171
:1037C000F894EC91F0E0EE0FFF1FE80FF91F70E0A6
:1037D000718360836C916F5F6C936C91F901608170
:1037E0006F5F608378946091C10060626093C100F4
:1037F000FA016191AF016111E1CF40912C09509123
:103800002D0960912E09662359F12FE239E0CA0192
:103810008E5F9D4FDA01AF5FBD4FFC017081F89460
:10382000EC91F0E0EE0FFF1FE40FF51F70E07183E5
:1038300060836C916F5F6C936C91FC0160816F5F32
:10384000608378946091C10060626093C100F90167
:1038500061919F016111E1CF40912C0950912D0997
:10386000C55CDE4F08811981CB53D1409E012F5F8B
:103870003E4F5901E0E3F0E09CE9992E26EF822EBD
:1038800005C040912C0950912D0931966CED72E0E4
:103890008AE0E82E9A012E5F3D4FCA018F5F9D4F4F
:1038A000D901FC90F894DC01FC90AF2DB0E0AA0F98
:1038B000BB1FA40FB51FF12CED92FC92DC01FC9014
:1038C000F394FC92FC90D901FC90F394FC927894D0
:1038D000A091C100A062A093C100DB01ED90BD01E9
:1038E000E110DECF60912C0970912D09AB014E5F84
:1038F0005D4FDA018C91F8949B012F5F3D4FD90108
:103900008C9190E0880F991FDB01A80FB91FED93F0
:10391000FC93D9018C918F5F8C938C91DA018C91FF
:103920008F5F8C9378948091C10080628093C100F6
:1039300060912C0970912D09AB014E5F5D4FDA014A
:103940008C91F8949B012F5F3D4FD9018C9190E0B1
:10395000880F991FDB01A80FB91F89E090E08D93B4
:103960009C93D9018C918F5F8C938C91DA018C910F
:103970008F5F8C9378948091C10080628093C100A6
:10398000D8012D913D918D0180912C0990912D09A7
:10399000D901EC90EE2071F12F5F3F4FBC016E5FBB
:1039A0007D4FAC014F5F5D4F6F01DB01EC91F894EF
:1039B000FA01A081B0E0AA0FBB1FA80FB91FF12C1C
:1039C000ED92FC92A081AF5FA083A081FB01A0815A
:1039D000AF5FA0837894A091C100A062A093C100C2
:1039E000D901ED909D01E110E0CFF60180912C0905
:1039F00090912D09AC014E5F5D4FDA012C91F89446
:103A0000BC016F5F7D4FDB012C9130E0220F331F33
:103A1000820F931F29E030E0DC012D933C93DB0102
:103A20008C918F5F8C938C91DA018C918F5F8C934A
:103A300078948091C10080628093C1009501D50186
:103A40008D919C9164E670E00E94E01FC0902C096B
:103A5000D0902D097601B2E0EB0EFB1ED7018C91C0
:103A6000F894A6014F5F5D4FDA018C9190E0880FCA
:103A7000991FD601A80FB91FCB01C09699278D9326
:103A80009C93DA018C918F5F8C938C91D7018C91F0
:103A90008F5F8C9378948091C10080628093C10085
:103AA000492D46037001479FF00C1124D5018D91DB
:103AB0009D915D018E0D9F1D6AE070E00E94E01FE8
:103AC00060902C0970902D096301B2E0CB0EDB1ED3
:103AD000D6018C91F894A3014F5F5D4FDA018C9170
:103AE000A82FB0E0CD01880F991FD301A80FB91FEF
:103AF000CB01C09699278D939C93DA018C918F5FAF
:103B00008C938C91D6018C918F5F8C93789480915B
:103B1000C10080628093C100D9018D919C91E80E13
:103B2000F91E282D2603C001279F900D11248E0D0C
:103B30009F1DBC01605D7F4FE0902C09F0902D0926
:103B4000A7014E5F5D4FDA018C91F89497012F5FCA
:103B50003D4FD9018C9190E0880F991FD701A80F94
:103B6000B91FCB0199278D939C93D9018C918F5FBD
:103B70008C938C91DA018C918F5F8C9378948091E7
:103B8000C10080628093C100E733F10509F079CE6E
:103B900080912C0990912D0945E752E06AE09C0143
:103BA0002E5F3D4FDC01AF5FBD4FF9017081F8948E
:103BB000EC91F0E0EE0FFF1FE80FF91F70E071834A
:103BC00060836C916F5F6C936C91F90160816F5FA2
:103BD000608378946091C10060626093C100FA01D3
:103BE0006191AF016111E1CF80912D070C94081311
:103BF00090E080E020E030E040E050E060E070E005
:103C0000E0E0F0E0A0E0B0E010E000E00C9457113C
:103C100080912C0990912D0945E752E06AE09C01C2
:103C20002E5F3D4FDC01AF5FBD4FF9017081F8940D
:103C3000EC91F0E0EE0FFF1FE80FF91F70E07183C9
:103C400060836C916F5F6C936C91F90160816F5F21
:103C5000608378946091C10060626093C100FA0152
:103C60006191AF016111E1CF80912D070C942F0F6D
:103C700090E080E00C945E1290E080E020E030E084
:103C800040E050E00C94571190E080E020E030E0FC
:103C900040E050E060E070E0E0E0F0E00C945711AC
:103CA00090E080E020E030E040E050E060E070E054
:103CB000E0E0F0E0A0E00C94571190E080E020E01C
:103CC00030E040E050E060E070E0E0E0F0E0A0E0F4
:103CD000B0E00C94571190E080E020E030E040E04C
:103CE00050E060E070E0E0E0F0E0A0E0B0E010E084
:103CF0000C94571190E080E020E030E040E050E08C
:103D000060E070E00C94571190E080E020E030E03B
:103D100040E050E060E070E0E0E00C94571190E08B
:103D200080E020E030E040E050E060E00C9457118B
:103D300080913D0981110C94D31124CB80913C09D1
:103D400081110C94D3111ECB80913B0981110C94ED
:103D5000D31118CB80913A0981110C94D31112CB55
:103D60008091390981110C94D3110CCB80913809C1
:103D700081110C94D31106CB8091370981110C94D9
:103D8000D31100CB8091360981110C94D311FACA5A
:103D90008091350981110C94D311F4CA80913409B2
:103DA00081110C94D311EECA8091330981110C94C6
:103DB000D311E8CA8091320981110C94D311E2CA5F
:103DC0008091310981110C94D311DCCA80913009A2
:103DD00081110C94D311D6CA80912F0981110C94B2
:103DE000D311D0CA90E080E020E00C945E1290E005
:103DF00080E020E030E00C945E1290E080E020E073
:103E000030E040E00C945E1290E080E020E030E092
:103E100040E050E00C945E1290E080E020E030E062
:103E200040E050E060E00C945E1290E080E020E022
:103E300030E040E050E060E070E00C945E1290E012
:103E400080E020E030E040E050E060E070E0E0E062
:103E50000C945E1290E080E020E030E040E050E022
:103E600060E070E0E0E0F0E00C945E1290E080E052
:103E700020E030E040E050E060E070E0E0E0F0E0C2
:103E8000A0E00C945E1290E080E020E030E040E0A2
:103E900050E060E070E0E0E0F0E0A0E0B0E00C9422
:103EA0005E1290E080E020E030E040E050E060E032
:103EB00070E0E0E0F0E0A0E0B0E010E00C945E1212
:103EC00090E080E020E030E040E050E060E070E032
:103ED000E0E0F0E0A0E0B0E010E000E00C945E1262
:103EE00080913D0981110C94DA125BCC80913C09E0
:103EF00081110C94DA1255CC80913B0981110C94FC
:103F0000DA124FCC90E080E00C94571190E080E002
:103F100020E00C94571190E080E020E030E00C9419
:103F2000571190E080E020E030E040E00C94571121
:103F300080913A0981110C94DA1233CC80913909BD
:103F400081110C94DA122DCC8091380981110C94D6
:103F5000DA1227CC8091370981110C94DA1221CC26
:103F60008091360981110C94DA121BCC80913509AD
:103F700081110C94DA1215CC8091340981110C94C2
:103F8000DA120FCC8091330981110C94DA1209CC2A
:103F90008091320981110C94DA1203CC809131099D
:103FA00081110C94DA12FDCB8091300981110C94AF
:103FB000DA12F7CB80912F0981110C94DA12F1CB30
:103FC00097FB072E16F4009407D077FD09D00E94C6
:103FD000FC1F07FC05D03EF4909581959F4F0895F6
:103FE000709561957F4F0895EE0FFF1F881F8BBF5F
:103FF0000790F691E02D1994AA1BBB1B51E107C055
:10400000AA1FBB1FA617B70710F0A61BB70B881F68
:10401000991F5A95A9F780959095BC01CD010895F7
:104020000F931F93CF93DF938230910510F482E0BA
:1040300090E0E091300AF091310A20E030E0A0E019
:10404000B0E0309719F14081518102811381481706
:104050005907C8F08417950769F4109731F0129644
:104060000C93129713961C9327C00093300A109359
:10407000310A22C02115310519F04217530718F4EF
:104080009A01BD01EF01DF01F801DBCF21153105F8
:10409000F9F0281B390B2430310580F48A819B818B
:1040A0006115710521F0FB019383828304C0909315
:1040B000310A8093300AFE01329644C0FE01E20FBD
:1040C000F31F8193919322503109398328833AC099
:1040D00020912E0A30912F0A232B41F420910202C5
:1040E0003091030230932F0A20932E0A2091000270
:1040F000309101022115310541F42DB73EB74091B1
:10410000040250910502241B350BE0912E0AF09118
:104110002F0AE217F307A0F42E1B3F0B28173907CD
:1041200078F0AC014E5F5F4F2417350748F04E0F13
:104130005F1F50932F0A40932E0A8193919302C0E0
:10414000E0E0F0E0CF01DF91CF911F910F91089552
:10415000CF93DF93009709F481C0FC01329713825B
:104160001282A091300AB091310A109781F4208117
:104170003181820F931F20912E0A30912F0A281728
:10418000390751F5F0932F0AE0932E0A67C0ED012D
:1041900020E030E0CE17DF0740F44A815B819E01CA
:1041A00041155105F1F0EA01F5CFD383C283408177
:1041B0005181840F951FC817D90759F488819981B7
:1041C000840F951F0296918380838A819B819383BC
:1041D00082832115310529F4F093310AE093300AE6
:1041E0003DC0E901FB83EA8349915991C40FD51F72
:1041F000EC17FD0761F480819181840F951F029671
:10420000E90199838883828193819B838A83E0E09B
:10421000F0E012968D919C911397009719F0FD0193
:10422000DC01F7CF8D919C9111979D012E5F3F4F3F
:10423000820F931F20912E0A30912F0A28173907D9
:1042400069F4309729F41092310A1092300A02C0B2
:1042500013821282B0932F0AA0932E0ADF91CF917E
:104260000895FC0188279927E89421912032E9F3E9
:10427000293010F02E30C8F32B3241F02D3239F4B2
:10428000689404C00E945A21820F911D21912053ED
:104290002A30C0F31EF4909581959F4F0895BB2757
:1042A0004A3031F4992322F4BDE2909581959F4FD5
:1042B0000C9463217AE0979F902D879F802D910D1C
:1042C00011240895BB27FB015527AA27880F991FA2
:1042D000AA1FA41710F0A41B83955051B9F7A05D35
:1042E000AA3308F0A95DA193009779F7B111B193B2
:1042F0001192CB010C947C21DC01FC01672F7191A0
:104300007723E1F7329704C07C916D9370836291BB
:10431000AE17BF07C8F30895F999FECF92BD81BDCE
:10432000F89A992780B50895262FF999FECF1FBADC
:1043300092BD81BD20BD0FB6F894FA9AF99A0FBECE
:0843400001960895F894FFCFE7
:104348000000320A20004368616E6E656C206E6F53
:10435800742076616C69640A0D004368616E6E654D
:104368006C206E616D6520616C7265616479206591
:10437800786973740A0D005468612773206E6F742E
:10438800206D79206E616D650A0D00596F75207377
:1043980068616C6C204E4F4E452070617373212804
:1043A8004E4F4E45203D20696E76616C6964206EE3
:1043B800616D65290A0D00202D3E207377697463AD
:1043C800685F004D79206E6577206E616D652069A4
:1043D800733A20004368616E6E656C206E616D658E
:1043E80020646F65736E27742065786973740A0D8D
:1043F80000414C4C206368616E6E656C732061727D
:1044080065206E6F772073657474656420746F3AE5
:1044180020002076616C75653A20000A50574D5F80
:10442800000A4144435F00526573657420646F6EEF
:10443800650A0D0046756E6374696F6E206E6F7441
:104448002079657420696D706C656D656E7465643E
:104458000A0D00446576696365206E616D653A20D2
:02446800000052
:00000001FF
