:100000000C9472000C9493000C9493000C94930045
:100010000C9493000C9493000C9493000C94930014
:100020000C9493000C9493000C9493000C94930004
:100030000C9493000C9493000C9493000C949300F4
:100040000C9493000C9493000C9493000C949300E4
:100050000C9493000C9493000C9493000C949300D4
:100060000C9493000C9493000C9493000C949300C4
:100070000C9493000C9493000C9493000C949300B4
:100080000C9493000C9493000C9493000C949300A4
:100090000C9493000C9493000C9493000C94930094
:1000A0000C9493000C9493000C9493000C94930084
:1000B0000C9493000C9493000C9493000C94930074
:1000C0000C9493000C9493000C9493000C94930064
:1000D0000C9493000C9493000C9493000C94930054
:1000E0000C94930011241FBECFEFD1E2DEBFCDBF31
:1000F00000E00CBF12E0A0E0B2E0EAE2F8E000E0CD
:100100000BBF02C007900D92AE33B107D9F722E0C2
:10011000AEE3B2E001C01D92A234B207E1F70E9443
:10012000DE000C9413040C9400001092C50082E3CE
:100130008093C40086E08093C20088E98093C10068
:1001400008959091C00095FFFCCF8093C60008955C
:100150009091C00095FFFCCF08958091C00087FF6B
:10016000FCCF8091C6000895FC019091C00097FFDC
:10017000FCCF9091C6009193992329F09A3011F009
:100180009D3099F711929E2F981B892F0895FC019D
:100190002081222351F031969091C00095FFFCCF31
:1001A0002093C60021912111F7CF089584B583686B
:1001B00084BD85B5816085BD279A0895CF93DF936F
:1001C000CDB7DEB7D4500FB6F894DEBF0FBECDBFAB
:1001D00084B5836884BD85B5816085BD279A1092FA
:1001E000C50082E38093C40086E08093C20088E962
:1001F0008093C10017BC80E190E00E94CC025C01BA
:100200008C017C0180E1E80EF11C80E190E00E940D
:10021000CC02F801819391938F01EE16FF06A9F7A6
:10022000CE018F5F9C4F6C018E010F5F1B4FFE0153
:10023000EF5FFE4F7F01612C772473944AE0942E88
:10024000F601C30111920197E9F7F6018091C00010
:1002500087FFFCCF8091C6008193882329F08A30E4
:1002600011F08D3099F710822601FE01EF5FFD4FEE
:10027000D6019D918091C00085FFFCCF91930A1714
:100280001B07B9F7CF5FDD4F8881C150D240803363
:1002900009F0B7C0CE5FDD4F8881C250D2408033B5
:1002A00009F434C1813309F4B9C0823309F18333CD
:1002B00091F1843309F443C0853309F454C0863383
:1002C00009F465C0873309F476C0883309F487C020
:1002D000893309F0B5CFE8E1F2E096E48091C000FF
:1002E00085FFFCCF9093C60091919111F7CFA8CFD5
:1002F000E8E1F2E096E48091C00085FFFCCF9093A6
:10030000C60091919111F7CFCE5FDD4F8881C25029
:10031000D240833371F6E8E1F2E096E48091C000C8
:1003200085FFFCCF9093C60091919111F7CFCE5FDE
:10033000DD4F8881C250D240843309F0BDCFE8E15F
:10034000F2E096E48091C00085FFFCCF9093C60058
:1003500091919111F7CFCE5FDD4F8881C250D2408D
:10036000853309F0ACCFE8E1F2E096E48091C0007B
:1003700085FFFCCF9093C60091919111F7CFCE5F8E
:10038000DD4F8881C250D240863309F09BCFE8E12F
:10039000F2E096E48091C00085FFFCCF9093C60008
:1003A00091919111F7CFCE5FDD4F8881C250D2403D
:1003B000873309F08ACFE8E1F2E096E48091C0004B
:1003C00085FFFCCF9093C60091919111F7CFCE5F3E
:1003D000DD4F8881C250D240883309F079CFE8E1FF
:1003E000F2E096E48091C00085FFFCCF9093C600B8
:1003F00091919111F7CFCE5FDD4F8881C250D240ED
:1004000067CFE8E1F2E096E48091C00085FFFCCF81
:100410009093C60091919111F7CF12CFDE01119602
:10042000F20191912F018091C00085FFFCCF9D9337
:1004300040165106A9F78B8190E00E94ED03880FCA
:10044000991FD501A80FB91FED91FC91119710824A
:1004500011821282138214821582168217821086EC
:1004600011861286138614861586168617861196AF
:100470001C921E928C81882361F09701AE014B5F24
:100480005F4FF90181939F01FA018191AF018111C1
:10049000F8CF1196FC92EE92E6E3F2E093E78091BA
:1004A000C00085FFFCCF9093C60091919111F7CFCA
:1004B0008B819091C00095FFFCCF8093C600E9E04E
:1004C000F2E090E28091C00085FFFCCF9093C600DF
:1004D00091919111F7CFED91FC919081992351F079
:1004E00031968091C00085FFFCCF9093C60091911A
:1004F0009111F7CF8091C00085FFFCCF9092C6008C
:10050000CE5FDD4F8881C250D240CFCE9E012F5F9B
:100510003F4FA701C701D6017D916091C00065FFE3
:10052000FCCFF90171939F01FC011192CF01A0173B
:10053000B10791F78B81882341F0DE011496FA010F
:100540008193AF018D918111FACFA7E0B2E09DE4D4
:100550008091C00085FFFCCF9093C6009D919111C2
:10056000F7CFF7019081992359F0D7011196809127
:10057000C00085FFFCCF9093C6009D919111F7CFED
:100580008091C00085FFFCCF9092C600CE5FDD4F0A
:100590008881C250D24086CE0F931F93CF93DF93B2
:1005A0008230910510F482E090E0E0914002F091F9
:1005B000410220E030E0A0E0B0E0309719F1408146
:1005C00051810281138148175907C8F08417950794
:1005D00069F4109731F012960C93129713961C93AE
:1005E00027C0009340021093410222C0211531051B
:1005F00019F04217530718F49A01BD01EF01DF010A
:10060000F801DBCF21153105F9F0281B390B243017
:10061000310580F48A819B816115710521F0FB0110
:100620009383828304C09093410280934002FE0131
:10063000329644C0FE01E20FF31F81939193225042
:100640003109398328833AC020913E0230913F021C
:10065000232B41F4209102023091030230933F0298
:1006600020933E02209100023091010221153105B4
:1006700041F42DB73EB74091040250910502241B6E
:10068000350BE0913E02F0913F02E217F307A0F430
:100690002E1B3F0B2817390778F0AC014E5F5F4FD8
:1006A0002417350748F04E0F5F1F50933F024093C9
:1006B0003E028193919302C0E0E0F0E0CF01DF9130
:1006C000CF911F910F910895CF93DF93009709F475
:1006D00081C0FC01329713821282A0914002B09136
:1006E0004102109781F420813181820F931F209164
:1006F0003E0230913F022817390751F5F0933F022F
:10070000E0933E0267C0ED0120E030E0CE17DF0746
:1007100040F44A815B819E0141155105F1F0EA01E7
:10072000F5CFD383C28340815181840F951FC817B1
:10073000D90759F488819981840F951F0296918376
:1007400080838A819B81938382832115310529F4DB
:10075000F0934102E09340023DC0E901FB83EA834C
:1007600049915991C40FD51FEC17FD0761F48081A1
:100770009181840F951F0296E90199838883828174
:1007800093819B838A83E0E0F0E012968D919C91A7
:100790001397009719F0FD01DC01F7CF8D919C9123
:1007A00011979D012E5F3F4F820F931F20913E02B4
:1007B00030913F022817390769F4309729F41092D5
:1007C00041021092400202C013821282B0933F0293
:1007D000A0933E02DF91CF910895FC0188279927CD
:1007E000E89421912032E9F3293010F02E30C8F33B
:1007F0002B3241F02D3239F4689404C00E940B046E
:10080000820F911D219120532A30C0F31EF4909540
:1008100081959F4F08957AE0979F902D879F802D17
:0A082000910D11240895F894FFCF04
:10082A000000420220004D79206E6577206E616DCE
:10083A00652069733A200046756E6374696F6E208D
:10084A006E6F742079657420696D706C656D656E64
:0E085A007465640A007377697463685F000058
:00000001FF
