:100000000C94A2000C94C3000C94C3000C94C30085
:100010000C94C3000C94C3000C94C3000C94C30054
:100020000C94C3000C94C3000C94C3000C94C30044
:100030000C94C3000C94C3000C94C3000C94C30034
:100040000C94C3000C94C3000C94C3000C94C30024
:100050000C94C3000C94C3000C94C3000C94C30014
:100060000C94C3000C9448010C947D010C94C300C3
:100070000C94C3000C94C3000C94C3000C94C300F4
:100080000C94C3000C94C3000C94C3000C94C300E4
:100090000C94C3000C94C3000C94C3000C94C300D4
:1000A0000C94C3000C94C3000C94C3000C94C300C4
:1000B0000C94C3000C94C3000C94C3000C94C300B4
:1000C0000C94C3000C94C3000C94C3000C94C300A4
:1000D0000C94C3000C94C3000C94C3000C94C30094
:1000E0000C94C30007030C031103140319031E032C
:1000F00023030203E6023816351630162B16261691
:100100003D163F160C9430160C94E6020C943516EE
:100110000C940C030C9411030C9407030C943D16DF
:100120000C943F160C9402030C9419030C9426169D
:100130000C941E030C9423030C9438160C942B1669
:100140000C94140311241FBECFEFD1E2DEBFCDBF4C
:1001500000E00CBF13E0A0E0B2E0ECE5FFE300E05C
:100160000BBF02C007900D92A233B107D9F72AE066
:10017000A2E3B3E001C01D92A234B207E1F70E94EE
:10018000C20A0C94AC1F0C9400001092C50082E3CC
:100190008093C40010923B0710923A0710923205E8
:1001A00010923305109234051092350710923607DD
:1001B0001092370786E08093C20088E98093C100DF
:1001C000789482E393E0089580E091E0089580E0E0
:1001D00091E008958B5F9B4FFC01808190E0089532
:1001E0008E5F9D4FFC01808190E008958E5F9D4F52
:1001F000FC01908120E031E0A901491B5109CA01AD
:100200000895CF93DF939C01EC01CE5FDD4F888191
:10021000F894D901AF5FBD4F9C91E92FF0E0EE0F4C
:10022000FF1FE20FF31F70E0718360838C918F5F7B
:100230008C938C9188818F5F88837894E1ECF0E0D7
:10024000808180628083DF91CF910895CF93DF9387
:100250009C01EC01CB5FDB4F88818823E9F3F894A4
:10026000D901AD5FBB4F9C91E92FF0E0EE0FFF1F6E
:10027000E20FF31FED5FFD4F80819C919F5F9C9388
:100280009C919881915098837894DF91CF910895B3
:100290001F920F920FB60F9211240BB60F928F93ED
:1002A0009F93AF93BF93CF93DF93EF93FF9380918F
:1002B000C600C7E3D7E09881A6E3B7E0EC91F0E091
:1002C000EE0FFF1FEB5CFA4F90E0918380838C91DF
:1002D0008F5F8C938C9188818F5F8883FF91EF91E2
:1002E000DF91CF91BF91AF919F918F910F900BBEF6
:1002F0000F900FBE0F901F9018951F920F920FB680
:100300000F9211240BB60F928F93EF93FF9380916E
:100310003405882301F1E0913205F0E0EE0FFF1F74
:10032000EE5CFC4F80818093C600809132058F5F28
:1003300080933205809132058091340581508093FD
:100340003405FF91EF918F910F900BBE0F900FBE70
:100350000F901F9018958091C1008F7D8093C100F0
:10036000F0CF9091C00095FFFCCF0895CF93DF931D
:100370009C01EB01CB5FDB4FDB01AD5FBB4F988195
:100380009923E9F3F894EC91F0E0EE0FFF1FE60FEC
:10039000F71FED5FFD4F40819C919F5F9C939C9167
:1003A0009881915098837894F90141939F01442357
:1003B00061F04A3011F04D3011F7F90111929E2F82
:1003C000981B892FDF91CF910895E81B8E2FDF9125
:1003D000CF910895CF93DF93AC01FB0120812223BD
:1003E00029F16F5F7F4FEC01CE5FDD4FDC01AF5F26
:1003F000BD4F8881F894EC91F0E0EE0FFF1FE40F01
:10040000F51F30E0318320838C918F5F8C938C912A
:1004100088818F5F888378949091C10090629093D7
:10042000C100FB012191BF012111E3CFDF91CF91E9
:10043000089584B5836A84BDE0E8F0E08081836A32
:100440008083E0EBF0E08081836A8083E0E9F0E084
:100450008081836A8083E0EAF0E08081836A808320
:1004600085B5816085BDE1E8F0E0808181608083B1
:10047000E1EBF0E0808181608083E1E9F0E0808160
:1004800081608083E1EAF0E0808181608083269A48
:10049000259A249A9D9AE1E0F1E080818061808331
:1004A0008081886080836B9A6C9A10928B00109286
:1004B0008A0010928900109288001092B300109266
:1004C000AB001092AA001092A9001092A8001092FE
:1004D00099001092980018BC10929B0010929A00FC
:1004E0000895EAE7F0E080818460808380818068FD
:1004F000808380818068808310BA8FEF81BB809376
:100500007E0080E480937C008081806480830895F5
:10051000806480937C0080917A00806480937A006C
:1005200080917A008439E1F7809178009091790088
:10053000992708950895EF92FF920F931F93CF93F9
:10054000DF938C017B01E40EF51E6E157F0568F4C8
:10055000EB01F999FECFCE010E94961FF80181931D
:100560008F012196EC16FD06A1F7DF91CF911F9127
:100570000F91FF90EF900895EF92FF920F931F93CA
:10058000CF93DF938C017B01E40EF51E6E157F0582
:1005900060F4EB01F999FECF6991C8010E949E1F9A
:1005A0000F5F1F4FCE15DF05A9F7DF91CF911F9188
:1005B0000F91FF90EF9008958930910510F5FC019F
:1005C0008827EE58FF4F8F4F0C94FE1D68BD709327
:1005D000A9006093A8007093AB006093AA00609399
:1005E000B300709389006093880070938B006093D0
:1005F0008A00709399006093980070939B006093B9
:100600009A00089570939B0060939A0008957093E8
:100610008B0060938A00089570938900609388002E
:1006200008956093B30008957093AB006093AA009F
:1006300008957093A9006093A8000895709399009D
:1006400060939800089568BD08952F923F924F924D
:100650005F926F927F928F929F92AF92BF92CF9252
:10066000DF92EF92FF920F931F93CF93DF93CDB75B
:10067000DEB7CC52D1400FB6F894DEBF0FBECDBF6F
:100680005C01CB5DDE4F79836883C552D1401A018E
:10069000ECE3F8E0DE01119691918091C00085FFB6
:1006A000FCCF9D9329E0EC33F207B1F78B80912CBE
:1006B00030E3831A910858E08516910408F446C087
:1006C00060913C0970913D0947E052E083E49B0151
:1006D0002E5F3D4FDB01AF5FBD4FF9019081F89474
:1006E000EC91F0E0EE0FFF1FE60FF71F90E0918313
:1006F00080838C918F5F8C938C91F90180818F5FC7
:10070000808378948091C10080628093C100FA0157
:100710008191AF018111E1CFC45DDE4F0FB6F89436
:10072000DEBF0FBECDBFDF91CF911F910F91FF9024
:10073000EF90DF90CF90BF90AF909F908F907F9081
:100740006F905F904F903F902F9008958E010F5EB5
:100750001E4F80E1D801E82F1D92EA95E9F79E012E
:100760002F5F3E4FC55DDE4F39832883CB52D1408A
:10077000D9011D928A95E9F78C818A3209F435C630
:10078000F80180838D818A3209F4D5C581838E81F9
:100790008A3209F4D3C582838F818A3209F4D1C5A4
:1007A000838388858A3209F4CFC5848389858A3218
:1007B00009F4CDC585838A858A3209F4CBC5868341
:1007C0008B858A3209F4C9C587838C858A3209F4FE
:1007D000C7C580878D858A3209F4C5C581878E8516
:1007E0008A3209F4C3C582878F858A3209F4C1C56C
:1007F000838788898A3209F4BFC5848789898A32C8
:1008000009F4BDC585878A898A3209F4BBC5868704
:100810008B898A3209F4B9C5878780E190E0049614
:10082000A1E0B0E0AC0FBD1FA80FB91F2C9122238F
:1008300009F4AEC5CF5FDE4F2883C150D140DE0141
:10084000A80FB91F12962C91222309F4A4C5CE5FDC
:10085000DE4F2883C250D140DE01A80FB91F139686
:100860002C91222309F49AC5CD5FDE4F2883C35013
:10087000D140DE01A80FB91F14962C91222309F450
:1008800090C5CC5FDE4F2883C450D140DE01A80F55
:10089000B91F15962C91222309F486C5CB5FDE4F34
:1008A0002883C550D140DE01A80FB91F16962C91A0
:1008B000222309F47CC5CA5FDE4F2883C650D1408D
:1008C000DE01A80FB91F17962C91222309F472C5D7
:1008D000C95FDE4F2883C750D140DE01A80FB91F82
:1008E00018962C91222309F468C5C85FDE4F28832F
:1008F000C850D140DE01A80FB91F19962C912223B0
:1009000009F45EC5C75FDE4F2883C950D140DE01C0
:10091000A80FB91F1A962C91222309F454C5C65F5B
:10092000DE4F2883CA50D140DE01A80FB91F1B96A5
:100930002C91222309F44AC5C55FDE4F2883CB5092
:10094000D140DE01A80FB91F1C962C91222309F477
:1009500040C5C45FDE4F2883CC50D140DE01A80FD4
:10096000B91F1D962C91222309F436C5C35FDE4FB3
:100970002883CD50D140DE01A80FB91F1E962C91BF
:10098000222309F42CC5C25FDE4F2883CE50D1400C
:10099000DE01A80FB91F1F962C91222309F422C54E
:1009A000C15FDE4F2883CF50D140DE01A80FB91FB1
:1009B00050968C91882309F41BC5C05FDE4F888355
:1009C000C051D14060E170E0D8018C91882309F4D6
:1009D000ADC090913E0989137CC0F80181818823C4
:1009E00009F47BC290913F09891373C082818823E7
:1009F00009F46EC29091400989136BC0F80183819C
:100A0000882309F460C290914109891362C08481EE
:100A1000882309F453C29091420989135AC0F801FE
:100A20008581882309F445C290914309891351C0F7
:100A30008681882309F438C290914409891349C0FA
:100A4000F8018781882309F42AC290914509891306
:100A500040C08085882309F41DC2909146098913FE
:100A600038C0F8018185882309F44BC29091470969
:100A700089132FC08285882309F43EC290914809CA
:100A8000891327C0F8018385882309F430C2909127
:100A9000490989131EC08485882309F423C29091D3
:100AA0004A09891316C0F8018585882309F433C2E1
:100AB00090914B0989130DC08685882309F426C2BD
:100AC00090914C09891305C0F8018785882309F4A2
:100AD000DCC120913C0930913D0968E372E084E576
:100AE000A9014E5F5D4FD901AF5FBD4FFA01908103
:100AF000F894EC91F0E0EE0FFF1FE20FF31F90E08F
:100B0000918380838C918F5F8C938C91FA0180818B
:100B10008F5F808378948091C10080628093C10050
:100B2000FB018191BF018111E1CFF6CD80913E099A
:100B30008111CFCFCF5FDE4F5880C150D140CE5F03
:100B4000DE4FF881C250D140CF5DDE4FF883C152F5
:100B5000D140CD5FDE4F2881C350D140CE5DDE4F06
:100B60002883C252D140CC5FDE4F3881C450D1407F
:100B7000CD5DDE4F3883C352D140CB5FDE4F58810D
:100B8000C550D140CC5DDE4F5883C452D140D50111
:100B9000350182E1680E711CC95DDE4F798368837F
:100BA000C752D140752DC75DDE4F19830883C952E6
:100BB000D140CF5DDE4F9881C152D1409F3409F4BE
:100BC000FEC17E3409F42FC241E051E04C0F5D1F9D
:100BD0004F5F5F4F472E20E030E0C12CD12C172F04
:100BE000442009F4B0C18D919C911197BC01620F12
:100BF000731FFB016081662309F4A5C1641509F424
:100C00008FC1712F1296A615B70599F6572EC95D9B
:100C1000DE4F68817981C752D140C75DDE4F0881C0
:100C20001981C952D140C401880F991FA80EB91E5D
:100C30006115710509F069C2D501ED91FC91108231
:100C4000D501ED91FC911182D501ED91FC911282BB
:100C5000D501ED91FC911382D501ED91FC911482A7
:100C6000D501ED91FC911582D501ED91FC91168293
:100C7000D501ED91FC911782D501ED91FC91108683
:100C8000D501ED91FC911186D501ED91FC91128673
:100C9000D501ED91FC911386D501ED91FC9114865F
:100CA000D501ED91FC911586D501ED91FC9116864B
:100CB000D501ED91FC9117862A94232809F4FFC2EF
:100CC00080913C0990913D09F80140814111CAC3CE
:100CD00048E752E060E2DC01AE5FBD4FFC01EF5F30
:100CE000FD4F8D01D8012C91F894208130E0220F26
:100CF000331F280F391F70E0D9016D937C93208139
:100D00002F5F20832081D8012C912F5F2C93789422
:100D10002091C10020622093C100DA016D91AD01E4
:100D20006111E0CFE0913C09F0913D099F012E5FF8
:100D30003D4FD9018C91F89411978C9190E0880FD8
:100D4000991FE80FF91F80E3880D90E0918380835D
:100D50008C918F5F8C938C91F90180818F5F808360
:100D600078948091C10080628093C10020913C09F9
:100D700030913D0961E073E080E2A9014E5F5D4F73
:100D8000D901AF5FBD4FFA019081F894EC91F0E08A
:100D9000EE0FFF1FE20FF31F90E0918380838C9191
:100DA0008F5F8C938C91FA0180818F5F8083789420
:100DB0008091C10080628093C100FB018191BF01DD
:100DC0008111E1CFD501ED91FC9180913C09909189
:100DD0003D094081442371F1BF016F5F7F4FDC010A
:100DE000AE5FBD4FFC01EF5FFD4F8D01D8012C912F
:100DF000F894208130E0220F331F280F391F50E074
:100E0000D9014D935C9320812F5F20832081D801ED
:100E10002C912F5F2C9378942091C1002062209315
:100E2000C100DB014D91BD014111E0CF80913C0932
:100E300090913D0965E772E04AE0DC01AE5FBD4F8D
:100E4000FC01EF5FFD4F8D01D8012C91F8942081BA
:100E500030E0220F331F280F391F50E0D9014D9386
:100E60005C9320812F5F20832081D8012C912F5FFC
:100E70002C9378942091C10020622093C100DB0163
:100E80004D91BD014111E0CF47CC80914D098111B9
:100E900020CE50CE8091460981111BCE4BCE809141
:100EA0004509811116CE46CE80914409811111CE9B
:100EB00041CE8091430981110CCE3CCE80914209F4
:100EC000811107CE37CE80914109811102CE32CEF9
:100ED000809140098111FDCD2DCE80913F09811176
:100EE000F8CD28CE80914A098111F3CD23CE80918F
:100EF00049098111EECD1ECE809148098111E9CDBD
:100F000019CE809147098111E4CD14CE80914C090E
:100F10008111DFCD0FCE80914B098111DACD0ACE40
:100F20002F5F3F4FFA014190AF01442071F0820FD3
:100F3000931FFC018081882309F463CECC24C394E1
:100F4000D12C411050CE712F0AC0712F820F931FE8
:100F5000FC018081811156CECC24C394D12CCD28A4
:100F600009F450CE40913C0950913D096BE172E08B
:100F700083E49A012E5F3D4FDA01AF5FBD4FF90167
:100F80009081F894EC91F0E0EE0FFF1FE40FF51F55
:100F900090E0918380838C918F5F8C938C91F90189
:100FA00080818F5F808378948091C100806280937C
:100FB000C100FB018191BF018111E1CFADCB7E3436
:100FC00009F462C0EE24E394FE2CEC0EFD1EFFEF4C
:100FD000EF1AFF0A472E80E090E0C12CD12C44206C
:100FE00009F4BDCF2D913C911197A901480F591FCC
:100FF000FA014081442309F4B2CF441103CE019693
:10100000F70141907F01442009F4A0CF280F391F38
:10101000F9012081222309F4F5CDCC24C394D12CED
:101020004110E0CF9CCFEE24E394FE2CEC0EFD1E8D
:10103000FFEFEF1AFF0A1EE480E090E0C12CD12CF4
:10104000112309F48CCF2D913C911197A901480FE0
:10105000591FFA014081442309F481CF4113D2CDB5
:101060000196F70111917F01112309F46FCF280F29
:10107000391FF9012081222309F4C4CDCC24C39463
:10108000D12C1111E0CF6BCFCC5DDE4FE881C45283
:10109000D140EE2309F4AFC1CE5DDE4FF881C252DC
:1010A000D140EE24E394FE2CEC0EFD1EFE3409F438
:1010B00017C12FEFE21AF20A1EE480E090E0C12C83
:1010C000D12C112309F44BCF2D913C911197A901FB
:1010D000480F591FFA014081442309F440CF4113BE
:1010E00091CD0196F70111917F01112309F42ECFC3
:1010F000280F391FF9012081222309F483CDCC2444
:10110000C394D12C1111E0CF2ACFF501A081B18178
:101110005C92623071050CF493CDF501A081B18130
:10112000CF5DDE4FF881C152D1401196FC93633000
:1011300071050CF489CDF501A081B181CE5DDE4F42
:10114000F881C252D1401296FC93643071050CF4C0
:101150007FCDF501A081B181CD5DDE4FF881C35215
:10116000D1401396FC93653071050CF475CDF501F3
:10117000A081B181CC5DDE4FF881C452D14014967C
:10118000FC93663071050CF46BCDF501A081B18143
:10119000CA5FDE4F2881C650D14015962C93673028
:1011A00071050CF461CDF501A081B181C95FDE4FFD
:1011B0002881C750D14016962C93683071050CF4E5
:1011C00057CDF501A081B181C85FDE4F2881C8509D
:1011D000D14017962C93693071050CF44DCDF50173
:1011E000A081B181C75FDE4F2881C950D1401896D8
:1011F0002C936A3071050CF443CDF501A081B181C7
:10120000C65FDE4F2881CA50D14019962C936B30AF
:1012100071050CF439CDF501A081B181C55FDE4FB8
:101220002881CB50D1401A962C936C3071050CF468
:101230002FCDF501A081B181C45FDE4F2881CC5054
:10124000D1401B962C936D3071050CF425CDF50122
:10125000A081B181C35FDE4F2881CD50D1401C9663
:101260002C936E3071050CF41BCDF501A081B1817A
:10127000C25FDE4F2881CE50D1401D962C936F3037
:1012800071050CF411CDF501A081B181C15FDE4F74
:101290002881CF50D1401E962C936031710509F002
:1012A00007CDF501A081B181C05FDE4F2881C0511B
:1012B000D1401F962C932A94232809F001CDCB5DB1
:1012C000DE4F28813981C552D140F901E80FF91F5D
:1012D0001182108260E070E0C4010E94DC02F0CC58
:1012E000FFEFEF1AFF0A1EE480E090E0C12CD12C42
:1012F00011C00196F70111917F01112309F426CE47
:10130000280F391FF9012081222309F47BCCCC243A
:10131000C394D12C112309F422CE2D913C91119725
:10132000A901480F591FFA014081442309F417CE3F
:10133000411368CCDECF81E090E071CA82E090E09A
:101340006ECA83E090E06BCA84E090E068CA85E0F2
:1013500090E065CA86E090E062CA87E090E05FCAEC
:1013600088E090E05CCA89E090E059CA8AE090E0A9
:1013700056CA8BE090E053CA8CE090E050CA8DE0F2
:1013800090E04DCA8EE090E04ACA8FE090E047CAF4
:1013900060E070E019CB61E070E016CB62E070E0D5
:1013A00013CB63E070E010CB64E070E00DCB65E040
:1013B00070E00ACB66E070E007CB67E070E004CB3A
:1013C00068E070E001CB69E070E0FECA6AE070E0BE
:1013D000FBCA6BE070E0F8CA6CE070E0F5CA6DE043
:1013E00070E0F2CA6EE070E0EFCA84E090E018CAE4
:1013F0006FE070E0E9CACD5DDE4FF881C352D140A5
:10140000EE24E394FE2CEC0EFD1EF53409F458C0D6
:101410003FEFE31AF30A1EE480E090E0C12CD12CE8
:10142000112309F49CCD2D913C911197A901480FEE
:10143000591FFA014081442309F491CD4113E2CBB5
:101440000196F70111917F01112309F47FCD280F37
:10145000391FF9012081222309F4D4CBCC24C39471
:10146000D12CDECF0F5F1F4FDC01AE5FBD4FFC0103
:10147000EF5FFD4FBD01DB012C91F894208130E03E
:10148000220F331F280F391F50E0D9014D935C9371
:1014900020812F5F20832081DB012C912F5F2C93F3
:1014A00078942091C10020622093C100D8014D9111
:1014B0008D014111E0CF80913C0990913D0908CC0C
:1014C0002FEFE21AF20A1EE480E090E0C12CD12C4A
:1014D0002D01D201112309F442CD2D913C91119798
:1014E000A901480F591FFA014081442309F437CD5F
:1014F000CE5DDE4FF881C252D140FE3421F041175B
:1015000079F1D2017FCB20913C0930913D096CE407
:1015100072E089E5A9014E5F5D4FD901AF5FBD4F14
:10152000FA019081F894EC91F0E0EE0FFF1FE20FCA
:10153000F31F90E0918380838C918F5F8C938C91CB
:10154000FA0180818F5F808378948091C1008062EE
:101550008093C100FB018191BF018111E1CFDCC803
:101560000196F70111917F01112351F0280F391FC6
:10157000D9012C91222329F2CC24C394D12CA9CFB8
:10158000D201E4CCCF93DF93CDB7DEB7C153D140C6
:101590000FB6F894DEBF0FBECDBF0E9419020E94A5
:1015A00071021092C50082E38093C40010923B0741
:1015B00010923A07109232051092330510923405BA
:1015C00010923507109236071092370786E0809305
:1015D000C20088E98093C100789482E393E09093FD
:1015E0003D0980933C0982E190E00E941A1E1C0193
:1015F00082E190E00E941A1ECA5DDE4F99838883C3
:10160000C652D140610122E1C20ED11C7C01810190
:1016100080E190E00E941A1ED8018D939D938D0168
:1016200080E190E00E941A1EF701819391937F015F
:101630000C151D0569F7CA5DDE4FA881B981C65238
:10164000D140BE016F5F7E4F20E030E08EE44FE47A
:1016500095E47101FB0111921192BF01F701008124
:101660001181F8018083F70100811181F801418324
:10167000F70100811181F8018283F7010081118156
:10168000F80193830D911C911197F80180830D91BE
:101690001C911197F80141830D911C911197F8014C
:1016A00082830D911C911197F8019383F7010081BA
:1016B0001181F80114820D911C911197F801148287
:1016C000F70100811181F80115820D911C9111978C
:1016D000F8011582F70100811181F80116820D9140
:1016E0001C911197F8011682F70100811181F80110
:1016F00017820D911C911197F8011782F701008153
:101700001181F80110860D911C911197F801108636
:10171000F70100811181F80111860D911C9111973B
:10172000F8011186F70100811181F80112860D91EF
:101730001C911197F8011286F70100811181F801BF
:1017400013860D911C911197F8011386F701008102
:101750001181F80114860D911C911197F8011486DE
:10176000F70100811181F80115860D911C911197E7
:10177000F8011586F70100811181F80116860D9197
:101780001C911197F8011686F701019111917F01C3
:10179000F80117860D911D91F80117862F5F3F4FB5
:1017A0002930310509F056CFD1015096ED91FC91C9
:1017B000519791E490835096ED91FC9151978CE470
:1017C00081835096ED91FC91519782835096ED91D3
:1017D000FC9151971382CA5DDE4FA881B981C65230
:1017E000D1405096ED91FC91519790835096ED9198
:1017F000FC91519781835096ED91FC915197828392
:101800005096ED91FC9151971382EEE3F9E080E060
:1018100091E0DF019C011D9221503040E1F740E151
:1018200050E060E070E0CF010E949B02CE018F5F2C
:101830009E4F3C012C01CA5DDE4FA880B980C65284
:10184000D1406101C85DDE4F99838883C852D14081
:10185000E0E1EE2EFF24F39400E010E04AE0BE0148
:101860006D5D7E4FC85DDE4FA881B981C852D14001
:101870008D919D91C85DDE4FB983A883C852D14038
:101880000E94591F4801B0E18B0E911C40E150E0CD
:10189000B401F601808191810E949B0200571F4F85
:1018A00040E150E0B801D5018D919C910E949B02CE
:1018B00043E050E0B701CE018D5D9E4F0E949B0238
:1018C000CE018D5D9E4F0E943B1FF201819391934B
:1018D0002F01D6018D919C91892B09F4E8C0D50187
:1018E0008D919C91892B09F4FCC043E050E0B70135
:1018F000CE018D5D9E4F0E949B0240E150E0B401FD
:10190000F601819191916F010E949B0240E150E0AC
:10191000B801D5018D919D915D010E949B02CE0180
:101920008D5D9E4F0E943B1FF301819391933F0178
:10193000F3E0EF0EF11C84010038110509F08ECFA1
:101940009E012F5F3E4F790100E010E0D7016D91BD
:101950007D917D01C8010E94DC020F5F1F4F08309E
:101960001105A1F7ECE3F8E0C45DDE4FF983E883ED
:10197000CC52D14079E0672E712CDF01E0E0F1E03C
:101980001D923197E9F7ACE3B7E0E0E0F1E01D929A
:101990003197E9F7FFEF27EA31E6F1502040304078
:1019A000E1F700C0000040913C0950913D090CE373
:1019B00018E0C45DDE4F19830883CC52D1409801F2
:1019C000CA018B5F9B4FDA01AD5FBB4FFC016081A9
:1019D0006623E1F3F894EC91F0E0EE0FFF1FE40FC3
:1019E000F51FED5FFD4F70816C916F5F6C936C9193
:1019F000FC016081615060837894F90171939F01CB
:101A0000772331F07A3011F07D3001F7D9011C9243
:101A1000ACE3B7E0ECE3F8E091918091C00085FF82
:101A2000FCCF9D9329E0EC33F207B1F780913C079E
:101A3000803309F45EC040913C0950913D0920EE8D
:101A400032E066E4CA018E5F9D4FDA01AF5FBD4FA1
:101A5000FC017081F894EC91F0E0EE0FFF1FE40FB1
:101A6000F51F70E0718360836C916F5F6C936C9174
:101A7000FC0160816F5F608378946091C100606257
:101A80006093C100F90161919F016111E1CFFFEF06
:101A900029E638E1F15020403040E1F700C0000075
:101AA000C45DDE4FA881B981CC52D14067CF40E1FF
:101AB00050E063E872E0C4010E94BC02F50180813D
:101AC0009181892B71F0D6018D919C91892B09F020
:101AD0000CCF43E050E068E872E0C7010E94BC020E
:101AE00004CF40E150E063E872E0C8010E94BC020C
:101AF000EACF80913D07803309F448C0813309F46F
:101B0000F7C0823309F401C1833309F48CC28433F2
:101B100009F490C3853309F49FC3863309F4A5C43F
:101B2000873309F410C5883309F4DBC4893309F01D
:101B3000AECF80913C0990913D0940EE52E066E4C1
:101B40009C012E5F3D4FDC01AF5FBD4FF9017081FD
:101B5000F894EC91F0E0EE0FFF1FE80FF91F70E032
:101B6000718360836C916F5F6C936C91F9016081FC
:101B70006F5F608378946091C10060626093C10080
:101B8000FA016191AF016111E1CF81CF9E012F5F19
:101B90003F4F4EE359E0ECE3F8E0BA0191918091B8
:101BA000C00085FFFCCFD9019D939D01DB011D92F3
:101BB000BD01B9E0EC33FB0789F78B81882341F045
:101BC000FE013496DA018D93AD0181918111FACF36
:101BD00020913C0930913D096FEF72E08DE4A9013D
:101BE0004E5F5D4FD901AF5FBD4FFA019081F89410
:101BF000EC91F0E0EE0FFF1FE20FF31F90E09183F6
:101C000080838C918F5F8C938C91FA0180818F5FA0
:101C1000808378948091C10080628093C100FB0131
:101C20008191BF018111E1CF80913C0990913D09E3
:101C300040913E09442369F16FE379E0DC01AE5F36
:101C4000BD4FFC01EF5FFD4F7D01D7012C91F89452
:101C5000208130E0220F331F280F391F50E0D901B7
:101C60004D935C9320812F5F20832081D7012C919D
:101C70002F5F2C9378942091C10020622093C100A3
:101C8000DB014D91BD014111E0CF80913C09909164
:101C90003D0965E772E04AE0DC01AE5FBD4FFC0143
:101CA000EF5FFD4F7D01D7012C91F894208130E04A
:101CB000220F331F280F391F50E0D9014D935C9339
:101CC00020812F5F20832081D7012C912F5F2C93BF
:101CD00078942091C10020622093C100DB014D91D6
:101CE000BD014111E0CF80913D07813309F009CF5B
:101CF00041E050E0BE016F5F7E4FC1010E942503AD
:101D000080913D07823309F0FFCECD5EDE4F188211
:101D1000C351D140CC5EDE4F1882C451D140CB5E5E
:101D2000DE4F1882C551D140CA5EDE4F1882C651BF
:101D3000D140C95EDE4F1882C751D140C85EDE4F28
:101D40001882C851D140C75EDE4F1882C951D140B8
:101D5000C65EDE4F1882CA51D140C55EDE4F188282
:101D6000CB51D140C45EDE4F1882CC51D140C35E0E
:101D7000DE4F1882CD51D140C25EDE4F1882CE5167
:101D8000D140C15EDE4F1882CF51D140C05EDE4FE0
:101D90001882C052D140CF5DDE4F1882C152D1406F
:101DA000CE5DDE4F1882C252D140FE013196D8017D
:101DB0009D918D018091C00085FFFCCF9193B9E08A
:101DC0000C331B07A1F75E80552011F40C94C51746
:101DD000EB81C65DDE4FE883CA52D140CD5EDE4F57
:101DE000E883C351D1402F81222311F40C94B11701
:101DF000FC81C55DDE4FF883CB52D140CC5EDE4F17
:101E0000F883C451D1409884992011F40C94A317FD
:101E10003D81C85DDE4F3883C852D140CB5EDE4F76
:101E20003883C551D1409985992311F40C949917A1
:101E3000CA5EDE4F5882C651D1408A85882311F48C
:101E40000C949017C95EDE4F2883C751D1403B8563
:101E5000332311F40C948717C85EDE4F9882C85163
:101E6000D1402C85222311F40C947F17C75EDE4FDE
:101E70009883C951D1409D85992311F40C9477170B
:101E8000C65EDE4F8883CA51D1408E85882311F407
:101E90000C946F17C55EDE4F3883CB51D1403F8520
:101EA000332311F40C946717C45EDE4F2883CC51A2
:101EB000D1402889222311F40C945F17C35EDE4FB2
:101EC0009883CD51D1409989992311F40C945817D6
:101ED000C25EDE4F8883CE51D1408A89882311F4B7
:101EE0000C945117C15EDE4F3883CF51D1403B89EE
:101EF000332311F40C944A17C05EDE4F2883C0527E
:101F0000D1402C89222309F4BEC7CF5DDE4F9883D0
:101F1000C152D1409D89992309F4AEC7CE5DDE4FF1
:101F20008883C252D14064E170E003E110E0A2E195
:101F3000B0E0CD5EDE4F8880C351D1406101A12C5D
:101F4000B12C81E090E0C25DDE4F79836883CE5290
:101F5000D140752DC55DDE4F4881CB52D1404F3405
:101F600009F406C5C65DDE4FF881CA52D140FE3481
:101F700009F4C1C4E3E1EE2EFF24F394EC0EFD1E40
:101F80002FEFE21AF20A482C20E030E0442009F456
:101F900023C3F60140815181FA01E20FF31F6081F2
:101FA000662309F419C3641509F4FCC280E090E0CB
:101FB000FFEFAF1ABF0A22E0C20ED11C39E0A31610
:101FC000B10441F680913C0990913D094DE852E001
:101FD00063E49C012E5F3D4FDC01AF5FBD4FF90113
:101FE0007081F894EC91F0E0EE0FFF1FE80FF91FFD
:101FF00070E0718360836C916F5F6C936C91F901F9
:1020000060816F5F608378946091C10060626093CB
:10201000C100FA016191AF016111E1CF80913D07EB
:10202000833309F074CDE0903E07EE2011F40C9458
:10203000E117F0903F07FF2011F40C94701A009103
:102040004007002311F40C94611A109141071123E9
:1020500011F40C94531AB0914207BB2311F40C9461
:10206000461AA0914307AA2311F40C943A1AF0914E
:102070004407FF2311F40C942F1AE0914507EE2337
:1020800011F40C94251A70914607772311F40C94DF
:102090001C1A60914707662311F40C94141A50918E
:1020A0004807552311F40C940D1A40914907442315
:1020B00011F40C94071A30914A07332311F40C944D
:1020C000021A20914B07222309F477C780914C070D
:1020D000882311F40C94DA1A90914D07EE2009F43C
:1020E00070C7D0903E09DE1074C0FF2011F40C942C
:1020F000D41AE0903F09FE106CC0002311F40C9438
:10210000CE1AF09040090F1164C0112311F40C9401
:10211000C81A0091410910135CC0BB2311F40C9440
:10212000C21A10914209B11354C0AA2311F40C949D
:10213000BC1AB0914309BA134CC0FF2311F40C949C
:10214000B61AA0914409FA1344C0EE2311F40C947A
:10215000B01AF0914509FE133CC0772311F40C949A
:10216000AA1AE0914609E71334C0662311F40C94CF
:10217000A41A7091470976132CC0552311F40C94BE
:102180009E1A60914809651324C0442311F40C94ED
:10219000981A5091490954131CC0332311F40C941C
:1021A000921A40914A09431314C0222311F40C944B
:1021B0008C1A30914B0932130CC0882311F40C9403
:1021C000861A20914C09281304C0992311F40C9409
:1021D000801A80913C0990913D0948E352E064E502
:1021E0009C012E5F3D4FDC01AF5FBD4FF901708157
:1021F000F894EC91F0E0EE0FFF1FE80FF91F70E08C
:10220000718360836C916F5F6C936C91F901608155
:102210006F5F608378946091C10060626093C100D9
:10222000FA016191AF016111E1CF80913D078433E3
:1022300009F070CC40E050E0BE016F5F7E4FCA5D98
:10224000DE4F88819981C652D1400E94250380913A
:102250003D07853309F061CCE0903E07EE2011F494
:102260000C94E11AF0903F07FF2011F40C94C81D64
:1022700000914007002311F40C94B91D10914107FF
:10228000112311F40C94AB1DB0914207BB2311F440
:102290000C949E1DA0914307AA2311F40C94921D47
:1022A000F0914407FF2311F40C94871DE09145073A
:1022B000EE2311F40C947D1D70914607772311F4E1
:1022C0000C94741D60914707662311F40C946C1DE7
:1022D00050914807552311F40C94651D409149070E
:1022E000442311F40C945F1D30914A07332311F4F9
:1022F0000C945A1D20914B07222311F40C94DE1CE0
:1023000080914C07882311F40C94DD1A90914D07AD
:10231000EE2011F40C94E11AD0903E09ED1074C037
:10232000FF2011F40C94541DE0903F09FE106CC086
:10233000002311F40C944E1DF0904009F01264C07B
:10234000112311F40C94481D0091410901135CC044
:10235000BB2311F40C94421D10914209B11354C0D7
:10236000AA2311F40C943C1DB0914309BA134CC03C
:10237000FF2311F40C94361DA0914409FA1344C0B4
:10238000EE2311F40C94301DF0914509FE133CC06E
:10239000772311F40C942A1DE09146097E1334C072
:1023A000662311F40C94241D7091470976132CC0F8
:1023B000552311F40C941E1D60914809651324C027
:1023C000442311F40C94181D5091490954131CC056
:1023D000332311F40C94E21C40914A09431314C0B6
:1023E000222311F40C94E41D30914B0923130CC0EB
:1023F000882311F40C94DE1D20914C09281304C08D
:10240000992311F40C94D81D80913C0990913D09B9
:1024100048E352E064E59C012E5F3D4FDC01AF5F75
:10242000BD4FF9017081F894EC91F0E0EE0FFF1FC1
:10243000E80FF91F70E0718360836C916F5F6C939C
:102440006C91F90160816F5F608378946091C10045
:1024500060626093C100FA016191AF016111E1CF47
:1024600080913D07863309F05BCB80913C099091C8
:102470003D0940E153E064E49C012E5F3D4FDC01E7
:10248000AF5FBD4FF9017081F894EC91F0E0EE0F71
:10249000FF1FE80FF91F70E0718360836C916F5F1D
:1024A0006C936C91F90160816F5F608378946091A7
:1024B000C10060626093C100FA016191AF016111D6
:1024C000E1CF00E010E0F999FECFD8016C91C8018E
:1024D0000E949E1F0F5F1F4F003DB7E01B0799F73B
:1024E000D6CA80913C0990913D0940EE52E066E4E5
:1024F0009C012E5F3D4FDC01AF5FBD4FF901708144
:10250000F894EC91F0E0EE0FFF1FE80FF91F70E078
:10251000718360836C916F5F6C936C91F901608142
:102520006F5F608378946091C10060626093C100C6
:10253000FA016191AF016111E1CF80913D078933CB
:1025400009F0A5CAF6CA80913C0990913D0940EE78
:1025500052E066E49C012E5F3D4FDC01AF5FBD4F52
:10256000F9017081F894EC91F0E0EE0FFF1FE80F95
:10257000F91F70E0718360836C916F5F6C936C9155
:10258000F90160816F5F608378946091C10060623F
:102590006093C100FA016191AF016111E1CF8091B7
:1025A0003D07C1CA2F5F3F4FF70141907F01FA01FC
:1025B000E20FF31F8081442059F0882309F4F6CC00
:1025C00081E090E0E3CC7F2DFA01E20FF31F8081E0
:1025D0008111ECCC81E090E08130910509F0E8CCEC
:1025E000C25DDE4F68817981CE52D14080E3982E62
:1025F0009A0CE1E0F0E0EC0FFD1FEA0FFB1F808179
:1026000090E0C09744E6489F9001499F300D112407
:10261000E1E0F0E0EC0FFD1FE00FF11F808190E0A2
:10262000C097AC01440F551F880F991F880F991F41
:10263000880F991F840F951F280F391FE1E0F0E0E4
:10264000EC0FFD1FE60FF71F808190E0C097280F69
:10265000391FF501EE0FFF1F81E091E08C0F9D1FE8
:10266000E80FF91F3183208398E0A916B10409F41B
:10267000C6C1F5013197E730F10508F4BAC13093CE
:102680008B0020938A0040913C0950913D098CE7D2
:10269000C82E82E0D82E83E7FA01EE5FFD4F7F015E
:1026A0009A012F5F3D4FF7019081F894F9019081D5
:1026B000E92FF0E0EE0FFF1FE40FF51F90E091838C
:1026C0008083F90180818F5F80838081F701808121
:1026D0008F5F808378948091C10080628093C10075
:1026E000F60181916F018111DECF40913C0950913B
:1026F0003D099A012E5F3D4FF9018081F8947A01DE
:10270000FFEFEF1AFDEFFF0AF701808190E0880FDD
:10271000991F840F951F492D50E0FC015183408380
:10272000F70180818F5F80838081F90180818F5FD5
:10273000808378948091C10080628093C100409131
:102740003C0950913D09FBECCF2EF2E0DF2E80E2F8
:102750009A012E5F3D4F790121503109F701908197
:10276000F894F9019081E92FF0E0EE0FFF1FE40FDC
:10277000F51F90E091838083F90180818F5F8083D2
:102780008081F70180818F5F808378948091C10080
:1027900080628093C100F60181916F018111DECFCB
:1027A00021E030E02C0F3D1FA20FB31F4C91E091B0
:1027B0003C09F0913D099F012E5F3D4FD9018C915D
:1027C000F89411978C9190E0880F991FE80FF91FEA
:1027D000842F90E0918380838C918F5F8C938C9178
:1027E000F90180818F5F808378948091C10080623D
:1027F0008093C100E1E0F0E0EC0FFD1FE00FF11F5E
:102800004081E0913C09F0913D099F012E5F3D4FD1
:10281000D9018C91F89411978C9190E0880F991FB1
:10282000E80FF91F842F90E0918380838C918F5F54
:102830008C938C91F90180818F5F80837894809153
:10284000C10080628093C100E1E0F0E0EC0FFD1F69
:10285000E60FF71F4081E0913C09F0913D099F018F
:102860002E5F3D4FD9018C91F89411978C9190E097
:10287000880F991FE80FF91F842F90E091838083C0
:102880008C918F5F8C938C91F90180818F5F808315
:1028900078948091C10080628093C10080913C094E
:1028A00090913D0945E752E06AE09C012E5F3D4F63
:1028B000DC01AF5FBD4FF9017081F894EC91F0E05D
:1028C000EE0FFF1FE80FF91F70E0718360836C91BA
:1028D0006F5F6C936C91F90160816F5F6083789496
:1028E0006091C10060626093C100FA016191AF0123
:1028F0006111E1CF93CBE3E1F1E0EC0FFD1F3196E5
:10290000482C20E030E0F72EC05DDE4FF983E883ED
:10291000C053D140442051F1F60140815181BA01A8
:10292000620F731FFB016081662301F1461611F0EF
:102930007F2D3CCB2F5F3F4FC05DDE4FE881F9819B
:10294000C053D1404190C05DDE4FF983E883C0534E
:10295000D140442009F437CE420F531FFA01808141
:10296000882331F381E090E04110D6CF7F2D34CE23
:10297000C65DDE4FE881CA52D140EE3409F484C10D
:10298000E3E1F1E0EC0FFD1F3196482C20E030E050
:10299000C05DDE4FF983E883C053D140F72E442059
:1029A00029F3F60140815181BA01620F731FFB01C7
:1029B00060816623D9F24612BBCF2F5F3F4FC05DC7
:1029C000DE4FE881F981C053D1404190C05DDE4FB8
:1029D000F983E883C053D140442009F4F4CD420F79
:1029E000531FFA018081882309F4A2CF81E090E08F
:1029F000D6CF8827E558FF4F8F4F0C94FE1DCF5F31
:102A0000DE4F39832883C150D140CD5FDE4F3983FB
:102A10002883C350D140CB5FDE4F39832883C55014
:102A2000D140C95FDE4F39832883C750D140C75F8B
:102A3000DE4F39832883C950D140C55FDE4F3983CB
:102A40002883CB50D140C35FDE4F39832883CD50DC
:102A5000D140C15FDE4F39832883CF50D14028BD9C
:102A60003093A9002093A8003093AB002093AA00D4
:102A70002093B300309389002093880030938B001B
:102A800020938A00309399002093980030939B0004
:102A900020939A0040913C0950913D092AEAC22EA8
:102AA00022E0D22E81E49A012E5F3D4F7901215020
:102AB0003109F7019081F894F9019081E92FF0E054
:102AC000EE0FFF1FE40FF51F90E091838083F90163
:102AD00080818F5F80838081F70180818F5F808319
:102AE00078948091C10080628093C100F601819149
:102AF0006F018111DECF21E030E02C0F3D1FA20FCE
:102B0000B31F4C91E0913C09F0913D099F012E5F6C
:102B10003D4FD9018C91F89411978C9190E0880FDA
:102B2000991FE80FF91F842F90E0918380838C9187
:102B30008F5F8C938C91F90180818F5F8083789473
:102B40008091C10080628093C100E1E0F0E0EC0F71
:102B5000FD1FE00FF11F4081E0913C09F0913D091C
:102B60009F012E5F3D4FD9018C91F89411978C9164
:102B700090E0880F991FE80FF91F842F90E0918350
:102B800080838C918F5F8C938C91F90180818F5F12
:102B9000808378948091C10080628093C100E1E0DD
:102BA000F0E0EC0FFD1FE60FF71F4081E0913C09BC
:102BB000F0913D099F012E5F3D4FD9018C91F89412
:102BC00011978C9190E0880F991FE80FF91F842FBF
:102BD00090E0918380838C918F5F8C938C91F9012D
:102BE00080818F5F808378948091C1008062809320
:102BF000C10080913C0990913D0945E752E06AE0AF
:102C00009C012E5F3D4FDC01AF5FBD4FF90170812C
:102C1000F894EC91F0E0EE0FFF1FE80FF91F70E061
:102C2000718360836C916F5F6C936C91F90160812B
:102C30006F5F608378946091C10060626093C100AF
:102C4000FA016191AF016111E1CFE8C930939900B8
:102C50002093980018CD3093A9002093A80013CD9D
:102C60003093AB002093AA000ECD2093B3000BCD80
:102C7000309389002093880006CD28BD04CD309381
:102C80009B0020939A00FFCC992009F47DC0C85D79
:102C9000DE4FF881C852D140FE34D9F1E3E1F1E0D2
:102CA000EC0FFD1F3196482C20E030E0F72EC05D80
:102CB000DE4FF983E883C053D140442009F456CE57
:102CC000F60140815181BA01620F731FFB016081DF
:102CD000662309F44BCE46122BCE2F5F3F4FC05DCB
:102CE000DE4FE881F981C053D1404190C05DDE4F95
:102CF000F983E883C053D140442009F464CC420FE7
:102D0000531FFA018081882309F412CE81E090E0FC
:102D1000D4CFE3E1F1E0EC0FFD1F3196482C20E029
:102D200030E0F72EC05DDE4FF983E883C053D14019
:102D3000442009F41BCEF60140815181BA01620F93
:102D4000731FFB016081662309F410CE4612F0CD9B
:102D50002F5F3F4FC05DDE4FE881F981C053D14006
:102D60004190C05DDE4FF983E883C053D1404420D9
:102D700009F429CC420F531FFA018081882309F4FA
:102D8000D7CD81E090E0D4CFE3E1F1E0EC0FFD1F7F
:102D90003196482C20E030E0753499F1F72EC05D73
:102DA000DE4FF983E883C053D140442009F4DECDDF
:102DB000F60140815181BA01620F731FFB016081EE
:102DC000662309F4D3CD4612B3CD2F5F3F4FC05DCC
:102DD000DE4FE881F981C053D1404190C05DDE4FA4
:102DE000F983E883C053D140442009F4ECCB420F6F
:102DF000531FFA018081882309F49ACD81E090E085
:102E0000D4CFC05DDE4FF983E883C053D140F72EA5
:102E1000442009F4ABCDF60140815181BA01620F23
:102E2000731FFB016081662309F4A0CDC85DDE4FEE
:102E30008881C852D1408E3409F47ACD641178CD9E
:102E40002F5F3F4FC05DDE4FE881F981C053D14015
:102E50004190C05DDE4FF983E883C053D1404420E8
:102E600009F4B1CB420F531FFA018081882309F482
:102E70005FCD81E090E0CCCF63E170E002E110E053
:102E8000A1E1B0E056C862E170E001E110E0A0E12C
:102E9000B0E04FC861E170E000E110E0AFE0B0E009
:102EA00048C860E170E00FE010E0AEE0B0E041C87B
:102EB0006FE070E00EE010E0ADE0B0E03AC86EE028
:102EC00070E00DE010E0ACE0B0E00C94990F6DE024
:102ED00070E00CE010E0ABE0B0E00C94990F6CE017
:102EE00070E00BE010E0AAE0B0E00C94990F6BE00A
:102EF00070E00AE010E0A9E0B0E00C94990F6AE0FD
:102F000070E009E010E0A8E0B0E00C94990F912C7B
:102F100069E070E008E010E0A7E0B0E00C94990FE1
:102F2000912C68E070E007E010E0A6E0B0E00C94BF
:102F3000990F912C512C67E070E006E010E0A5E0BD
:102F4000B0E00C94990F512CC85DDE4F1882C85226
:102F5000D14066E070E005E010E0A4E0B0E00C9441
:102F6000990F912C512CC85DDE4F1882C852D14068
:102F7000C55DDE4F1882CB52D14065E070E004E0C1
:102F800010E0A3E0B0E00C94990F912CC85DDE4FE7
:102F90001882C852D140C55DDE4F1882CB52D14055
:102FA000C65DDE4F1882CA52D14064E070E003E093
:102FB00010E0A2E0B0E00C94990F90E080E0E11006
:102FC00090C880913E09811104C980913C0990917B
:102FD0003D0945E253E064E49C012E5F3D4FDC0176
:102FE000AF5FBD4FF9017081F894EC91F0E0EE0F06
:102FF000FF1FE80FF91F70E0718360836C916F5FB2
:103000006C936C91F90160816F5F6083789460913B
:10301000C10060626093C100FA016191AF0161116A
:10302000E1CF40913C0950913D0960913E096623F2
:1030300059F12FE339E0CA018E5F9D4FDA01AF5F8E
:10304000BD4FFC017081F894EC91F0E0EE0FFF1F92
:10305000E40FF51F70E0718360836C916F5F6C9378
:103060006C91FC0160816F5F608378946091C10016
:1030700060626093C100F90161919F016111E1CF2C
:1030800040913C0950913D0961019E012F5F3E4FE7
:103090005901E0E3F0E00CE9802E86EF982E05C0A0
:1030A00040913C0950913D09319664ED72E00AE08F
:1030B0009A012E5F3D4FCA018F5F9D4FD9011C9130
:1030C000F894DC011C91A12FB0E0AA0FBB1FA40F44
:1030D000B51F10E00D931C93DC011C911F5F1C9326
:1030E0001C91D9011C911F5F1C937894A091C10081
:1030F000A062A093C100DB010D91BD010111DECFE3
:1031000060913C0970913D09AB014E5F5D4FDA0162
:103110008C91F8949B012F5F3D4FD9018C9190E0E9
:10312000880F991FDB01A80FB91FED93FC93D901FC
:103130008C918F5F8C938C91DA018C918F5F8C9343
:1031400078948091C10080628093C10060913C09B5
:1031500070913D09AB014E5F5D4FDA018C91F8949F
:103160009B012F5F3D4FD9018C9190E0880F991FF3
:10317000DB01A80FB91F6D927C92D9018C918F5FF2
:103180008C938C91DA018C918F5F8C9378948091E1
:10319000C10080628093C100D6010D911D916D0127
:1031A00020913C0930913D09D8018C91882371F11F
:1031B0000F5F1F4FB9016E5F7D4FA9014F5F5D4FDC
:1031C0007F01FB019081F894FA01A081B0E0AA0F81
:1031D000BB1FA20FB31F90E08D939C9380818F5FE4
:1031E00080838081DB018C918F5F8C9378948091B8
:1031F000C10080628093C100F80181918F0181112B
:10320000E0CFF70120913C0930913D09A9014E5FC3
:103210005D4FDA018C91F894B9016F5F7D4FDB014E
:103220008C9190E0880F991F280F391FD9016D925A
:103230007C92DB018C918F5F8C938C91DA018C9165
:103240008F5F8C9378948091C10080628093C100DD
:103250007501D5018D919C9164E670E00E94EA1D94
:1032600000913C0910913D09A8014E5F5D4FDA01C4
:103270008C91F89498012F5F3D4FD9018C91A82F24
:10328000B0E0CD01880F991FD801A80FB91FCB015D
:10329000C09699278D939C93D9018C918F5F8C93C5
:1032A0008C91DA018C918F5F8C9378948091C1001E
:1032B00080628093C100282D26038001279F100D76
:1032C0001124D5018D919D915D01800F911F6AE0C0
:1032D00070E00E94EA1D40913C0950913D099A011D
:1032E0002E5F3D4FD9018C91F8942A01BFEF4B1A04
:1032F000BDEF5B0AD2018C9190E0880F991F480FB7
:10330000591FCB01C0969927DA018D939C93D20166
:103310008C918F5F8C938C91D9018C918F5F8C9362
:1033200078948091C10080628093C100D7012D9173
:103330003C91200F311F492D4603C001479F900D3E
:103340001124280F391F205D3F4F00913C09109137
:103350003D09B8016E5F7D4FDB018C91F894A801A7
:103360004F5F5D4FDA018C91A82FB0E0CD01880F3F
:10337000991FD801A80FB91F33272D933C93DA0169
:103380008C918F5F8C938C91DB018C918F5F8C93F0
:1033900078948091C10080628093C100E733F10589
:1033A00009F07ECE80913C0990913D0945E752E0BD
:1033B0006AE09C012E5F3D4FDC01AF5FBD4FF9011C
:1033C0007081F894EC91F0E0EE0FFF1FE80FF91F09
:1033D00070E0718360836C916F5F6C936C91F90105
:1033E00060816F5F608378946091C10060626093D8
:1033F000C100FA016191AF016111E1CF80913D07F8
:103400000C94171190E080E020E00C946E1090E096
:1034100080E020E030E00C946E1090E080E020E04E
:1034200030E040E00C946E1090E080E020E030E06E
:1034300040E050E00C946E1090E080E020E030E03E
:1034400040E050E060E00C946E1090E080E020E0FE
:1034500030E040E050E060E070E00C946E1090E0EE
:1034600080E020E030E040E050E060E070E0E0E04C
:103470000C946E1090E080E020E030E040E050E0FE
:1034800060E070E0E0E0F0E00C946E1090E080E02E
:1034900020E030E040E050E060E070E0E0E0F0E0AC
:1034A000A0E00C946E1090E080E020E030E040E07E
:1034B00050E060E070E0E0E0F0E0A0E0B0E00C940C
:1034C0006E1090E080E020E030E040E050E060E00E
:1034D00070E0E0E0F0E0A0E0B0E010E00C946E10EE
:1034E00090E080E020E030E040E050E060E070E01C
:1034F000E0E0F0E0A0E0B0E010E000E00C946E103E
:1035000080914D0981110C94E9105FCD80914C0997
:1035100081110C94E91059CD80914B0981110C94C3
:10352000E91053CD80914A0981110C94E9104DCDD9
:103530008091490981110C94E91047CD8091480987
:1035400081110C94E91041CD8091470981110C94AF
:10355000E9103BCD8091460981110C94E91035CDDD
:103560008091450981110C94E9102FCD8091440977
:1035700081110C94E91029CD8091430981110C949B
:10358000E91023CD8091420981110C94E9101DCDE1
:103590008091410981110C94E91017CD8091400967
:1035A00081110C94E91011CD80913F0981110C9487
:1035B000E9100BCD90E00C946E1090E0E1100C94AB
:1035C0008C1180913E0981110C94041280913C0968
:1035D00090913D0945E253E064E49C012E5F3D4F2C
:1035E000DC01AF5FBD4FF9017081F894EC91F0E020
:1035F000EE0FFF1FE80FF91F70E0718360836C917D
:103600006F5F6C936C91F90160816F5F6083789458
:103610006091C10060626093C100FA016191AF01E5
:103620006111E1CF20913C0930913D0960913E0943
:10363000662359F14FE359E0C9018E5F9D4FD901CF
:10364000AF5FBD4FFC017081F894EC91F0E0EE0F9C
:10365000FF1FE20FF31F70E0718360836C916F5F57
:103660006C936C91FC0160816F5F608378946091D2
:10367000C10060626093C100FA016191AF01611104
:10368000E1CF20913C0930913D09CA5DDE4F0881B0
:103690001981C652D140E0E3F0E0D12C9CE9C92E5B
:1036A00046EFB42E6AED72E08AE0E82EA9014E5F83
:1036B0005D4FC9018F5F9D4FDA01FC90F894DC01EA
:1036C000FC90AF2DB0E0AA0FBB1FA20FB31FF12CCF
:1036D000ED92FC92DC01FC90F394FC92FC90DA01F8
:1036E000FC90F394FC927894A091C100A062A09306
:1036F000C100DB01ED90BD01E110DECF60913C091E
:1037000070913D09AB014E5F5D4FDA018C91F894E9
:103710009B012F5F3D4FD9018C9190E0880F991F3D
:10372000DB01A80FB91FED93FC93D9018C918F5F3A
:103730008C938C91DA018C918F5F8C93789480912B
:10374000C10080628093C10060913C0970913D0985
:10375000AB014E5F5D4FDA018C91F8949B012F5FB6
:103760003D4FD9018C9190E0880F991FDB01A80F84
:10377000B91F6D927C92D9018C918F5F8C938C9143
:10378000DA018C918F5F8C9378948091C100806274
:103790008093C100D8012D913D918D0140913C094C
:1037A00050913D09D9018C91882371F111969A01AC
:1037B0002E5F3D4F7901BA016F5F7D4F4F01F701D9
:1037C0009081F894FB01208130E0220F331F240FF9
:1037D000351F90E0F90191838083FB0180818F5F29
:1037E00080838081F70180818F5F808378948091CE
:1037F000C10080628093C1008D918111E0CFF401FE
:1038000040913C0950913D099A012E5F3D4FD901ED
:103810008C91F894BA016F5F7D4FDB018C9190E041
:10382000880F991F480F591FDA016D927C92DB01B6
:103830008C918F5F8C938C91D9018C918F5F8C933D
:1038400078948091C10080628093C1008D2D806446
:1038500080937C0080917A00806480937A008091CC
:103860007A008439E1F7209178003091790033278C
:10387000C90164E670E00E94EA1D80903C099090C6
:103880003D09740142E0E40EF41ED7018C91F894D6
:10389000A4014F5F5D4FDA018C91A82FB0E0CD01FC
:1038A000880F991FD401A80FB91FCB01C0968D9323
:1038B0009C93DA018C918F5F8C938C91D7018C91C2
:1038C0008F5F8C9378948091C10080628093C10057
:1038D0004C2D4603C001479F900D11242901480E2D
:1038E000591EC2016AE070E00E94EA1D80903C0906
:1038F00090903D09740182E0E80EF81ED7018C918A
:10390000F894A4014F5F5D4FDA018C91A82FB0E0CD
:10391000CD01880F991FD401A80FB91FCB01C09604
:103920008D939C93DA018C918F5F8C938C91D7014E
:103930008C918F5F8C9378948091C100806280938A
:10394000C10080903C0990903D097401B2E0EB0EFB
:10395000FB1ED7018C91F894A4014F5F5D4FDA01F3
:103960008C91A82FB0E0CD01880F991FD401A80F2A
:10397000B91F2B2D2603C001279F900D1124840D04
:10398000951DC09699278D939C93DA018C918F5F3A
:103990008C938C91D7018C918F5F8C9378948091CC
:1039A000C10080628093C100D3943196B8E0DB16E9
:1039B00079F020913C0930913D0974CE90E080E08F
:1039C0000C94881180914A0981110C940412FECD47
:1039D00080913C0990913D0945E752E06AE09C01E5
:1039E0002E5F3D4FDC01AF5FBD4FF9017081F89450
:1039F000EC91F0E0EE0FFF1FE80FF91F70E071830C
:103A000060836C916F5F6C936C91F90160816F5F63
:103A1000608378946091C10060626093C100FA0194
:103A20006191AF016111E1CF80913D070C94321299
:103A30008091490981110C940412C8CD80914809E4
:103A400081110C940412C2CD8091470981110C940C
:103A50000412BCCD8091460981110C940412B6CD9C
:103A60008091450981110C940412B0CD80914409D4
:103A700081110C940412AACD8091430981110C94F8
:103A80000412A4CD8091420981110C9404129ECDA0
:103A90008091410981110C94041298CD80914009C4
:103AA00081110C94041292CD80913F0981110C94E4
:103AB00004128CCD90E080E020E00C94881190E01E
:103AC00080E020E030E00C94881190E080E020E07D
:103AD00030E040E00C94881190E080E020E030E09D
:103AE00040E050E00C94881190E080E020E030E06D
:103AF00040E050E060E00C94881190E080E020E02D
:103B000030E040E050E060E070E00C94881190E01C
:103B100080E020E030E040E050E060E070E0E0E095
:103B20000C94881190E080E020E030E040E050E02C
:103B300060E070E0E0E0F0E00C94881190E080E05C
:103B400020E030E040E050E060E070E0E0E0F0E0F5
:103B5000A0E00C94881190E080E020E030E040E0AC
:103B600050E060E070E0E0E0F0E0A0E0B0E00C9455
:103B7000881190E080E020E030E040E050E060E03C
:103B800070E0E0E0F0E0A0E0B0E010E00C9488111C
:103B900090E080E020E030E040E050E060E070E065
:103BA000E0E0F0E0A0E0B0E010E000E00C9488116C
:103BB00080914D0981110C94041208CD80914C091B
:103BC00081110C94041202CD80914B0981110C9447
:103BD0000412FCCC97FB072E16F4009407D077FD57
:103BE00009D00E94061E07FC05D03EF490958195F1
:103BF0009F4F0895709561957F4F0895EE0FFF1FB9
:103C0000881F8BBF0790F691E02D1994AA1BBB1B50
:103C100051E107C0AA1FBB1FA617B70710F0A61BCC
:103C2000B70B881F991F5A95A9F780959095BC01ED
:103C3000CD0108950F931F93CF93DF9382309105A9
:103C400010F482E090E0E091400AF091410A20E017
:103C500030E0A0E0B0E0309719F14081518102815D
:103C6000138148175907C8F08417950769F410970E
:103C700031F012960C93129713961C9327C0009361
:103C8000400A1093410A22C02115310519F042174C
:103C9000530718F49A01BD01EF01DF01F801DBCFF2
:103CA00021153105F9F0281B390B2430310580F43A
:103CB0008A819B816115710521F0FB0193838283C9
:103CC00004C09093410A8093400AFE01329644C09A
:103CD000FE01E20FF31F8193919322503109398342
:103CE00028833AC020913E0A30913F0A232B41F4A9
:103CF000209102023091030230933F0A20933E0A42
:103D000020910002309101022115310541F42DB7B7
:103D10003EB74091040250910502241B350BE091FF
:103D20003E0AF0913F0AE217F307A0F42E1B3F0B67
:103D30002817390778F0AC014E5F5F4F241735071D
:103D400048F04E0F5F1F50933F0A40933E0A819305
:103D5000919302C0E0E0F0E0CF01DF91CF911F919D
:103D60000F910895CF93DF93009709F481C0FC0170
:103D7000329713821282A091400AB091410A1097A3
:103D800081F420813181820F931F20913E0A30916E
:103D90003F0A2817390751F5F0933F0AE0933E0A8E
:103DA00067C0ED0120E030E0CE17DF0740F44A8124
:103DB0005B819E0141155105F1F0EA01F5CFD383F6
:103DC000C28340815181840F951FC817D90759F4C8
:103DD00088819981840F951F0296918380838A81BF
:103DE0009B81938382832115310529F4F093410A45
:103DF000E093400A3DC0E901FB83EA834991599170
:103E0000C40FD51FEC17FD0761F480819181840FE9
:103E1000951F0296E90199838883828193819B8310
:103E20008A83E0E0F0E012968D919C9113970097C1
:103E300019F0FD01DC01F7CF8D919C9111979D0147
:103E40002E5F3F4F820F931F20913E0A30913F0A11
:103E50002817390769F4309729F41092410A109213
:103E6000400A02C013821282B0933F0AA0933E0A16
:103E7000DF91CF910895FC0188279927E89421913B
:103E80002032E9F3293010F02E30C8F32B3241F004
:103E90002D3239F4689404C00E94641F820F911D72
:103EA000219120532A30C0F31EF4909581959F4FA5
:103EB0000895BB274A3031F4992322F4BDE290954E
:103EC00081959F4F0C946D1F7AE0979F902D879F4F
:103ED000802D910D11240895BB27FB015527AA279A
:103EE000880F991FAA1FA41710F0A41B8395505187
:103EF000B9F7A05DAA3308F0A95DA193009779F7FF
:103F0000B111B1931192CB010C94861FDC01FC011D
:103F1000672F71917723E1F7329704C07C916D93FD
:103F200070836291AE17BF07C8F30895F999FECF69
:103F300092BD81BDF89A992780B50895262FF999E9
:103F4000FECF1FBA92BD81BD20BD0FB6F894FA9A7C
:0C3F5000F99A0FBE01960895F894FFCF77
:103F5C000000420A20004368616E6E656C206E6F33
:103F6C00742076616C69640A0D004368616E6E653D
:103F7C006C206E616D6520616C7265616479206581
:103F8C00786973740A0D005468612773206E6F741E
:103F9C00206D79206E616D650A0D00596F75207367
:103FAC0068616C6C204E4F4E4520706173732128F4
:103FBC004E4F4E45203D20696E76616C6964206ED3
:103FCC00616D65290A0D00202D3E2073776974639D
:103FDC00685F004E4F4E4500303030004368616ED4
:103FEC006E656C206E616D6520646F65736E2774F1
:103FFC002065786973740A0D00414C4C206368612C
:10400C006E6E656C7320617265206E6F77207365C0
:10401C007474656420746F3A20002076616C756549
:10402C003A20000A50574D5F000A4144435F004656
:10403C00756E6374696F6E206E6F74207965742071
:10404C00696D706C656D656E7465640A0D004D79F3
:10405C00206E6577206E616D652069733A2000448F
:10406C006576696365206E666173617567687573E3
:10407C0066730D00446576696365206E616D653A03
:02408C00200012
:00000001FF
