:100000000C9472000C9493000C9493000C94930045
:100010000C9493000C9493000C9493000C94930014
:100020000C9493000C9493000C9493000C94930004
:100030000C9493000C9493000C9493000C949300F4
:100040000C9493000C9493000C9493000C949300E4
:100050000C9493000C9493000C9493000C949300D4
:100060000C9493000C9493000C9493000C949300C4
:100070000C9493000C9493000C9493000C949300B4
:100080000C9493000C9493000C9493000C949300A4
:100090000C9493000C9493000C9493000C94930094
:1000A0000C9493000C9493000C9493000C94930084
:1000B0000C9493000C9493000C9493000C94930074
:1000C0000C9493000C9493000C9493000C94930064
:1000D0000C9493000C9493000C9493000C94930054
:1000E0000C94930011241FBECFEFD1E2DEBFCDBF31
:1000F00000E00CBF12E0A0E0B2E0E0E6FCE000E0CF
:100100000BBF02C007900D92AA36B107D9F722E0C3
:10011000AAE6B2E001C01D92AE36B207E1F70E9436
:10012000DE000C942E060C9400001092C50082E3B1
:100130008093C40086E08093C20088E98093C10068
:1001400008959091C00095FFFCCF8093C60008955C
:100150009091C00095FFFCCF08958091C00087FF6B
:10016000FCCF8091C6000895FC019091C00097FFDC
:10017000FCCF9091C6009193992329F09A3011F009
:100180009D3099F711929E2F981B892F0895FC019D
:100190002081222351F031969091C00095FFFCCF31
:1001A0002093C60021912111F7CF089584B583686B
:1001B00084BD85B5816085BD279A0895CF93DF936F
:1001C000CDB7DEB7D4500FB6F894DEBF0FBECDBFAB
:1001D00084B5836884BD85B5816085BD279A1092FA
:1001E000C50082E38093C40086E08093C20088E962
:1001F0008093C10017BC80E190E00E949E043C0106
:100200008C017C0120E1E20EF11C80E190E00E9473
:100210009E04D8018D939D938D01EA16FB06A9F7E4
:10022000FE01EF5FFC4F2F018E010F5F1B4FCE01D0
:100230008F5F9E4F7C01212C33243394D201F10136
:100240001D923197E9F7FFEF27EA81E6F150204050
:100250008040E1F700C00000F2018091C00087FFFC
:10026000FCCF8091C6008193882329F08A3011F059
:100270008D3099F710826201DE01AF5FBD4FF20150
:1002800091918091C00085FFFCCF9D930E171F07B1
:10029000B9F7CF5FDD4F8881C150D240803371F50F
:1002A000CE5FDD4F8881C250D240803309F499C1BE
:1002B000813309F4DDC1823309F48AC0833309F440
:1002C0007EC1843309F472C0853309F449C0863392
:1002D00009F45AC08733F9F0883381F1893309F082
:1002E000ADCFE1E3F2E096E48091C00085FFFCCF62
:1002F0009093C60091919111F7CFA0CFEFE4F2E077
:1003000094E68091C00085FFFCCF9093C600919148
:100310009111F7CF93CFE1E3F2E096E48091C00032
:1003200085FFFCCF9093C60091919111F7CFCE5FDE
:10033000DD4F8881C250D240883381F6E1E3F2E09C
:1003400096E48091C00085FFFCCF9093C600919108
:100350009111F7CFCE5FDD4F8881C250D240BECF22
:10036000E1E3F2E096E48091C00085FFFCCF90933A
:10037000C60091919111F7CFCE5FDD4F8881C250B9
:10038000D240863309F0A6CFE1E3F2E096E4809113
:10039000C00085FFFCCF9093C60091919111F7CFDB
:1003A000CE5FDD4F8881C250D24094CFE1E3F2E0CE
:1003B00096E48091C00085FFFCCF9093C600919198
:1003C0009111F7CFCE5FDD4F8881C250D2407CCFF4
:1003D000D7011C9211961C92119712961C9212979B
:1003E00013961C92139714961C92149715961C92B0
:1003F000159716961C92169717961C921797189693
:100400001C92189719961C9219971A961C921A9773
:100410001B961C921B971C961C921C971D961C9257
:100420001D971E961C921E971F961C92FE013196D8
:10043000D6019D916D018091C00085FFFCCF919305
:10044000C016D106A9F78C81882309F489C19B8144
:10045000F70190839D81992309F4FBC181838E81EB
:10046000882309F4EDC192839F81992309F415C271
:1004700083838885882309F407C294839985992307
:1004800009F4F9C185838A85882309F4EBC1968331
:100490009B85992309F449C287838C85882309F4B5
:1004A0003BC290879D85992309F42DC281878E8553
:1004B000882309F41FC292879F85992309F411C2EA
:1004C00083878889882309F403C2948799899923AB
:1004D00009F4F5C185878A89882309F4E7C19687DD
:1004E0009B89992309F4A3C18787AC88B12C24E1A7
:1004F000C22ED12C32E1832E912CD3016D917C91AF
:10050000C7010E94DD05892B09F43BC1F30162811B
:100510007381C7010E94DD05892B09F432C1D30123
:1005200014966D917C911597C7010E94DD05892B6A
:1005300009F427C1F30166817781C7010E94DD05B7
:10054000892B09F41EC1D30118966D917C911997DE
:10055000C7010E94DD05892B09F413C1F3016285EF
:100560007385C7010E94DD05892B09F40AC1D301F7
:100570001C966D917C911D97C7010E94DD05892B0A
:1005800009F4FFC0F30166857785C7010E94DD0588
:10059000892B09F4F6C0E8E1F2E093E48091C00011
:1005A00085FFFCCF9093C60091919111F7CFCE5F5C
:1005B000DD4F8881C250D240833309F082CEE1E31F
:1005C000F2E096E48091C00085FFFCCF9093C600D6
:1005D00091919111F7CFCE5FDD4F8881C250D2400B
:1005E00070CECE0101969701B701F2015191409171
:1005F000C00045FFFCCFDC015D93CD01DB011D9206
:10060000BD01E017F10791F78B81882341F0FE01CE
:100610003496D9018D939D0181918111FACFE7E044
:10062000F2E09DE48091C00085FFFCCF9093C6006E
:1006300091919111F7CFF7019081992351F0319663
:100640008091C00085FFFCCF9093C60091919111DD
:10065000F7CF8091C00085FFFCCF8AE08093C60071
:10066000CE5FDD4F8881C250D240813309F023CE66
:10067000DE011196F20191918091C00085FFFCCFBF
:100680009D93E017F107B9F78B8190E00E94BF05B9
:10069000880F991FD301A80FB91FED91FC911197F5
:1006A000108211821282138214821582168217829E
:1006B000108611861286138614861586168617866E
:1006C00011961C921E928C81882361F09701AE01D5
:1006D0004B5F5F4FF90181939F01FA018191AF0157
:1006E0008111F8CF1196FC92EE92E3E6F2E093E7E7
:1006F0008091C00085FFFCCF9093C600919191112D
:10070000F7CF8B819091C00095FFFCCF8093C600FE
:10071000E9E0F2E090E28091C00085FFFCCF909389
:10072000C60091919111F7CFED91FC9190819923A1
:1007300051F031968091C00085FFFCCF9093C600A8
:1007400091919111F7CF8091C00085FFFCCF8AE095
:100750008093C600CE5FDD4F8881C250D240ABCDC2
:1007600084E0C82ED12C92E0892E912CA12CB12CA2
:10077000D3016D917C91C7010E94DD05892B09F0A1
:10078000C5CEE1E0F0E0EC0FFD1FE80DF91D808122
:1007900090E00E94BF054C01C5010E94BF0544E6E0
:1007A000489D9001499D300D11245C01AA0CBB1C91
:1007B000880F991F880F991F880F991F8A0D9B1DFD
:1007C0005901A80EB91EE1E0F0E0EC0FFD1FEC0DA1
:1007D000FD1D808190E00E94BF058A0D9B1D0E9437
:1007E000E605FC018981882359F0DE01129690917B
:1007F000C00095FFFCCF8093C6008D918111F7CF8B
:100800009081992309F4D3CE31968091C00085FF61
:10081000FCCF9093C60091919111F7CFCE5FDD4F41
:100820008881C250D240833309F04BCDC8CE63E1FA
:10083000C62ED12C71E1872E912CA12CB12C5DCE2E
:10084000E6E0CE2ED12CF4E08F2E912CA12CB12CF1
:1008500054CEA5E0CA2ED12CB3E08B2E912CA12C26
:10086000B12C4BCE8AE0C82ED12C98E0892E912C49
:10087000A12CB12C42CE29E0C22ED12C37E0832E00
:10088000912CA12CB12C39CE48E0C42ED12C56E0AD
:10089000852E912CA12CB12C30CE67E0C62ED12C08
:1008A00075E0872E912CA12CB12C27CEE2E1CE2E23
:1008B000D12CF0E18F2E912CA12CB12C1ECEA1E1D8
:1008C000CA2ED12CBFE08B2E912CA12CB12C15CE91
:1008D00080E1C82ED12C9EE0892E912CA12CB12C28
:1008E0000CCE2FE0C22ED12C3DE0832E912CA12CDA
:1008F000B12C03CE4EE0C42ED12C5CE0852E912C81
:10090000A12CB12CFACD6DE0C62ED12C7BE0872E28
:10091000912CA12CB12CF1CDECE0CE2ED12CFAE013
:100920008F2E912CA12CB12CE8CDABE0CA2ED12C6E
:10093000B9E08B2E912CA12CB12CDFCD0F931F93FE
:10094000CF93DF938230910510F482E090E0E09144
:100950006C02F0916D0220E030E0A0E0B0E0309752
:1009600019F1408151810281138148175907C8F05C
:100970008417950769F4109731F012960C9312972B
:1009800013961C9327C000936C0210936D0222C033
:100990002115310519F04217530718F49A01BD01CA
:1009A000EF01DF01F801DBCF21153105F9F0281B3C
:1009B000390B2430310580F48A819B8161157105E2
:1009C00021F0FB019383828304C090936D02809396
:1009D0006C02FE01329644C0FE01E20FF31F8193C8
:1009E000919322503109398328833AC020916A02B9
:1009F00030916B02232B41F42091020230910302CB
:100A000030936B0220936A02209100023091010220
:100A10002115310541F42DB73EB7409104025091A4
:100A20000502241B350BE0916A02F0916B02E2177C
:100A3000F307A0F42E1B3F0B2817390778F0AC0101
:100A40004E5F5F4F2417350748F04E0F5F1F5093DE
:100A50006B0240936A028193919302C0E0E0F0E060
:100A6000CF01DF91CF911F910F910895CF93DF9325
:100A7000009709F481C0FC01329713821282A09181
:100A80006C02B0916D02109781F420813181820F48
:100A9000931F20916A0230916B022817390751F594
:100AA000F0936B02E0936A0267C0ED0120E030E052
:100AB000CE17DF0740F44A815B819E014115510545
:100AC000F1F0EA01F5CFD383C28340815181840FD5
:100AD000951FC817D90759F488819981840F951FEC
:100AE0000296918380838A819B81938382832115DF
:100AF000310529F4F0936D02E0936C023DC0E901E9
:100B0000FB83EA8349915991C40FD51FEC17FD0768
:100B100061F480819181840F951F0296E901998388
:100B20008883828193819B838A83E0E0F0E0129640
:100B30008D919C911397009719F0FD01DC01F7CF7F
:100B40008D919C9111979D012E5F3F4F820F931FB6
:100B500020916A0230916B022817390769F43097A7
:100B600029F410926D0210926C0202C0138212825C
:100B7000B0936B02A0936A02DF91CF910895FC01BC
:100B800088279927E89421912032E9F3293010F041
:100B90002E30C8F32B3241F02D3239F4689404C062
:100BA0000E94FC05820F911D219120532A30C0F331
:100BB0001EF4909581959F4F0895FB01DC018D9166
:100BC000019080190110D9F3990B08954532510510
:100BD00020F4423010F00C94F105FB011082CB019F
:100BE0000895BB274A3031F4992322F4BDE2909551
:100BF00081959F4F0C9405067AE0979F902D879FD3
:100C0000802D910D11240895BB27FB015527AA279C
:100C1000880F991FAA1FA41710F0A41B8395505189
:100C2000B9F7A05DAA3308F0A95DA193009779F701
:100C3000B111B1931192CB010C941E06DC01FC01A1
:100C4000672F71917723E1F7329704C07C916D9300
:100C500070836291AE17BF07C8F30895F894FFCF71
:100C600000006E0220004D79206E6577206E616D68
:100C7000652069733A20004368616E6E656C206E72
:100C8000616D6520646F6E277420657869737400E8
:100C900046756E6374696F6E206E6F74207965742B
:100CA00020696D706C656D656E7465640A006469B9
:100CB0006F62656C6C6F6573696D70617469636F89
:0A0CC0000A007377697463685F002F
:00000001FF
