:100000000C94A2000C94C3000C94C3000C94C30085
:100010000C94C3000C94C3000C94C3000C94C30054
:100020000C94C3000C94C3000C94C3000C94C30044
:100030000C94C3000C94C3000C94C3000C94C30034
:100040000C94C3000C94C3000C94C3000C94C30024
:100050000C94C3000C94C3000C94C3000C94C30014
:100060000C94C3000C94C3000C94C3000C94C30004
:100070000C94C3000C94C3000C94C3000C94C300F4
:100080000C94C3000C94C3000C94C3000C94C300E4
:100090000C94C3000C94C3000C94C3000C94C300D4
:1000A0000C94C3000C94C3000C94C3000C94C300C4
:1000B0000C94C3000C94C3000C94C3000C94C300B4
:1000C0000C94C3000C94C3000C94C3000C94C300A4
:1000D0000C94C3000C94C3000C94C3000C94C30094
:1000E0000C94C300B201B701BC01BF01C401C90136
:1000F000CE01AD0191011010FD0F07100010320F5D
:100100000E1017100C940E100C94C4010C94B20134
:100110000C94320F0C9491010C94AD010C941010BE
:100120000C94B7010C9407100C94BC010C94C901F9
:100130000C94FD0F0C94BF010C9400100C9417103C
:100140000C94CE0111241FBECFEFD1E2DEBFCDBF94
:1001500000E00CBF13E0A0E0B2E0E0E3F7E200E073
:100160000BBF02C007900D92A233B107D9F726E06A
:10017000A2E3B3E001C01D92A633B207E1F70E94EB
:1001800021080C9496130C9400001092C50082E391
:100190008093C40086E08093C20088E98093C10008
:1001A00008959091C00095FFFCCF8093C6000895FC
:1001B0009091C00095FFFCCF08958091C00087FF0B
:1001C000FCCF8091C6000895FC019091C00097FF7C
:1001D000FCCF9091C6009193992329F09A3011F0A9
:1001E0009D3099F711929E2F981B892F0895FC013D
:1001F0002081222351F031969091C00095FFFCCFD1
:100200002093C60021912111F7CF089584B5836A08
:1002100084BDE0E8F0E08081836A8083E0EBF0E079
:100220008081836A8083E0E9F0E08081836A808353
:10023000E0EAF0E08081836A808385B5816085BDD6
:10024000E1E8F0E0808181608083E1EBF0E0808193
:1002500081608083E1E9F0E0808181608083E1EA70
:10026000F0E0808181608083269A259A249A9D9A65
:10027000E1E0F1E08081806180838081886080831B
:100280006B9A6C9A10928B0010928A0010928900DF
:10029000109288001092B3001092AB001092AA0046
:1002A0001092A9001092A800109299001092980044
:1002B00018BC10929B0010929A000895EAE7F0E0B3
:1002C0008081846080838081806880838081806871
:1002D000808310BA8FEF81BB80937E0080E480938F
:1002E0007C008081806480830895806480937C009A
:1002F00080917A00806480937A0080917A008439BA
:10030000E1F78091780090917900992708958930DC
:10031000910510F5FC018827EE58FF4F8F4F0C9484
:10032000591268BD7093A9006093A8007093AB0048
:100330006093AA006093B300709389006093880073
:1003400070938B0060938A0070939900609398007B
:1003500070939B0060939A00089570939B00609344
:100360009A00089570938B0060938A0008957093AB
:1003700089006093880008956093B3000895709396
:10038000AB006093AA0008957093A9006093A80041
:1003900008957093990060939800089568BD08953A
:1003A0002F923F924F925F926F927F928F929F9285
:1003B000AF92BF92CF92DF92EF92FF920F931F9373
:1003C000CF93DF93CDB7DEB7CC52D1400FB6F894C0
:1003D000DEBF0FBECDBF5C01CB5DDE4F798368838E
:1003E000C552D1401A01E2E3F4E0DE011196919189
:1003F0008091C00085FFFCCF9D9325E0E233F2079A
:10040000B1F78B80912C30E3831A910858E0851660
:10041000910430F1E7E0F2E093E48091C00085FFC1
:10042000FCCF9093C60091919111F7CFC45DDE4F40
:100430000FB6F894DEBF0FBECDBFDF91CF911F91F5
:100440000F91FF90EF90DF90CF90BF90AF909F9073
:100450008F907F906F905F904F903F902F90089576
:100460008E010F5E1E4F80E1D801E82F1D92EA95A4
:10047000E9F79E012F5F3E4FC55DDE4F398328832C
:10048000CB52D140D9011D928A95E9F78C818A32ED
:1004900009F459C5F80180838D818A3209F4F9C4C1
:1004A00081838E818A3209F4F7C482838F818A32F4
:1004B00009F4F5C4838388858A3209F4F3C48483FC
:1004C00089858A3209F4F1C485838A858A3209F4E0
:1004D000EFC486838B858A3209F4EDC487838C85CB
:1004E0008A3209F4EBC480878D858A3209F4E9C425
:1004F00081878E858A3209F4E7C482878F858A32A4
:1005000009F4E5C4838788898A3209F4E3C48487BF
:1005100089898A3209F4E1C485878A898A3209F493
:10052000DFC486878B898A3209F4DDC4878780E13E
:1005300090E00496A1E0B0E0AC0FBD1FA80FB91F7A
:100540002C91222309F4D2C4CF5FDE4F2883C150FF
:10055000D140DE01A80FB91F12962C91222309F475
:10056000C8C4CE5FDE4F2883C250D140DE01A80F41
:10057000B91F13962C91222309F4BEC4CD5FDE4F20
:100580002883C350D140DE01A80FB91F14962C91C7
:10059000222309F4B4C4CC5FDE4F2883C450D14079
:1005A000DE01A80FB91F15962C91222309F4AAC4C5
:1005B000CB5FDE4F2883C550D140DE01A80FB91FA5
:1005C00016962C91222309F4A0C4CA5FDE4F28831B
:1005D000C650D140DE01A80FB91F17962C912223D7
:1005E00009F496C4C95FDE4F2883C750D140DE01AD
:1005F000A80FB91F18962C91222309F48CC4C85F48
:10060000DE4F2883C850D140DE01A80FB91F1996CC
:100610002C91222309F482C4C75FDE4F2883C9507E
:10062000D140DE01A80FB91F1A962C91222309F49C
:1006300078C4C65FDE4F2883CA50D140DE01A80FC0
:10064000B91F1B962C91222309F46EC4C55FDE4F9F
:100650002883CB50D140DE01A80FB91F1C962C91E6
:10066000222309F464C4C45FDE4F2883CC50D140F8
:10067000DE01A80FB91F1D962C91222309F45AC43C
:10068000C35FDE4F2883CD50D140DE01A80FB91FD4
:100690001E962C91222309F450C4C25FDE4F28839A
:1006A000CE50D140DE01A80FB91F1F962C912223F6
:1006B00009F446C4C15FDE4F2883CF50D140DE012C
:1006C000A80FB91F50968C91882309F43FC4C05FCE
:1006D000DE4F8883C051D14060E170E0D8018C9139
:1006E000882309F48DC09091320589137CC0F801EC
:1006F0008181882309F4C2C190913305891373C0A5
:100700008281882309F4B5C19091340589136BC0A7
:10071000F8018381882309F4A7C1909135058913D5
:1007200062C08481882309F49AC1909136058913A7
:100730005AC0F8018581882309F48CC1909137054E
:10074000891351C08681882309F47FC190913805AF
:10075000891349C0F8018781882309F471C19091F8
:100760003905891340C08085882309F464C19091BC
:100770003A05891338C0F8018185882309F492C1AC
:1007800090913B0589132FC08285882309F485C188
:1007900090913C05891327C0F8018385882309F4CB
:1007A00077C190913D0589131EC08485882309F483
:1007B0006AC190913E05891316C0F801858588238A
:1007C00009F47AC190913F0589130DC0868588236D
:1007D00009F46DC190914005891305C0F801878522
:1007E000882309F423C1EBE1F2E094E58091C00095
:1007F00085FFFCCF9093C60091919111F7CF16CE53
:10080000809132058111EFCFCF5FDE4F5880C1500C
:10081000D140CE5FDE4FF881C250D140CF5DDE4F78
:10082000F883C152D140CD5FDE4F2881C350D14003
:10083000CE5DDE4F2883C252D140CC5FDE4F38817F
:10084000C450D140CD5DDE4F3883C352D140CB5F21
:10085000DE4F5881C550D140CC5DDE4F5883C45225
:10086000D140D501350182E1680E711CC95DDE4FB2
:1008700079836883C752D140752DC75DDE4F1983D8
:100880000883C952D140CF5DDE4F9881C152D1401B
:100890009F3409F445C17E3409F473C141E051E04D
:1008A0004C0F5D1F4F5F5F4F472E20E030E0C12CA3
:1008B000D12C172F442009F417C18D919C911197C9
:1008C000BC01620F731FFB016081662309F40CC138
:1008D000641509F4F6C0712F1296A615B70599F69E
:1008E000572EC95DDE4F68817981C752D140C75DFF
:1008F000DE4F08811981C952D140C401880F991F68
:10090000A80EB91E6115710509F0ADC1D501ED91B3
:10091000FC911082D501ED91FC911182D501ED91F0
:10092000FC911282D501ED91FC911382D501ED91DC
:10093000FC911482D501ED91FC911582D501ED91C8
:10094000FC911682D501ED91FC911782D501ED91B4
:10095000FC911086D501ED91FC911186D501ED91A8
:10096000FC911286D501ED91FC911386D501ED9194
:10097000FC911486D501ED91FC911586D501ED9180
:10098000FC911686D501ED91FC9117862A942328B7
:1009900009F443C2F8019081992359F0F801319686
:1009A0008091C00085FFFCCF9093C600919191117A
:1009B000F7CFE8E7F2E090E28091C00085FFFCCF3E
:1009C0009093C60091919111F7CF80E3880D90919B
:1009D000C00095FFFCCF8093C600E6E8F2E090E20D
:1009E0008091C00085FFFCCF9093C600919191113A
:1009F000F7CFD501ED91FC919081992351F031967B
:100A00008091C00085FFFCCF9093C6009191911119
:100A1000F7CFE8E5F2E09AE08091C00085FFFCCFD7
:100A20009093C60091919111F7CF00CD809141052F
:100A30008111D9CEE9CE80913A058111D4CEE4CE90
:100A4000809139058111CFCEDFCE8091380581119B
:100A5000CACEDACE809137058111C5CED5CE809130
:100A600036058111C0CED0CE809135058111BBCE27
:100A7000CBCE809134058111B6CEC6CE80913305A0
:100A80008111B1CEC1CE80913E058111ACCEBCCEDC
:100A900080913D058111A7CEB7CE80913C05811193
:100AA000A2CEB2CE80913B0581119DCEADCE80917C
:100AB0004005811198CEA8CE80913F05811193CE3B
:100AC000A3CE2F5F3F4FFA014190AF01442071F058
:100AD000820F931FFC018081882309F4FCCECC2473
:100AE000C394D12C4110E9CE712F0AC0712F820F0F
:100AF000931FFC0180818111EFCECC24C394D12CB3
:100B0000CD2809F4E9CEEBE5F2E093E48091C00052
:100B100085FFFCCF9093C60091919111F7CF86CCC1
:100B20007E3409F45FC0EE24E394FE2CEC0EFD1E2F
:100B3000FFEFEF1AFF0A472E80E090E0C12CD12C86
:100B40004420F1F22D913C911197A901480F591FB2
:100B5000FA0140814423A1F24411BECE0196F7016F
:100B600041907F01442019F2280F391FF90120819B
:100B7000222309F4B1CECC24C394D12C4110E2CF6E
:100B8000BFCFEE24E394FE2CEC0EFD1EFFEFEF1A18
:100B9000FF0A1EE480E090E0C12CD12C112309F45F
:100BA000AFCF2D913C911197A901480F591FFA0120
:100BB0004081442309F4A4CF41138ECE0196F7015E
:100BC00011917F01112309F492CF280F391FF901E8
:100BD0002081222309F480CECC24C394D12C11117E
:100BE000E0CF8ECFCC5DDE4FE881C452D140EE2302
:100BF00009F4AFC1CE5DDE4FF881C252D140EE2480
:100C0000E394FE2CEC0EFD1EFE3409F417C12FEF09
:100C1000E21AF20A1EE480E090E0C12CD12C1123EC
:100C200009F46ECF2D913C911197A901480F591FDE
:100C3000FA014081442309F463CF41134DCE01965C
:100C4000F70111917F01112309F451CF280F391FAA
:100C5000F9012081222309F43FCECC24C394D12C66
:100C60001111E0CF4DCFF501A081B1815C926230CE
:100C700071050CF44FCEF501A081B181CF5DDE4F3F
:100C8000F881C152D1401196FC93633071050CF488
:100C900045CEF501A081B181CE5DDE4FF881C25213
:100CA000D1401296FC93643071050CF43BCEF501F3
:100CB000A081B181CD5DDE4FF881C352D140139642
:100CC000FC93653071050CF431CEF501A081B18142
:100CD000CC5DDE4FF881C452D1401496FC9366304F
:100CE00071050CF427CEF501A081B181CA5FDE4FFA
:100CF0002881C650D14015962C93673071050CF4AD
:100D00001DCEF501A081B181C95FDE4F2881C7509A
:100D1000D14016962C93683071050CF413CEF50172
:100D2000A081B181C85FDE4F2881C850D14017969D
:100D30002C93693071050CF409CEF501A081B181C5
:100D4000C75FDE4F2881C950D14018962C936A3076
:100D500071050CF4FFCDF501A081B181C65FDE4FB6
:100D60002881CA50D14019962C936B3071050CF430
:100D7000F5CDF501A081B181C55FDE4F2881CB5053
:100D8000D1401A962C936C3071050CF4EBCDF50123
:100D9000A081B181C45FDE4F2881CC50D1401B9629
:100DA0002C936D3071050CF4E1CDF501A081B1817A
:100DB000C35FDE4F2881CD50D1401C962C936E30FE
:100DC00071050CF4D7CDF501A081B181C25FDE4F72
:100DD0002881CE50D1401D962C936F3071050CF4B4
:100DE000CDCDF501A081B181C15FDE4F2881CF500B
:100DF000D1401E962C936031710509F0C3CDF501E9
:100E0000A081B181C05FDE4F2881C051D1401F96C3
:100E10002C932A94232809F0BDCDCB5DDE4F288189
:100E20003981C552D140F901E80FF91F11821082B2
:100E300060E070E0C4010E948701ACCDFFEFEF1AC3
:100E4000FF0A1EE480E090E0C12CD12C11C0019675
:100E5000F70111917F01112309F449CE280F391FA1
:100E6000F9012081222309F437CDCC24C394D12C5D
:100E7000112309F445CE2D913C911197A901480FFA
:100E8000591FFA014081442309F43ACE411324CD7D
:100E9000DECF81E090E04DCB82E090E04ACB83E072
:100EA00090E047CB84E090E044CB85E090E041CBFC
:100EB00086E090E03ECB87E090E03BCB88E090E09E
:100EC00038CB89E090E035CB8AE090E032CB8BE004
:100ED00090E02FCB8CE090E02CCB8DE090E029CB04
:100EE0008EE090E026CB8FE090E023CB60E070E0D6
:100EF000F5CB61E070E0F2CB62E070E0EFCB63E055
:100F000070E0ECCB64E070E0E9CB65E070E0E6CB4C
:100F100066E070E0E3CB67E070E0E0CB68E070E0B3
:100F2000DDCB69E070E0DACB6AE070E0D7CB6BE054
:100F300070E0D4CB6CE070E0D1CB6DE070E0CECB54
:100F40006EE070E0CBCB84E090E0F4CA6FE070E03C
:100F5000C5CBCD5DDE4FF881C352D140EE24E39482
:100F6000FE2CEC0EFD1EF53451F13FEFE31AF30AAF
:100F70001EE480E090E0C12CD12C112309F4C0CDF7
:100F80002D913C911197A901480F591FFA014081F9
:100F9000442309F4B5CD41139FCC0196F70111917B
:100FA0007F01112309F4A3CD280F391FF9012081F6
:100FB000222309F491CCCC24C394D12CDECF2FEF83
:100FC000E21AF20A1EE480E090E0C12CD12C2D013F
:100FD000D201112309F494CD2D913C911197A901CF
:100FE000480F591FFA014081442309F489CDCE5D91
:100FF000DE4FF881C252D140FE3421F0411779F022
:10100000D2016ACCEFE2F2E099E58091C00085FF61
:10101000FCCF9093C60091919111F7CF07CA01962A
:10102000F70111917F01112351F0280F391FD901C8
:101030002C91222329F3CC24C394D12CC9CFD201E3
:1010400056CDCF93DF93CDB7DEB7CB52D1400FB69D
:10105000F894DEBF0FBECDBF0E9406010E945E0164
:101060001092C50082E38093C40086E08093C200A2
:1010700088E98093C10082E190E00E9475123C01F2
:1010800082E190E00E9475121C01630122E1C20E10
:10109000D11C7C01830180E190E00E947512D8018F
:1010A0008D939D938D0180E190E00E947512F70170
:1010B000819391937F010C151D0569F7D101BE0144
:1010C0006F5F7E4F29E030E08EE44FE495E47301DA
:1010D000FB0111921192BF01F70100811181F8010A
:1010E0008083F70100811181F8014183F7010081BC
:1010F0001181F8018283F70100811181F801938346
:101100000D911C911197F80180830D911C911197FD
:10111000F80141830D911C911197F80182830D9183
:101120001C911197F8019383F70100811181F80157
:1011300014820D911C911197F8011482F70100811E
:101140001181F80115820D911C911197F8011582FA
:10115000F70100811181F80116820D911C91119700
:10116000F8011682F70100811181F80117820D91B3
:101170001C911197F8011782F70100811181F80184
:1011800010860D911C911197F8011086F7010081CE
:101190001181F80111860D911C911197F8011186AA
:1011A000F70100811181F80112860D911C911197B0
:1011B000F8011286F70100811181F80113860D9163
:1011C0001C911197F8011386F70100811181F80134
:1011D00014860D911C911197F8011486F701008176
:1011E0001181F80115860D911C911197F801158652
:1011F000F70100811181F80116860D911C9111975C
:10120000F8011686F701019111917F01F801178607
:101210000D911D91F80117862150310909F058CF21
:10122000D3015096ED91FC91519791E490835096A3
:10123000ED91FC9151978CE481835096ED91FC9156
:10124000519782835096ED91FC9151971382D10171
:101250005096ED91FC91519790835096ED91FC91B1
:10126000519781835096ED91FC91519782835096CE
:10127000ED91FC9151971382E2E3F5E080E091E07B
:10128000DF019C011D9221503040E1F782E394E0A0
:10129000CC5DDE4F99838883C452D140CA5DDE4F56
:1012A00039822882C652D140DC01E0E0F1E01D9293
:1012B0003197E9F7A2E3B3E0E0E0F1E01D92319766
:1012C000E9F7FFEF27EA31E6F15020403040E1F73F
:1012D00000C00000E2E3F4E08091C00087FFFCCF93
:1012E0008091C6008193882329F08A3011F08D30D7
:1012F00099F7108202E314E0A2E3B3E0CC5DDE4F85
:1013000019830883C452D140F80191918091C000A3
:1013100085FFFCCF9D9395E0E233F907B1F780910B
:1013200032038033E1F0E4E1F3E096E48091C00021
:1013300085FFFCCF9093C60091919111F7CF2FEFCD
:1013400039E658E1215030405040E1F700C000003C
:10135000CC5DDE4FA881B981C452D140A6CF909018
:101360003303A0E39A1689F1B1E39B1609F49DC7F4
:10137000E2E39E1609F417C293E3991609F44DC1EE
:1013800084E3981611F40C94D511A5E39A1609F488
:1013900092C0A6E39A1609F47EC0E7E39E1609F40C
:1013A0006DC0E8E39E1609F45CC029E39212C7CF32
:1013B000E4E1F3E096E48091C00085FFFCCF9093D8
:1013C000C60091919111F7CFBACF9E012F5F3F4F89
:1013D00042E355E0E2E3F4E0BA0191918091C0006C
:1013E00085FFFCCFD9019D939D01DB011D92BD01BD
:1013F000B5E0E233FB0789F78B81882341F0FE01DA
:101400003496DA018D93AD0181918111FACFE4E830
:10141000F2E09DE48091C00085FFFCCF9093C60070
:1014200091919111F7CF90913205992359F0E3E30F
:10143000F5E08091C00085FFFCCF9093C6009191AC
:101440009111F7CFE8E5F2E09AE08091C00085FFC6
:10145000FCCF9093C60091919111F7CFE8E39E12D3
:10146000A4CFE4E1F3E096E48091C00085FFFCCFD7
:101470009093C60091919111F7CF61CFE4E1F3E031
:1014800096E48091C00085FFFCCF9093C6009191B7
:101490009111F7CF54CFE4E1F3E096E48091C000DE
:1014A00085FFFCCF9093C60091919111F7CFF9E39E
:1014B0009F1245CF7DCFECEDF2E094E48091C00027
:1014C00085FFFCCF9093C60091919111F7CF909139
:1014D0003205992359F0E3E3F5E08091C00085FFE0
:1014E000FCCF9093C60091919111F7CFCA5DDE4F6A
:1014F000E881F981C652D14040E00CE916EFA7E03F
:10150000B3E09AE08091C00085FFFCCF9093C600C5
:101510009D919111F7CF90E3940F8091C00085FFCA
:10152000FCCF9093C600AAEEB2E090E28091C0009A
:1015300085FFFCCF9093C6009D919111F7CFA191AB
:10154000B1919C91992351F011968091C00085FF33
:10155000FCCF9093C6009D919111F7CFA2EFB2E01E
:1015600099E08091C00085FFFCCF9093C6009D91CB
:101570009111F7CF842F806480937C0080917A0052
:10158000806480937A0080917A008439E1F7209119
:101590007800309179003327C90164E670E00E9439
:1015A0004512DB01D0968091C00085FFFCCFA0934F
:1015B000C6000603C001079F900D1124280F391F94
:1015C000C9016AE070E00E944512DB01D09680916B
:1015D000C00085FFFCCFA093C6001603C001179F73
:1015E000900D1124280F391F205D3F4F8091C000BE
:1015F00085FFFCCF2093C6004F5F483009F07FCFB6
:10160000E8E5F2E09AE08091C00085FFFCCF90937E
:10161000C60091919111F7CFC4CEE0903403EE2033
:1016200009F491C5F0903503FF2009F449C60091F3
:101630003603002309F46BC610913703112309F414
:1016400059C6B0913803BB2309F46FC6A091390382
:10165000AA2309F444C6F0913A03FF2309F49BC678
:10166000E0913B03EE2309F48DC670913C03772390
:1016700009F480C660913D03662309F474C6509155
:101680003E03552309F469C640913F03442309F4FE
:101690005FC630914003332309F456C620914103BD
:1016A000222309F44EC680914203882309F448C5D9
:1016B00090914303EE2009F446C5D0903205DE1028
:1016C00065C0FF2009F4DCC6E0903305EF105EC072
:1016D000002309F4D0C6F0903405F01257C011234E
:1016E00009F4C4C600913505101350C0BB2309F49A
:1016F000B8C6109136051B1349C0AA2309F4ACC61D
:10170000B0913705BA1342C0FF2309F4A0C6A091D7
:101710003805FA133BC0EE2309F494C6F09139055D
:10172000EF1334C0772309F488C6E0913A05E71334
:101730002DC0662309F47CC670913B05671326C053
:10174000552309F470C660913C0565131FC04423FE
:1017500009F464C650913D05541318C0332309F4AD
:1017600058C640913E05431311C0222309F44CC6CC
:1017700030913F0523130AC0882309F440C6209105
:101780004005821303C0992309F434C6EBE1F2E06B
:1017900084E59091C00095FFFCCF8093C6008191B5
:1017A0008111F7CFF6CDCD5EDE4F1882C351D14007
:1017B000CC5EDE4F1882C451D140CB5EDE4F188222
:1017C000C551D140CA5EDE4F1882C651D140C95EB4
:1017D000DE4F1882C751D140C85EDE4F1882C85113
:1017E000D140C75EDE4F1882C951D140C65EDE4F80
:1017F0001882CA51D140C55EDE4F1882CB51D1400C
:10180000C45EDE4F1882CC51D140C35EDE4F1882D9
:10181000CD51D140C25EDE4F1882CE51D140C15E63
:10182000DE4F1882CF51D140C05EDE4F1882C052C9
:10183000D140CF5DDE4F1882C152D140CE5DDE4F28
:101840001882C252D140FE013196D8019D918D017E
:101850008091C00085FFFCCF9193B5E002331B0758
:10186000A1F73E80332009F42BC4EB81CD5DDE4F20
:10187000E883C352D140CD5EDE4FE883C351D140EF
:101880002F81222309F411C42C80CC5EDE4F2882E4
:10189000C451D1408884882009F4FEC3ED80CB5E1A
:1018A000DE4FE882C551D1409985992309F4EBC3F5
:1018B000CA5EDE4F3882C651D1408A85882309F43A
:1018C000DAC3C95EDE4F2883C751D1403B8533233D
:1018D00009F4C9C3C85EDE4F8882C851D1402C8547
:1018E000222309F4B9C3C75EDE4F9883C951D140A2
:1018F0009D85992309F4A9C3C65EDE4F8883CA512A
:10190000D1408E85882309F4FFC3C55EDE4F38833E
:10191000CB51D1403F85332309F4EFC3C45EDE4F82
:101920002883CC51D1402889222309F4DFC3C35E28
:10193000DE4F9883CD51D1409989992309F4CFC3C3
:10194000C25EDE4F8883CE51D1408A89882309F454
:10195000E9C3C15EDE4F3883CF51D1403B89332389
:1019600009F4D9C3C05EDE4F2883C052D1402C8910
:10197000222309F4DEC3CF5DDE4F9883C152D140EC
:101980009D89992309F45AC3CE5DDE4F8883C252E4
:10199000D14064E170E0A3E1B0E002E110E0CD5E8F
:1019A000DE4F5880C351D1406301A12CB12C81E09E
:1019B00090E0C85DDE4F79836883C852D140732DB3
:1019C0005FE4251609F453C1CD5DDE4FF881C352A3
:1019D000D140FE3409F410C1E3E1F1E0EC0FFD1F4A
:1019E0003196452C20E030E0C65DDE4FF983E88378
:1019F000CA52D140F72E442009F441C0F60140817B
:101A00005181BA01620F731FFB0160816623B9F136
:101A10004616D1F07F2D80E090E0FFEFAF1ABF0AAD
:101A200022E0C20ED11C39E0A316B10449F6E5E963
:101A3000F2E083E49091C00095FFFCCF8093C60054
:101A400081918111F7CFA5CC2F5F3F4FC65DDE4F4F
:101A5000E881F981CA52D1404190C65DDE4FF983D9
:101A6000E883CA52D140442061F0420F531FFA016B
:101A70008081882379F281E090E04110BFCF7F2DF3
:101A800009C07F2DFA01E20FF31F80818111C3CFBE
:101A900081E090E08130910509F0BFCFC85DDE4F55
:101AA00068817981C852D14080E3F82EFA0CE1E0D8
:101AB000F0E0EC0FFD1FE00FF11F808190E0C09778
:101AC00044E6489F9001499F300D1124E1E0F0E089
:101AD000EC0FFD1FEA0FFB1F808190E0C097AC0167
:101AE000440F551F880F991F880F991F880F991F42
:101AF000840F951F280F391FE1E0F0E0EC0FFD1F68
:101B0000E60FF71F408150E040535109240F351F65
:101B1000F501EE0FFF1F81E091E08C0F9D1FE80F94
:101B2000F91F3183208398E0A916B10409F4D8C1C4
:101B3000F5013197E730F10508F458C030938B0078
:101B400020938A0090903303ECE7F2E093E78091D2
:101B5000C00085FFFCCF9093C60091919111F7CF03
:101B60008091C00085FFFCCFF092C600E3EDF2E06B
:101B700090E28091C00085FFFCCF9093C6009191C8
:101B80009111F7CFE1E0F0E0EC0FFD1FE00FF11F46
:101B900080819091C00095FFFCCF8093C60021E02A
:101BA00030E02C0F3D1FA20FB31F8C919091C0000D
:101BB00095FFFCCF8093C600E1E0F0E0EC0FFD1F45
:101BC000E60FF71F80819091C00095FFFCCF8093B6
:101BD000C600E8E5F2E09AE08091C00085FFFCCF06
:101BE0009093C60091919111F7CFC6CB8827E55805
:101BF000FF4F8F4F0C945912E3E1F1E0EC0FFD1F02
:101C00003196452C20E030E0F72EC65DDE4FF9839B
:101C1000E883CA52D140442009F431CFF601408113
:101C20005181BA01620F731FFB016081662309F4C1
:101C300026CF4612EFCE2F5F3F4FC65DDE4FE881C5
:101C4000F981CA52D1404190C65DDE4FF983E883E5
:101C5000CA52D140442009F414CF420F531FFA0155
:101C60008081882309F4D6CE81E090E0D4CFCD5D89
:101C7000DE4FE881C352D140EE34D9F1E3E1F1E027
:101C8000EC0FFD1F3196452C20E030E0C65DDE4FA5
:101C9000F983E883CA52D140F72E442009F4EFCEED
:101CA000F60140815181BA01620F731FFB0160810F
:101CB000662309F4E4CE4612ADCE2F5F3F4FC65DDA
:101CC000DE4FE881F981CA52D1404190C65DDE4FB6
:101CD000F983E883CA52D140442009F4D2CE420F9E
:101CE000531FFA018081882309F494CE81E090E0AB
:101CF000D4CF882009F479C0FEE4EF16D9F1E3E1EE
:101D0000F1E0EC0FFD1F3196452C20E030E0C65D80
:101D1000DE4FF983E883CA52D140F72E442009F4FC
:101D2000AECEF60140815181BA01620F731FFB01F3
:101D30006081662309F4A3CE46126CCE2F5F3F4F1D
:101D4000C65DDE4FE881F981CA52D1404190C65D3F
:101D5000DE4FF983E883CA52D140442009F491CE82
:101D6000420F531FFA018081882309F453CE81E08A
:101D700090E0D4CFE3E1F1E0EC0FFD1F3196452C6C
:101D800020E030E0C65DDE4FF983E883CA52D140DF
:101D9000F72E442009F473CEF60140815181BA0137
:101DA000620F731FFB016081662309F468CE46123F
:101DB00031CE2F5F3F4FC65DDE4FE881F981CA52B9
:101DC000D1404190C65DDE4FF983E883CA52D140CD
:101DD000442009F456CE420F531FFA018081882314
:101DE00009F418CE81E090E0D4CFE3E1F1E0EC0F0C
:101DF000FD1F3196452C20E030E07534D1F1F72EEF
:101E0000C65DDE4FF983E883CA52D140442009F40D
:101E100036CEF60140815181BA01620F731FFB017A
:101E20006081662309F42BCE4612F4CD2F5F3F4F1D
:101E3000C65DDE4FE881F981CA52D1404190C65D4E
:101E4000DE4FF983E883CA52D140442009F419CE09
:101E5000420F531FFA018081882309F4DBCD81E012
:101E600090E0D4CF30939900209398009090330362
:101E70006BCEC65DDE4FF983E883CA52D140F72EA0
:101E8000442009F4FCCDF60140815181BA01620F72
:101E9000731FFB016081662309F4F1CDFEE4EF16A8
:101EA00009F4B8CD6411B6CD2F5F3F4FC65DDE4F4C
:101EB000E881F981CA52D1404190C65DDE4FF98375
:101EC000E883CA52D140442009F4DBCD420F531FAE
:101ED000FA018081882309F49DCD81E090E0D0CF84
:101EE000CF5FDE4F39832883C150D140CD5FDE4FB5
:101EF00039832883C350D140CB5FDE4F3983288399
:101F0000C550D140C95FDE4F39832883C750D140C7
:101F1000C75FDE4F39832883C950D140C55FDE4F8C
:101F200039832883CB50D140C35FDE4F3983288368
:101F3000CD50D140C15FDE4F39832883CF50D1408F
:101F400028BD3093A9002093A8003093AB002093C4
:101F5000AA002093B3003093890020938800309327
:101F60008B0020938A00309399002093980030933F
:101F70009B0020939A00E2EBF2E081E49091C00094
:101F800095FFFCCF8093C60081918111F7CFE1E0EE
:101F9000F0E0EC0FFD1FE00FF11F80819091C00079
:101FA00095FFFCCF8093C60081E090E08C0F9D1FD1
:101FB000A80FB91F8C919091C00095FFFCCF809322
:101FC000C600E1E0F0E0EC0FFD1FE60FF71F808197
:101FD0009091C00095FFFCCF8093C600E8E5F2E049
:101FE0008AE09091C00095FFFCCF8093C60081915C
:101FF0008111F7CF90903303BFC92093B300A4CDD4
:102000003093A9002093A800909033039DCD309386
:10201000AB002093AA009090330396CD28BD94CDB9
:102020003093890020938800909033038DCD3093B6
:102030009B0020939A009090330386CD63E170E07B
:10204000A2E1B0E001E110E0AACC6BE070E0AAE010
:10205000B0E009E010E0A3CC6AE070E0A9E0B0E0F5
:1020600008E010E09CCC812C69E070E0A8E0B0E0D2
:1020700007E010E094CC812C68E070E0A7E0B0E0CD
:1020800006E010E08CCC812C312C67E070E0A6E0FB
:10209000B0E005E010E083CC312CE12C66E070E08C
:1020A000A5E0B0E004E010E07ACC812C312CE12CEA
:1020B000212C65E070E0A4E0B0E003E010E06FCC1C
:1020C000812CE12C212CCD5DDE4F1882C352D140F2
:1020D00064E070E0A3E0B0E002E010E060CC6FE00C
:1020E00070E0AEE0B0E00DE010E059CC6EE070E0E2
:1020F000ADE0B0E00CE010E052CC6DE070E0ACE0A0
:10210000B0E00BE010E04BCC6CE070E0ABE0B0E096
:102110000AE010E044CC61E170E0A0E1B0E00FE043
:1021200010E03DCC60E170E0AFE0B0E00EE010E028
:1021300036CC62E170E0A1E1B0E000E110E02FCC2C
:1021400090E0E110BACA8091320581111FCBECED0D
:10215000F2E094E48091C00085FFFCCF9093C6002C
:1021600091919111F7CF90913205992359F0E3E3C2
:10217000F5E08091C00085FFFCCF9093C60091915F
:102180009111F7CF8301FE01EF5FFE4F40E39CE921
:10219000C92E26EFD22EABEFB2E09AE08091C000BC
:1021A00085FFFCCF9093C6009D919111F7CF809150
:1021B000C00085FFFCCF4093C600AAEEB2E090E2DB
:1021C0008091C00085FFFCCF9093C6009D91911136
:1021D000F7CFD8012D913D918D01D9019C91992383
:1021E00059F0D90111968091C00085FFFCCF9093E2
:1021F000C6009D919111F7CFA2EFB2E099E08091D6
:10220000C00085FFFCCF9093C6009D919111F7CF40
:102210007F018081918164E670E00E9445129B01FC
:10222000205D3F4F8091C00085FFFCCF2093C6000A
:102230005C2D56039001579F300D112480819181B0
:10224000820F931F6AE070E00E944512DB01D09676
:102250008091C00085FFFCCFA093C6003296D701C5
:102260008D919C91280F391F5D2D5603C001579FFA
:10227000900D1124280F391F205D3F4F8091C00021
:1022800085FFFCCF2093C6004F5F483309F083CF12
:10229000E8E5F2E09AE08091C00085FFFCCF9093E2
:1022A000C60091919111F7CF74C841E050E0BE0192
:1022B0006F5F7E4FC3010E94D0019090330358C8D6
:1022C00090E080E020E030E040E050E060E070E04E
:1022D000E0E0F0E0A0E0B0E010E000E0EBC990E06A
:1022E00080E020E030E040E050E060E070E0E0E0DE
:1022F000F0E0E0C990E080E020E030E040E050E035
:1023000060E070E0E0E0F0E0A0E0B0E0D3C990E091
:1023100080E020E030E040E050E060E070E0E0E0AD
:10232000F0E0A0E0B0E010E0C5C990E080E020E07F
:1023300030E040E050E060E070E0E0E0F0E0A0E09D
:10234000B9C990E080E0B6C990E080E020E0B2C971
:1023500090E080E020E030E0ADC990E080E020E057
:1023600030E040E0A7C990E080E020E030E040E0CD
:1023700050E0A0C990E080E020E030E040E050E094
:1023800060E098C990E080E020E030E040E050E07C
:1023900060E070E08FC990E080E020E030E040E055
:1023A00050E060E070E0E0E085C940E050E0BE0150
:1023B0006F5F7E4FCA5DDE4F88819981C652D140E2
:1023C0000E94D0019090330395E3991609F473C8E5
:1023D000B6E39B1609F45FC8B7E39B1609F44EC831
:1023E000F8E39F1609F43DC8F9E39F120C949F0986
:1023F0000C94D809809141058111C8C9A8CE80915B
:1024000040058111C3C9A3CE80913F058111BEC98A
:102410009ECE80913E058111B9C999CE80913D052E
:102420008111B4C994CE80913C058111AFC98FCE82
:1024300080913B058111AAC98ACE80913A0581110C
:10244000A5C985CE809139058111A0C980CE809122
:10245000380581119BC97BCE80913705811196C9C2
:1024600076CE80913605811191C971CE8091350566
:1024700081118CC96CCE80913405811187C967CEDA
:1024800080913305811182C962CE97FB072E16F425
:10249000009407D077FD09D00E94611207FC05D097
:1024A0003EF4909581959F4F0895709561957F4F6B
:1024B0000895EE0FFF1F881F8BBF0790F691E02D48
:1024C0001994AA1BBB1B51E107C0AA1FBB1FA6176B
:1024D000B70710F0A61BB70B881F991F5A95A9F7CD
:1024E00080959095BC01CD0108950F931F93CF93D4
:1024F000DF938230910510F482E090E0E0913406A1
:10250000F091350620E030E0A0E0B0E0309719F11E
:10251000408151810281138148175907C8F08417FF
:10252000950769F4109731F012960C931297139651
:102530001C9327C0009334061093350622C0211542
:10254000310519F04217530718F49A01BD01EF0144
:10255000DF01F801DBCF21153105F9F0281B390B1C
:102560002430310580F48A819B816115710521F049
:10257000FB019383828304C09093350680933406D5
:10258000FE01329644C0FE01E20FF31F8193919346
:1025900022503109398328833AC020913206309184
:1025A0003306232B41F42091020230910302309331
:1025B000330620933206209100023091010221154A
:1025C000310541F42DB73EB7409104025091050208
:1025D000241B350BE0913206F0913306E217F30726
:1025E000A0F42E1B3F0B2817390778F0AC014E5F83
:1025F0005F4F2417350748F04E0F5F1F5093330687
:10260000409332068193919302C0E0E0F0E0CF0165
:10261000DF91CF911F910F910895CF93DF93009792
:1026200009F481C0FC01329713821282A091340612
:10263000B0913506109781F420813181820F931F6C
:1026400020913206309133062817390751F5F0935F
:102650003306E093320667C0ED0120E030E0CE178C
:10266000DF0740F44A815B819E0141155105F1F07D
:10267000EA01F5CFD383C28340815181840F951F36
:10268000C817D90759F488819981840F951F02963C
:10269000918380838A819B81938382832115310575
:1026A00029F4F0933506E09334063DC0E901FB833D
:1026B000EA8349915991C40FD51FEC17FD0761F4C6
:1026C00080819181840F951F0296E9019983888307
:1026D000828193819B838A83E0E0F0E012968D9162
:1026E0009C911397009719F0FD01DC01F7CF8D91B4
:1026F0009C9111979D012E5F3F4F820F931F209158
:102700003206309133062817390769F4309729F4D7
:10271000109235061092340602C013821282B093D2
:102720003306A0933206DF91CF910895F894FFCF3E
:102730000000360620004368616E6E656C206E6F87
:10274000742076616C69640A0D00546861277320F7
:102750006E6F74206D79206E616D650A0D00596F82
:1027600075207368616C6C204E4F4E45207061730C
:102770007321284E4F4E45203D20696E76616C696D
:1027800064206E616D65290A0D004368616E6E6597
:102790006C206E616D6520616C7265616479206585
:1027A000786973740A0D00202D3E20737769746375
:1027B000685F004D79206E6577206E616D652069D8
:1027C000733A20004368616E6E656C206E616D65C2
:1027D00020646F65736E27742065786973740A0DC1
:1027E00000414C4C206368616E6E656C73206172B1
:1027F00065206E6F772073657474656420746F3A1A
:1028000020002076616C75653A2000446576696326
:1028100065206E616D653A2000204E616D653A203D
:10282000000976616C75653A20000A50574D537760
:10283000697463685F000A4144435377697463684D
:102840005F200046756E6374696F6E206E6F742032
:1028500079657420696D706C656D656E7465640A68
:022860000D0069
:00000001FF
