:100000000C9472000C9493000C9493000C94930045
:100010000C9493000C9493000C9493000C94930014
:100020000C9493000C9493000C9493000C94930004
:100030000C9493000C9493000C9493000C949300F4
:100040000C9493000C9493000C9493000C949300E4
:100050000C9493000C9493000C9493000C949300D4
:100060000C9493000C9493000C9493000C949300C4
:100070000C9493000C9493000C9493000C949300B4
:100080000C9493000C9493000C9493000C949300A4
:100090000C9493000C9493000C9493000C94930094
:1000A0000C9493000C9493000C9493000C94930084
:1000B0000C9493000C9493000C9493000C94930074
:1000C0000C9493000C9493000C9493000C94930064
:1000D0000C9493000C9493000C9493000C94930054
:1000E0000C94930011241FBECFEFD1E2DEBFCDBF31
:1000F00000E00CBF12E0A0E0B2E0EAE4FFE100E0C3
:100100000BBF02C007900D92A43FB107D9F722E0C0
:10011000A4EFB2E001C01D92A83FB207E1F70E9430
:10012000DE000C94A30F0C9400001092C50082E333
:100130008093C40086E08093C20088E98093C10068
:1001400008959091C00095FFFCCF8093C60008955C
:100150009091C00095FFFCCF08958091C00087FF6B
:10016000FCCF8091C6000895FC019091C00097FFDC
:10017000FCCF9091C6009193992329F09A3011F009
:100180009D3099F711929E2F981B892F0895FC019D
:100190002081222351F031969091C00095FFFCCF31
:1001A0002093C60021912111F7CF089584B583686B
:1001B00084BD85B5816085BD279A08952F923F92B1
:1001C0004F925F926F927F928F929F92AF92BF9267
:1001D000CF92DF92EF92FF920F931F93CF93DF9313
:1001E000CDB7DEB7CB54D4400FB6F894DEBF0FBE08
:1001F000CDBF84B5836884BD85B5816085BD279AF0
:100200001092C50082E38093C40086E08093C20010
:1002100088E98093C10017BC80E190E00E94820EC3
:10022000CB5CDB4F99838883C553D4404096C05C38
:10023000DB4F99838883C054D440CB5CDB4F08816B
:100240001981C553D44080E190E00E94820ED8010C
:100250008D939D938D01C05CDB4FE881F981C05483
:10026000D440EA17FB0779F79E012F5D3B4FCF5C27
:10027000DB4F39832883C153D44080E1F9011192C7
:100280008A95E9F7CB5CDB4FA881B981C553D4408F
:10029000ED91FC9111978EE480832FE4218382837A
:1002A00095E4938314821582168217821086118634
:1002B0001286138614861586168617861296ED9179
:1002C000FC91139780832183828393831482158208
:1002D000168217821086118612861386148615865A
:1002E000168617861496ED91FC91159780832183CD
:1002F0008283938314821582168217821086118658
:100300001286138614861586168617861696ED9124
:10031000FC911797808321838283938314821582B3
:100320001682178210861186128613861486158609
:10033000168617861896ED91FC9119978083218374
:100340008283938314821582168217821086118607
:100350001286138614861586168617861A96ED91D0
:10036000FC911B978083218382839383148215825F
:1003700016821782108611861286138614861586B9
:10038000168617861C96ED91FC911D97808321831C
:1003900082839383148215821682178210861186B7
:1003A0001286138614861586168617861E96ED917C
:1003B000FC911F978083218382839383148215820B
:1003C0001682178210861186128613861486158669
:1003D000168617862E01B1E04B0E5B1E80E091E081
:1003E000F2019C01119221503040E1F7AE014F5FC4
:1003F0005C4FCD5CDB4F59834883C353D440CE015F
:100400008F5F9D4F3C01DE01AF5FBB4F1D01FA01C5
:1004100020E031E0119221503040E1F7D301E0E0DB
:10042000F1E01D923197E9F7FFEF27EA31E6F1504D
:1004300020403040E1F700C00000FE01EF5FFC4FBC
:100440008091C00087FFFCCF8091C60081938823F4
:1004500029F08A3011F08D3099F71082AE014F5F8C
:100460005C4FCA5BDB4F59834883C654D440D301E9
:10047000FA0191918091C00085FFFCCF9D93E21518
:10048000F305B9F7D3018C918033B1F1882309F4D6
:100490004CC6E0EEF2E094E68091C00085FFFCCF10
:1004A0009093C60091919111F7CFD3019C918091C7
:1004B000C00085FFFCCF9093C600F301918180912D
:1004C000C00085FFFCCF9093C6008091C00085FFDF
:1004D000FCCF8AE08093C600FFEF29E638E1F150B7
:1004E00020403040E1F700C00000CD5CDB4FE881E8
:1004F000F981C353D4408CCF11968C91803309F489
:10050000EDC2813309F432C3823309F453C183331A
:1005100009F468C0843309F456C0853309F443C034
:10052000863391F1873301F1883379F08933A1F66D
:10053000E0EBF2E096E48091C00085FFFCCF909361
:10054000C60091919111F7CFC7CFE0EBF2E096E4AE
:100550008091C00085FFFCCF9093C60091919111CE
:10056000F7CFF3018181E2CFE0EBF2E096E48091F6
:10057000C00085FFFCCF9093C60091919111F7CFF9
:10058000D30111968C91D0CFE0EBF2E096E480910C
:10059000C00085FFFCCF9093C60091919111F7CFD9
:1005A000F3018181BFCFE0EBF2E096E48091C000DF
:1005B00085FFFCCF9093C60091919111F7CFD301A5
:1005C00011968C91ADCFE0EBF2E096E48091C00003
:1005D00085FFFCCF9093C60091919111F7CFF30165
:1005E00081819BCFD3011296EC901297EE2011F4EB
:1005F0000C94BF0D1396FC901397FF2011F40C94EC
:10060000370E14960C911497002311F40C94280EB5
:1006100015961C911597112311F40C941A0E169629
:10062000BC91BB2311F40C940D0EF301A781AA23F6
:1006300011F40C94010EB084BB2011F40C94F60D4F
:10064000C184CC2011F40C94EC0D7285772311F445
:100650000C94E30D6385662311F40C94DB0D548533
:10066000552311F40C94D40D4585442311F40C94B6
:10067000CE0D3685332311F40C94C90D2785222322
:1006800011F40C94C50D8089882311F40C94BB0DD2
:100690009189EE2011F40C94BF0DF201D080ED1081
:1006A00079C0FF2011F40C94E40BF201E180EF100B
:1006B00071C0002311F40C94DF0BF201F2800F11D2
:1006C00069C0112311F40C94DA0BF20103810113B8
:1006D00061C0BB2311F40C94D50BF20114811B13E0
:1006E00059C0AA2311F40C94D00BF201B581BA13AE
:1006F00051C0BB2011F40C94CB0BF201A681BA12AD
:1007000049C0CC2011F40C94C50BF781CF1242C024
:10071000772311F40C94BF0BD2011896EC917E1341
:1007200039C0662311F40C94B90BD20119967C914F
:10073000761330C0552311F40C94B30BD2011A96E2
:100740006C91561327C0442311F40C94AD0BD201C5
:100750001B965C9154131EC0332309F451C7D20178
:100760001C964C91431316C0222311F40C94540E82
:10077000D2011D963C9132130DC0882311F40C94C4
:100780004E0ED2011E962C91281304C0992311F409
:100790000C94470EEAE2F2E084E59091C00095FFE8
:1007A000FCCF8093C60081918111F7CFD3011196C0
:1007B0008C91B0CED1011C9211961C921197129679
:1007C0001C92129713961C92139714961C921497CE
:1007D00015961C92159716961C92169717961C92B2
:1007E000179718961C92189719961C9219971A9693
:1007F0001C921A971B961C921B971C961C921C9776
:100800001D961C921D971E961C921E971F961C9259
:10081000FE013196CA5BDB4FA881B981C654D44032
:100820009D918091C00085FFFCCF9193A215B305E7
:10083000B9F78E81882311F40C94B30D9B81F101DB
:1008400090833F81332311F40C94AB0D9C819183F1
:100850002885222311F40C94A30D9D819283998500
:10086000992311F40C949B0D83838A85882311F4BA
:100870000C94930D34833B85332311F40C948B0D2E
:1008800025832C85222311F40C94830D96839D855A
:10089000992311F40C947B0D87838E85882311F4A2
:1008A0000C94730D30873F85332311F40C946B0D3A
:1008B00021872889222311F40C94630D928799894A
:1008C000992311F40C945B0D83878A89882311F492
:1008D0000C94530D34873B89332311F40C944B0D46
:1008E00025872C89222309F484C696879D8999231C
:1008F00009F478C6878744E150E063E170E0E2E103
:10090000F0E0D1018C90CB5CDB4FC880D980C5531F
:10091000D440A12CB12CEE24E394F12C81010F5F83
:100920001F4F982C20E030E0992009F440C0D601F8
:100930008D919C91DC01A20FB31FAC91AA23B9F158
:10094000A915D9F0E12CF12C2FEFA21AB20A32E04E
:10095000C30ED11C88E0A816B10401F7E3E6F2E06B
:1009600083E49091C00095FFFCCF8093C6008191F5
:100970008111F7CFF3018181CACD2F5F3F4FD8019D
:100980009D908D01992051F0DC01A20FB31F8C9135
:100990008823C1F2EE24E394F12CC6CFDC01A20F30
:1009A000B31F8C918111CECFEE24E394F12CB1E0F2
:1009B000EB16F10449F680E3F82EFA0CD501AA0FE4
:1009C000BB1F21E2C22E24E0D22ECC0EDD1ECA0EA9
:1009D000DB1E81E090E08C0F9D1F8E0F9F1FDC01BE
:1009E0008C9190E0C09714E6189F9001199F300DEC
:1009F000112481E090E08C0F9D1F860F971FDC0172
:100A00008C9190E0C0978C01000F111F880F991FE7
:100A1000880F991F880F991F800F911F280F391F6A
:100A200081E090E08C0F9D1F840F951FDC018C915D
:100A300090E0C097820F931FD6018D939C93A0E402
:100A4000B2E093E78091C00085FFFCCF9093C60091
:100A50009D919111F7CF8091C00085FFFCCFF0925E
:100A6000C600AEE7B2E090E28091C00085FFFCCF07
:100A70009093C6009D919111F7CFA1E0B0E0AC0F2B
:100A8000BD1FEA0FFB1F80819091C00095FFFCCF36
:100A90008093C600E1E0F0E0EC0FFD1FE60FF71FCA
:100AA00080819091C00095FFFCCF8093C600E1E06B
:100AB000F0E0EC0FFD1FE40FF51F80819091C00066
:100AC00095FFFCCF8093C6008091C00085FFFCCFCE
:100AD0008AE08093C600F301818119CDAE014F5F9A
:100AE0005F4FB2019201FE01EF5FFC4F9191809147
:100AF000C00085FFFCCFDA019D93AD01D9011D92A5
:100B00009D01E215F30591F78B81882341F0FE01E9
:100B10003496DB018D93BD0181918111FACFE7E01D
:100B2000F2E09DE48091C00085FFFCCF9093C60069
:100B300091919111F7CFF2019081992351F0319663
:100B40008091C00085FFFCCF9093C60091919111D8
:100B5000F7CF8091C00085FFFCCF8AE08093C6006C
:100B6000D30111968C91813309F0CECC9E012F5F79
:100B70003F4FFE01EF5FFC4F91918091C00085FFD8
:100B8000FCCFD9019D939D01E215F305A9F74B8197
:100B900050E0FA01F097C45CDB4FF983E883CC5353
:100BA000D440389708F0CAC4CF5EDB4F1882C151D9
:100BB000D440D1011C92CE5EDB4F1882C251D4408A
:100BC00011961C921197CD5EDB4F1882C351D44011
:100BD00012961C921297CC5EDB4F1882C451D440FF
:100BE00013961C921397CB5EDB4F1882C551D440ED
:100BF00014961C921497CA5EDB4F1882C651D440DB
:100C000015961C921597C95EDB4F1882C751D440C8
:100C100016961C921697C85EDB4F1882C851D440B6
:100C200017961C921797C75EDB4F1882C951D440A4
:100C300018961C921897C65EDB4F1882CA51D44092
:100C400019961C921997C55EDB4F1882CB51D44080
:100C50001A961C921A97C45EDB4F1882CC51D4406E
:100C60001B961C921B97C35EDB4F1882CD51D4405C
:100C70001C961C921C97C25EDB4F1882CE51D4404A
:100C80001D961C921D97C15EDB4F1882CF51D44038
:100C90001E961C921E97C05EDB4F1882C052D44035
:100CA0001F961C924C814A3209F439C4CF5EDB4F47
:100CB0004883C151D4408D818A3209F4E7C6CE5EA3
:100CC000DB4F8883C251D4408E818A3209F4D9C661
:100CD000CD5EDB4F8883C351D4408F818A3209F4C3
:100CE000CBC6CC5EDB4F8883C451D44088858A3222
:100CF00009F4BDC6CB5EDB4F8883C551D4408985DE
:100D00008A3209F4AFC6CA5EDB4F8883C651D4402D
:100D10008A858A3209F4A1C6C95EDB4F8883C75130
:100D2000D4408B858A3209F493C6C85EDB4F888332
:100D3000C851D4408C858A3209F485C6C75EDB4F22
:100D40008883C951D4408D858A3209F477C6C65E3E
:100D5000DB4F8883CA51D4408E858A3209F469C634
:100D6000C55EDB4F8883CB51D4408F858A3209F42E
:100D70005BC6C45EDB4F8883CC51D44088898A32FD
:100D800009F44DC6C35EDB4F8883CD51D4408989B9
:100D90008A3209F43FC6C25EDB4F8883CE51D4400D
:100DA0008A898A3209F431C6C15EDB4F8883CF510C
:100DB000D4408B898A3209F423C6C05EDB4F888316
:100DC000C052D44025E130E084E190E0E1E0F0E081
:100DD000EC0FFD1FE80FF91FA080AA2009F4EAC557
:100DE000C65CDB4FA882CA53D4405A2DF101508310
:100DF000E1E0F0E0EC0FFD1FE20FF31FA081C55C06
:100E0000DB4FA883CB53D440AA2309F4B6C5F10124
:100E1000A183E3E0F0E0EC0FFD1FE80FF91F308144
:100E2000C75CDB4F3883C953D440332309F489C5E9
:100E3000D10112963C93E4E0F0E0EC0FFD1FE80FC7
:100E4000F91F2081C85CDB4F2883C853D44022237C
:100E500009F460C5D10113962C93E5E0F0E0EC0FA6
:100E6000FD1FE80FF91F2081C95CDB4F2883C753A2
:100E7000D440222309F43CC5D10114962C93E6E01A
:100E8000F0E0EC0FFD1FE80FF91FF080FF2009F4E0
:100E90001DC5D1011596FC92E7E0F0E0EC0FFD1FB7
:100EA000E80FF91F0081002309F4FFC4F101068354
:100EB000E8E0F0E0EC0FFD1FE80FF91F10811123AF
:100EC00009F4E3C4D10117961C93E9E0F0E0EC0FBC
:100ED000FD1FE80FF91FE080EE2009F4C7C4F101FF
:100EE000E086EAE0F0E0EC0FFD1FE80FF91FA080BC
:100EF000AA2009F4ADC4D1011996AC92EBE0F0E060
:100F0000EC0FFD1FE80FF91F9080992009F493C49E
:100F1000F1019286ECE0F0E0EC0FFD1FE80FF91F05
:100F2000C080CC2009F47BC4D1011B96CC92EDE0AB
:100F3000F0E0EC0FFD1FE80FF91FB080BB2009F4B3
:100F400063C4F101B486EEE0F0E0EC0FFD1FE80FA2
:100F5000F91FD080DD2009F44DC4D1011D96DC922B
:100F6000EFE0F0E0EC0FFD1FE80FF91F30813323B5
:100F700009F437C4F1013687E0E1F0E0EC0FFD1F22
:100F8000E80FF91F2081222309F423C4D1011F9601
:100F90002C93CF5EDB4F4881C151D44080E190E07B
:100FA000442309F418C3F20150814513AFC0CE5E4B
:100FB000DB4F4881C251D440442309F49EC2F20160
:100FC00051815413A3C0CD5EDB4F4881C351D4403F
:100FD000442309F48EC2F2015281541397C0CC5EAF
:100FE000DB4F4881C451D440442309F47EC2F2014E
:100FF000538154138BC0CB5EDB4F4881C551D44025
:10100000442309F46EC2F201548154137FC0CA5EB6
:10101000DB4F4881C651D440442309F478C2F20121
:101020005581541373C0C95EDB4F4881C751D4400A
:10103000442309F468C2F2015681451367C0C85EB3
:10104000DB4F4881C851D440442309F464C2F20103
:10105000578154135BC0C75EDB4F4881C951D440F0
:10106000442309F43AC2F201508554134FC0C65EBE
:10107000DB4F4881CA51D440442309F426C2F2010F
:101080005185541343C0C55EDB4F4881CB51D440DA
:10109000442309F416C2F2015285541337C0C45ECA
:1010A000DB4F4881CC51D440442309F412C2F201F1
:1010B000538545132BC0C35EDB4F4881CD51D440CF
:1010C000442309F4FAC1F201548554131FC0C25ECF
:1010D000DB4F4881CE51D440442309F432C1F201A0
:1010E0005585541313C0C15EDB4F4881CF51D440A6
:1010F000442309F422C1F2015685451307C0C05E9E
:10110000DB4F4881C052D4404423E1F0EAE2F2E0F0
:1011100084E59091C00095FFFCCF8093C60081913B
:101120008111F7CFF3018181EFC9EEECF2E094E792
:101130008091C00085FFFCCF9093C60091919111E2
:10114000F7CFA7C9F20147854111E0CFD1018C90BB
:10115000CB5CDB4F48815981C553D440C85BDB4F22
:1011600099838883C854D4409A2DC25CDB4F39825E
:101170002882CE53D440CE5BDB4F59824882C25482
:10118000D440532E3B2D5A01CC5BDB4F79826882D1
:10119000C454D440792CC25CDB4FA881B981CE53B2
:1011A000D4401196382CE0E0F0E060E070E0992E39
:1011B000C65BDB4FB983A883CA54D440332009F4FB
:1011C000DFC0D5014D915C91CA018E0F9F1FDC01DC
:1011D0008C91882309F4D4C0831509F4B6C0992DE5
:1011E000B2E0AB0EB11CC05CDB4FE881F981C054AA
:1011F000D440AE16BF0679F6A92E972CB32E352D06
:10120000C85BDB4F88819981C854D440C25CDB4FF6
:1012100028803980CE53D440CE5BDB4F4880598044
:10122000C254D440CC5BDB4F68807980C454D44036
:10123000009709F42DC1C45CDB4F48815981CC5320
:10124000D440440F551FCB5CDB4F68817981C55377
:10125000D440640F751FDB01ED91FC91C65CDB4F40
:10126000B881CA53D440B0838130910509F0B5C02C
:1012700011821282138214821582168217821086BE
:101280001186128613861486158616861786E1E265
:10129000F4E0EC0FFD1FE40FF51F11821082CF5E0A
:1012A000DB4F8881C151D440882371F0E1E1F4E043
:1012B000EC0FFD1F31969091C00095FFFCCF8093FD
:1012C000C60081918111F7CFECE3F2E080E29091CA
:1012D000C00095FFFCCF8093C60081918111F7CFAC
:1012E0008B819091C00095FFFCCF8093C600E9E010
:1012F000F2E080E29091C00095FFFCCF8093C600A1
:1013000081918111F7CFDB01ED91FC9180818823E0
:1013100051F031969091C00095FFFCCF8093C600AC
:1013200081918111F7CF8091C00085FFFCCF8AE0C9
:101330008093C600F3018181E7C846854111E6CE5E
:1013400005CF45854111E2CE01CF3196C65BDB4F1B
:10135000A881B981CA54D4403D90C65BDB4FB983A4
:10136000A883CA54D440332069F04E0F5F1FDA01BE
:101370008C91882309F433CF61E070E0311021CFE4
:10138000992D08C0992DE40FF51F4081411128CFF8
:1013900061E070E06130710509F022CFC25CDB4F83
:1013A00028803980CE53D440CE5BDB4F48805980B3
:1013B000C254D440CC5BDB4F68807980C454D440A5
:1013C000E8E4F2E093E48091C00085FFFCCF9093C5
:1013D000C60091919111F7CFA5CEC55CDB4FA881D6
:1013E000CB53D440A1838230910509F442CFC75C2E
:1013F000DB4FB881C953D440B2838330910509F4DF
:1014000039CFC85CDB4FA881C853D440A383843054
:10141000910509F430CFC95CDB4FB881C753D44084
:10142000B4838530910509F427CFF5828630910584
:1014300009F423CF06838730910509F41FCF178362
:101440008830910509F41BCFE0868930910509F4B5
:1014500017CFA1868A30910509F413CF92868B307D
:10146000910509F40FCFC3868C30910509F40BCF99
:10147000B4868D30910509F407CFD5868E3091055D
:1014800009F403CF3687409709F000CF2787FFCEB6
:10149000C45CDB4F48815981CC53D440440F551F65
:1014A000CB5CDB4F68817981C553D440640F751FD5
:1014B000DB01ED91FC911082DBCE4485411126CEFB
:1014C00045CE4285411122CE41CE418541111ECEED
:1014D0003DCE438541111ACE39CE4085411116CEFD
:1014E00035CE4481411112CE31CE438141110ECE11
:1014F0002DCE428141110ACE29CED20111964C91B6
:10150000411104CE23CE4681411100CE1FCE45812C
:101510004111FCCD1BCE47814111F8CD17CECD80B6
:10152000CC20A1F1C65CDB4FC882CA53D44040E056
:1015300025E030E084E090E05C2D58CCE8E1F2E07A
:1015400083E49091C00095FFFCCF8093C600819109
:101550008111F7CF80E090E0C55BDB4F0FB6F894C8
:10156000DEBF0FBECDBFDF91CF911F910F91FF90D6
:10157000EF90DF90CF90BF90AF909F908F907F9033
:101580006F905F904F903F902F90089520E030E053
:10159000D12CB12C912CA12CE12C10E000E0F12CED
:1015A000C95CDB4F1882C753D440C85CDB4F18823C
:1015B000C853D440C75CDB4F1882C953D440C55CC4
:1015C000DB4F1882CB53D440C65CDB4F1882CA5322
:1015D000D44080E090E0D2015C91552309F4B6CD6F
:1015E00040E0E3CC43E150E062E170E0E1E1F0E0B3
:1015F00088C942E150E061E170E0E0E1F0E081C9DA
:10160000F20184858111C6C8E8E8F2E094E4809193
:10161000C00085FFFCCF9093C60091919111F7CF48
:10162000F2019081992351F031968091C00085FF9D
:10163000FCCF9093C60091919111F7CFFE01EF5D21
:10164000FB4FCB5CDB4F08811981C553D44040E38D
:101650008CE9C82E96EFD92EA7EAB2E09AE08091E5
:10166000C00085FFFCCF9093C6009D919111F7CFEC
:101670008091C00085FFFCCF4093C600A6E9B2E090
:1016800090E28091C00085FFFCCF9093C6009D91B1
:101690009111F7CFD8012D913D918D01D9019C91E8
:1016A000992359F0D90111968091C00085FFFCCF94
:1016B0009093C6009D919111F7CFAEE9B2E090E210
:1016C0008091C00085FFFCCF9093C6009D91911141
:1016D000F7CF9F018081918164E670E00E945A0EED
:1016E000DB01D0968091C00085FFFCCFA093C6009F
:1016F0005C2D56037001579FF00C1124808191815D
:101700008E0D9F1D6AE070E00E945A0EDB01D0969C
:101710008091C00085FFFCCFA093C6003296D9010E
:101720002D913C912E0D3F1D5D2D5603C001579FFD
:10173000900D1124280F391F205D3F4F8091C0006C
:1017400085FFFCCF2093C6004F5F483309F084CF5C
:10175000D30111968C910C948A02F2018385811138
:101760000C94CA0351CFF201828581110C94CA03F3
:101770004BCFF201818581110C94CA0345CFF20150
:10178000808581110C94CA033FCFF20187818111BA
:101790000C94CA0339CF868181110C94CA0334CFCB
:1017A000858181110C94CA032FCF848181110C94FF
:1017B000CA032ACF838181110C94CA0325CF828169
:1017C00081110C94CA0320CF818181110C94CA032A
:1017D0001BCFCF5EDB4F4881C151D4408FE090E0FA
:1017E000DFCBCF5EDB4F4881C151D44020E08EE09B
:1017F00090E0D6CBCF5EDB4F4881C151D44020E092
:1018000030E08DE090E0CCCBCF5EDB4F4881C15122
:10181000D44020E030E0D12C8CE090E0C1CBCF5E12
:10182000DB4F4881C151D44020E030E0D12CB12CB5
:101830008BE090E0B5CBCF5EDB4F4881C151D44007
:1018400020E030E0D12CB12CC12C8AE090E0A8CB74
:10185000CF5EDB4F4881C151D44020E030E0D12C35
:10186000B12CC12C912C89E090E09ACBCF5EDB4F5C
:101870004881C151D44020E030E0D12CB12CC12CA2
:10188000912CA12C88E090E08BCBCF5EDB4F488180
:10189000C151D44020E030E0D12CB12CC12C912C8E
:1018A000A12CE12C87E090E07BCBCF5EDB4F488121
:1018B000C151D44020E030E0D12CB12CC12C912C6E
:1018C000A12CE12C10E086E090E06ACBCF5EDB4FEC
:1018D0004881C151D44020E030E0D12CB12CC12C42
:1018E000912CA12CE12C10E000E085E090E058CB99
:1018F000CF5EDB4F4881C151D44030E0D12CB12CB8
:10190000C12C912CA12CE12C10E000E0F12C84E002
:1019100090E046CBCF5EDB4F4881C151D44030E0F0
:10192000D12CB12CC12C912CA12CE12C10E000E089
:10193000F12CC95CDB4F1882C753D44083E090E0A0
:101940002FCBCF5EDB4F4881C151D44020E0D12C5A
:10195000B12CC12C912CA12CE12C10E000E0F12C39
:10196000C95CDB4F1882C753D440C85CDB4F188278
:10197000C853D44082E090E013CB20E030E0D12C7B
:10198000B12CC12C912CA12CE12C10E000E0F12C09
:10199000C95CDB4F1882C753D440C85CDB4F188248
:1019A000C853D440C75CDB4F1882C953D44081E090
:1019B00090E0F6CA20E030E0D12CB12CC12C912C63
:1019C000E12C10E000E0F12CC95CDB4F1882C7531A
:1019D000D440C85CDB4F1882C853D440C75CDB4F8F
:1019E0001882C953D440C55CDB4F1882CB53D44016
:1019F000C65CDB4F1882CA53D44080E090E0D0CA66
:101A000024E130E083E190E0E1C923E130E082E1CC
:101A100090E0DCC922E130E081E190E0D7C921E12A
:101A200030E080E190E0D2C920E130E08FE090E04A
:101A3000CDC92FE030E08EE090E0C8C92EE030E064
:101A40008DE090E0C3C92DE030E08CE090E0BEC9AD
:101A50002CE030E08BE090E0B9C92BE030E08AE088
:101A600090E0B4C92AE030E089E090E0AFC929E015
:101A700030E088E090E0AAC928E030E087E090E01C
:101A8000A5C927E030E086E090E0A0C926E030E07C
:101A900085E090E09BC941E150E060E170E0EFE05B
:101AA000F0E00C94810440E150E06FE070E0EEE083
:101AB000F0E00C9481044FE050E06EE070E0EDE067
:101AC000F0E00C9481044EE050E06DE070E0ECE05A
:101AD000F0E00C9481044DE050E06CE070E0EBE04D
:101AE000F0E00C9481044CE050E06BE070E0EAE040
:101AF000F0E00C9481044BE050E06AE070E0E9E033
:101B0000F0E00C9481044AE050E069E070E0E8E025
:101B1000F0E00C94810449E050E068E070E0E7E018
:101B2000F0E00C94810448E050E067E070E0E6E00B
:101B3000F0E00C94810447E050E066E070E0E5E0FE
:101B4000F0E00C94810446E050E065E070E0E4E0F1
:101B5000F0E00C94810445E050E064E070E0E3E0E4
:101B6000F0E00C94810444E050E063E070E0E2E0D7
:101B7000F0E00C94810490E0E1100C944D03D2014C
:101B80008C9181110C94CA033FCD90E080E00C94BD
:101B9000490390E080E020E00C94490390E080E06D
:101BA00020E030E00C94490390E080E020E030E059
:101BB00040E00C94490390E080E020E030E040E019
:101BC00050E00C94490390E080E020E030E040E0F9
:101BD00050E060E00C94490390E080E020E030E0C9
:101BE00040E050E060E070E00C94490390E080E059
:101BF00020E030E040E050E060E070E0C12C0C9468
:101C0000490390E080E020E030E040E050E060E018
:101C100070E0C12CB12C0C94490390E080E020E0EE
:101C200030E040E050E060E070E0C12CB12CA0E07A
:101C30000C94490390E080E020E030E040E050E088
:101C400060E070E0C12CB12CA0E0B0E00C9449033E
:101C500090E080E020E030E040E050E060E070E0C4
:101C6000C12CB12CA0E0B0E010E00C94490390E04E
:101C700080E020E030E040E050E060E070E0C12C27
:101C8000B12CA0E0B0E010E000E00C944903D201D8
:101C90001F968C9181110C94CA03B6CCF2018685F3
:101CA00081110C94CA03B0CCF201858581110C948A
:101CB000CA03AACC97FB072E16F4009407D077FD31
:101CC00009D00E946E0E07FC05D03EF490958195D8
:101CD0009F4F0895709561957F4F0895AA1BBB1B78
:101CE00051E107C0AA1FBB1FA617B70710F0A61B1C
:101CF000B70B881F991F5A95A9F780959095BC013D
:101D0000CD0108950F931F93CF93DF9382309105F8
:101D100010F482E090E0E091F602F091F70220E00A
:101D200030E0A0E0B0E0309719F1408151810281AC
:101D3000138148175907C8F08417950769F410975D
:101D400031F012960C93129713961C9327C00093B0
:101D5000F6021093F70222C02115310519F042173F
:101D6000530718F49A01BD01EF01DF01F801DBCF41
:101D700021153105F9F0281B390B2430310580F489
:101D80008A819B816115710521F0FB019383828318
:101D900004C09093F7028093F602FE01329644C08D
:101DA000FE01E20FF31F8193919322503109398391
:101DB00028833AC02091F4023091F502232B41F49C
:101DC00020910202309103023093F5022093F40235
:101DD00020910002309101022115310541F42DB707
:101DE0003EB74091040250910502241B350BE0914F
:101DF000F402F091F502E217F307A0F42E1B3F0B5B
:101E00002817390778F0AC014E5F5F4F241735076C
:101E100048F04E0F5F1F5093F5024093F4028193F8
:101E2000919302C0E0E0F0E0CF01DF91CF911F91EC
:101E30000F910895CF93DF93009709F481C0FC01BF
:101E4000329713821282A091F602B091F702109796
:101E500081F420813181820F931F2091F40230910F
:101E6000F5022817390751F5F093F502E093F402D3
:101E700067C0ED0120E030E0CE17DF0740F44A8173
:101E80005B819E0141155105F1F0EA01F5CFD38345
:101E9000C28340815181840F951FC817D90759F417
:101EA00088819981840F951F0296918380838A810E
:101EB0009B81938382832115310529F4F093F702E6
:101EC000E093F6023DC0E901FB83EA834991599111
:101ED000C40FD51FEC17FD0761F480819181840F39
:101EE000951F0296E90199838883828193819B8360
:101EF0008A83E0E0F0E012968D919C911397009711
:101F000019F0FD01DC01F7CF8D919C9111979D0196
:101F10002E5F3F4F820F931F2091F4023091F50204
:101F20002817390769F4309729F41092F7021092B4
:101F3000F60202C013821282B093F502A093F4025B
:0A1F4000DF91CF910895F894FFCFD0
:101F4A000000F80220004D79206E6577206E616DE1
:101F5A00652069733A20004368616E6E656C206E75
:101F6A006F742076616C6964005468612773206E0F
:101F7A006F74206D79206E616D6500202D3E20738F
:101F8A0077697463685F004368616E6E656C206E82
:101F9A00616D6520616C7265616479206578697329
:101FAA0074004368616E6E656C206E616D652064B5
:101FBA006F65736E27742065786973740020766183
:101FCA006C6F72653A2000446576696365206E61BC
:101FDA006D653A2000204E616D653A2000207661D9
:101FEA006C75653A20000A5377697463685F004626
:101FFA00756E6374696F6E206E6F742079657420D4
:10200A00696D706C656D656E7465640A00746573DC
:10201A00746F5B305D203D3D204E554C4C0A006488
:10202A00696F62656C6C6F6573696D706174696301
:04203A006F0A000029
:00000001FF
