:100000000C9472000C9493000C9493000C94930045
:100010000C9493000C9493000C9493000C94930014
:100020000C9493000C9493000C9493000C94930004
:100030000C9493000C9493000C9493000C949300F4
:100040000C9493000C9493000C9493000C949300E4
:100050000C9493000C9493000C9493000C949300D4
:100060000C9493000C9493000C9493000C949300C4
:100070000C9493000C9493000C9493000C949300B4
:100080000C9493000C9493000C9493000C949300A4
:100090000C9493000C9493000C9493000C94930094
:1000A0000C9493000C9493000C9493000C94930084
:1000B0000C9493000C9493000C9493000C94930074
:1000C0000C9493000C9493000C9493000C94930064
:1000D0000C9493000C9493000C9493000C94930054
:1000E0000C94930011241FBECFEFD1E2DEBFCDBF31
:1000F00000E00CBF12E0A0E0B2E0ECE1F3E100E0D0
:100100000BBF02C007900D92AA3BB107D9F722E0BE
:10011000AAEBB2E001C01D92AE3BB207E1F70E942C
:10012000DE000C948C090C9400001092C50082E350
:100130008093C40086E08093C20088E98093C10068
:1001400008959091C00095FFFCCF8093C60008955C
:100150009091C00095FFFCCF08958091C00087FF6B
:10016000FCCF8091C6000895FC019091C00097FFDC
:10017000FCCF9091C6009193992329F09A3011F009
:100180009D3099F711929E2F981B892F0895FC019D
:100190002081222351F031969091C00095FFFCCF31
:1001A0002093C60021912111F7CF089584B583686B
:1001B00084BD85B5816085BD279A08952F923F92B1
:1001C0004F925F926F927F928F929F92AF92BF9267
:1001D000CF92DF92EF92FF920F931F93CF93DF9313
:1001E000CDB7DEB7C052D4400FB6F894DEBF0FBE15
:1001F000CDBF84B5836884BD85B5816085BD279AF0
:100200001092C50082E38093C40086E08093C20010
:1002100088E98093C10017BC80E190E00E94FC0750
:100220002C018C017C0120E1E20EF11C80E190E0C8
:100230000E94FC07D8018D939D938D01AE15BF05DB
:10024000A9F77E01B1E0EB0EFB1E80E091E0F70123
:100250009C01119221503040E1F7CE018F5F9C4FFD
:100260001C01DE01AF5FBD4F3D018E010F5F1B4FD3
:1002700080E091E0F1019C01119221503040E1F7C2
:10028000D301FC011D923197E9F7FFEF27EA31E630
:10029000F15020403040E1F700C00000F1018091B2
:1002A000C00087FFFCCF8091C6008193882329F08E
:1002B0008A3011F08D3099F710826101D301F1017C
:1002C00091918091C00085FFFCCF9D93E017F107CD
:1002D000B9F7D3018C91803381F1882309F483C469
:1002E000E6EAF2E094E68091C00085FFFCCF9093AF
:1002F000C60091919111F7CFD3019C918091C000DC
:1003000085FFFCCF9093C600F30191818091C000DE
:1003100085FFFCCF9093C6008091C00085FFFCCF85
:100320008AE08093C600FFEF29E638E1F1502040D3
:100330003040E1F700C000009BCF11968C918033D4
:1003400009F40EC4813309F459C1823309F46BC036
:10035000833309F443C1843309F456C0853309F467
:1003600043C0863391F1873301F1883379F08933C3
:10037000D1F6E6E7F2E096E48091C00085FFFCCF7D
:100380009093C60091919111F7CFCDCFE6E7F2E0BF
:1003900096E48091C00085FFFCCF9093C6009191B8
:1003A0009111F7CFF3018181E2CFE6E7F2E096E425
:1003B0008091C00085FFFCCF9093C6009191911170
:1003C000F7CFD30111968C91D0CFE6E7F2E096E417
:1003D0008091C00085FFFCCF9093C6009191911150
:1003E000F7CFF3018181BFCFE6E7F2E096E4809199
:1003F000C00085FFFCCF9093C60091919111F7CF7B
:10040000D30111968C91ADCFE6E7F2E096E48091AE
:10041000C00085FFFCCF9093C60091919111F7CF5A
:10042000F30181819BCFF801108211821282138225
:100430001482158216821782108611861286138600
:100440001486158616861786FE013196D6019D9173
:100450006D018091C00085FFFCCF9193C016D1063D
:10046000A9F78E81882309F415C49B81F801908334
:100470003F81332309F4FDC49C8191832885222385
:1004800009F4EDC49D8192839985992309F4DDC413
:1004900083838A85882309F4CEC434833B85332340
:1004A00009F437C525832C85222309F428C59683B2
:1004B0009D85992309F419C587838E85882309F4BE
:1004C0000AC530873F85332309F4FBC42187288977
:1004D000222309F4ECC492879989992309F4DDC495
:1004E00083878A89882309F4CEC434873B893323E0
:1004F00009F46EC525872C89222309F45FC59687E8
:100500009D89992309F46EC5878764E1C62ED12C95
:1005100073E1A72EB12CE2E18E2E912CD2016D91C8
:100520007C91C8010E943B09892B09F4C5C3F201E3
:1005300062817381C8010E943B09892B09F4BCC305
:10054000D20114966D917C911597C8010E943B09C8
:10055000892B09F4B1C3F20166817781C8010E9439
:100560003B09892B09F4A8C3D20118966D917C919F
:100570001997C8010E943B09892B09F49DC3F20118
:1005800062857385C8010E943B09892B09F494C3D5
:10059000D2011C966D917C911D97C8010E943B0968
:1005A000892B09F489C3F20166857785C8010E9409
:1005B0003B09892B09F480C3EBE5F2E093E48091D9
:1005C000C00085FFFCCF9093C60091919111F7CFA9
:1005D000D30111968C91833309F0BDCEE6E7F2E0AA
:1005E00096E48091C00085FFFCCF9093C600919166
:1005F0009111F7CFD30111968C91ADCEDE011196FA
:10060000F10191918091C00085FFFCCF9D93E0178F
:10061000F107B9F78B8190E00E941D09089708F057
:10062000C0C4CF5EDB4F1882C151D440F8011082A4
:10063000CE5EDB4F1882C251D4401182CD5EDB4FBB
:100640001882C351D4401282CC5EDB4F1882C45151
:10065000D4401382CB5EDB4F1882C551D440148244
:10066000CA5EDB4F1882C651D4401582C95EDB4F8B
:100670001882C751D4401682C85EDB4F1882C85119
:10068000D4401782C75EDB4F1882C951D440108610
:10069000C65EDB4F1882CA51D4401186C55EDB4F5F
:1006A0001882CB51D4401286C45EDB4F1882CC51E5
:1006B000D4401386C35EDB4F1882CD51D4401486DC
:1006C000C25EDB4F1882CE51D4401586C15EDB4F2F
:1006D0001882CF51D4401686C05EDB4F1882C052BC
:1006E000D44017862C812A3209F44FC4CF5EDB4FE9
:1006F0002883C151D4408D818A3209F441C4CE5E31
:10070000DB4F8883C251D4408E818A3209F433C4CE
:10071000CD5EDB4F8883C351D4408F818A3209F488
:1007200025C4CC5EDB4F8883C451D44088858A328F
:1007300009F417C4CB5EDB4F8883C551D44089854B
:100740008A3209F409C4CA5EDB4F8883C651D4409B
:100750008A858A3209F4FBC3C95EDB4F8883C7519F
:10076000D4408B858A3209F4EDC3C85EDB4F8883A1
:10077000C851D4408C858A3209F4DFC3C75EDB4F91
:100780008883C951D4408D858A3209F4D1C3C65EAD
:10079000DB4F8883CA51D4408E858A3209F4C3C3A3
:1007A000C55EDB4F8883CB51D4408F858A3209F4F4
:1007B0003DC3C45EDB4F8883CC51D44088898A32E4
:1007C00009F42FC3C35EDB4F8883CD51D4408989A0
:1007D0008A3209F421C3C25EDB4F8883CE51D440F4
:1007E0008A898A3209F413C3C15EDB4F8883CF51F3
:1007F000D4408B898A3209F4BAC2C05EDB4F888349
:10080000C052D44045E150E084E190E0E1E0F0E006
:10081000EC0FFD1FE80FF91F3081332309F4B6C038
:10082000D8013C93E1E0F0E0EC0FFD1FE40FF51F71
:100830003081332309F4AAC0F8013183E3E0F0E00A
:10084000EC0FFD1FE80FF91F2081222309F499C046
:10085000D80112962C93E4E0F0E0EC0FFD1FE80FB6
:10086000F91F2081222309F48CC0F8012383E5E0DD
:10087000F0E0EC0FFD1FE80FF91F2081222309F49F
:1008800080C0D80114962C93E6E0F0E0EC0FFD1F39
:10089000E80FF91F2081222309F473C0F801258392
:1008A000E7E0F0E0EC0FFD1FE80FF91F20812223A5
:1008B00009F467C0D80116962C93E8E0F0E0EC0F3D
:1008C000FD1FE80FF91F2081222309F45AC0F80107
:1008D0002783E9E0F0E0EC0FFD1FE80FF91F20810E
:1008E000222309F44EC0D80118962C93EAE0F0E0D8
:1008F000EC0FFD1FE80FF91F2081222309F441C0EE
:10090000F8012187EBE0F0E0EC0FFD1FE80FF91F85
:1009100020812223B1F1D8011A962C93ECE0F0E06B
:10092000EC0FFD1FE80FF91F2081222351F1F80180
:100930002387EDE0F0E0EC0FFD1FE80FF91F2081A9
:100940002223F9F0D8011C962C93EEE0F0E0EC0F96
:10095000FD1FE80FF91F2081222399F0F801258758
:10096000FE01E80FF91F2785222359F0D8011E96B2
:100970002C93FE01E80FF91F8089882311F0F801FC
:100980008787CF5EDB4F2881C151D440222309F4F1
:1009900037C1D7018C912813BBC0CE5EDB4F888155
:1009A000C251D440882309F42DC2D70111969C91DD
:1009B0008913AEC0CD5EDB4F8881C351D4408823FC
:1009C00009F41BC2D70112969C918913A1C0CC5E79
:1009D000DB4F8881C451D440882309F409C2D70170
:1009E00013969C91891394C0CB5EDB4F8881C551CF
:1009F000D440882309F4F7C1D70114969C91891338
:100A000087C0CA5EDB4F8881C651D440882309F471
:100A1000E5C1D70115969C9198137AC0C95EDB4F4A
:100A20008881C751D440882309F4D3C1D7011696D1
:100A30009C9198136DC0C85EDB4F8881C851D4402B
:100A4000882309F4C1C1D70117969C91981360C0FF
:100A5000C75EDB4F8881C951D440882309F4AFC1F8
:100A6000D70118969C91981353C0C65EDB4F8881BE
:100A7000CA51D440882309F49DC1D70119969C918D
:100A8000891346C0C55EDB4F8881CB51D440882393
:100A900009F48BC1D7011A969C91891339C0C45EA1
:100AA000DB4F8881CC51D440882309F479C1D70128
:100AB0001B969C9189132CC0C35EDB4F8881CD515E
:100AC000D440882309F467C1D7011C969C918913EF
:100AD0001FC0C25EDB4F8881CE51D440882309F409
:100AE00054C1F7019585891313C0C15EDB4F88811E
:100AF000CF51D440882309F443C19685891308C097
:100B0000C05EDB4F8881C052D440882309F434C1D1
:100B1000E9E3F2E084E59091C00095FFFCCF80937B
:100B2000C60081918111F7CF80E090E0C05EDB4F7D
:100B30000FB6F894DEBF0FBECDBFDF91CF911F91EE
:100B40000F91FF90EF90DF90CF90BF90AF909F906C
:100B50008F907F906F905F904F903F902F9008956F
:100B6000CE0101969701B701F10151914091C0006A
:100B700045FFFCCFDC015D93CD01DB011D92BD0182
:100B8000E017F10791F78B81882341F0FE0134963D
:100B9000D9018D939D0181918111FACFE7E0F2E0B7
:100BA0009DE48091C00085FFFCCF9093C600919199
:100BB0009111F7CFF7019081992351F031968091EF
:100BC000C00085FFFCCF9093C60091919111F7CFA3
:100BD0008091C00085FFFCCF8AE08093C600D301DE
:100BE00011968C91AFCBE4E9F2E094E78091C000DC
:100BF00085FFFCCF9093C60091919111F7CF70CBF8
:100C0000F7018081811184CFEAE2F2E09EE48091D5
:100C1000C00085FFFCCF9093C60091919111F7CF52
:100C2000CF5EDB4F9881C151D440992371F0E1E14F
:100C3000F4E0EC0FFD1F31968091C00085FFFCCFE2
:100C40009093C60091919111F7CFEBE4F2E090E21E
:100C50008091C00085FFFCCF9093C60091919111C7
:100C6000F7CFF8019081992351F031968091C0001F
:100C700085FFFCCF9093C60091919111F7CF8091A1
:100C8000C00085FFFCCF8AE08093C600D301119697
:100C90008C915BCB34E0C32ED12C43E0A42EB12C3D
:100CA00052E0852E912CD2016D917C91C8010E9459
:100CB0003B09892B09F03BCCE1E0F0E0EC0FFD1F94
:100CC000E80DF91D808190E00E941D094C01E1E0D2
:100CD000F0E0EC0FFD1FEA0DFB1D808190E00E940B
:100CE0001D0944E6489D9001499D300D11245C0189
:100CF000AA0CBB1C880F991F880F991F880F991F7A
:100D00008A0D9B1D5901A80EB91EE1E0F0E0EC0F21
:100D1000FD1FEC0DFD1D808190E00E941D098A0DD4
:100D20009B1D0E9444092981222359F0FE0132961D
:100D30003091C00035FFFCCF2093C60021912111D6
:100D4000F7CFFC012081222309F442CC3196809117
:100D5000C00085FFFCCF2093C60021912111F7CF61
:100D6000D30111968C91833309F0F5CA37CC44E155
:100D700050E083E190E04ACD87858111C9CE44CF10
:100D8000F70186858111C4CE3FCFD7011D968C9186
:100D90008111BECE39CFF70184858111B9CE34CF10
:100DA000F70183858111B4CE2FCFF70182858111A0
:100DB000AFCE2ACFF70181858111AACE25CFF701C9
:100DC00080858111A5CE20CFF70187818111A0CE2A
:100DD0001BCFF701868181119BCE16CFF70185814C
:100DE000811196CE11CFF7018481811191CE0CCF64
:100DF000F701838181118CCE07CFF70182818111A8
:100E000087CE02CFF7018181811182CEFDCE43E1F1
:100E100050E082E190E0FACC42E150E081E190E0E4
:100E2000F5CC41E150E080E190E0F0CC40E150E0D1
:100E30008FE090E0EBCC38E0C32ED12C47E0A42E1D
:100E4000B12C56E0852E912C69CB67E0C62ED12CB3
:100E500076E0A72EB12CE5E08E2E912C5FCBF6E04C
:100E6000CF2ED12CA5E0AA2EB12CB4E08B2E912C44
:100E700055CB85E0C82ED12C94E0A92EB12C23E0CF
:100E8000822E912C4BCB30E1C32ED12C4FE0A42EDF
:100E9000B12C5EE0852E912C41CB6FE0C62ED12C7B
:100EA0007EE0A72EB12CEDE08E2E912C37CBFEE00C
:100EB000CF2ED12CADE0AA2EB12CBCE08B2E912CE4
:100EC0002DCB8DE0C82ED12C9CE0A92EB12C2BE08F
:100ED000822E912C23CB3CE0C32ED12C4BE0A42EB0
:100EE000B12C5AE0852E912C19CB6BE0C62ED12C5B
:100EF0007AE0A72EB12CE9E08E2E912C0FCBFAE0F0
:100F0000CF2ED12CA9E0AA2EB12CB8E08B2E912C9B
:100F100005CB89E0C82ED12C98E0A92EB12C27E072
:100F2000822E912CFBCA4FE050E08EE090E06ECC18
:100F30004EE050E08DE090E069CC4DE050E08CE078
:100F400090E064CC4CE050E08BE090E05FCC4BE074
:100F500050E08AE090E05ACC4AE050E089E090E02E
:100F600055CC49E050E088E090E050CC48E050E0BB
:100F700087E090E04BCC47E050E086E090E046CC44
:100F800046E050E085E090E041CC8D81882309F473
:100F900037CE80833E81332309F432CE84E090E063
:100FA0004BCCE8E1F2E083E49091C00095FFFCCFE8
:100FB0008093C60081918111F7CFB6CDF2E1CF2E9B
:100FC000D12CA1E1AA2EB12CB0E18B2E912CA6CA76
:100FD00081E1C82ED12C90E1A92EB12C2FE0822ED8
:100FE000912C9CCA63E1C62ED12C72E1A72EB12CA4
:100FF000E1E18E2E912C92CA0F931F93CF93DF9332
:101000008230910510F482E090E0E091BC02F09112
:10101000BD0220E030E0A0E0B0E0309719F140815F
:1010200051810281138148175907C8F08417950729
:1010300069F4109731F012960C93129713961C9343
:1010400027C00093BC021093BD0222C021153105B8
:1010500019F04217530718F49A01BD01EF01DF019F
:10106000F801DBCF21153105F9F0281B390B2430AD
:10107000310580F48A819B816115710521F0FB01A6
:101080009383828304C09093BD028093BC02FE01CF
:10109000329644C0FE01E20FF31F819391932250D8
:1010A0003109398328833AC02091BA023091BB02BA
:1010B000232B41F420910202309103023093BB02B2
:1010C0002093BA02209100023091010221153105CE
:1010D00041F42DB73EB74091040250910502241B04
:1010E000350BE091BA02F091BB02E217F307A0F4CE
:1010F0002E1B3F0B2817390778F0AC014E5F5F4F6E
:101100002417350748F04E0F5F1F5093BB024093E2
:10111000BA028193919302C0E0E0F0E0CF01DF9149
:10112000CF911F910F910895CF93DF93009709F40A
:1011300081C0FC01329713821282A091BC02B0914F
:10114000BD02109781F420813181820F931F20917D
:10115000BA023091BB022817390751F5F093BB0250
:10116000E093BA0267C0ED0120E030E0CE17DF0760
:1011700040F44A815B819E0141155105F1F0EA017D
:10118000F5CFD383C28340815181840F951FC81747
:10119000D90759F488819981840F951F029691830C
:1011A00080838A819B81938382832115310529F471
:1011B000F093BD02E093BC023DC0E901FB83EA83EA
:1011C00049915991C40FD51FEC17FD0761F4808137
:1011D0009181840F951F0296E9019983888382810A
:1011E00093819B838A83E0E0F0E012968D919C913D
:1011F0001397009719F0FD01DC01F7CF8D919C91B9
:1012000011979D012E5F3F4F820F931F2091BA02CD
:101210003091BB022817390769F4309729F41092EE
:10122000BD021092BC0202C013821282B093BB02B4
:10123000A093BA02DF91CF910895FC0188279927E6
:10124000E89421912032E9F3293010F02E30C8F3D0
:101250002B3241F02D3239F4689404C00E945A09AF
:10126000820F911D219120532A30C0F31EF49095D6
:1012700081959F4F0895FB01DC018D9101908019AC
:101280000110D9F3990B08954532510520F44230ED
:1012900010F00C944F09FB011082CB010895BB277D
:1012A0004A3031F4992322F4BDE2909581959F4F05
:1012B0000C9463097AE0979F902D879F802D910D64
:1012C00011240895BB27FB015527AA27880F991FD2
:1012D000AA1FA41710F0A41B83955051B9F7A05D65
:1012E000AA3308F0A95DA193009779F7B111B193E2
:1012F0001192CB010C947C09DC01FC01672F7191E8
:101300007723E1F7329704C07C916D9370836291EB
:0C131000AE17BF07C8F30895F894FFCF94
:10131C000000BE0220004D79206E6577206E616D55
:10132C00652069733A20004368616E6E656C206EAF
:10133C006F742076616C6964004E616D652061721A
:10134C006475696E6F3A20005468612773206E6F64
:10135C0074206D79206E616D6500204E616D652085
:10136C006368616E6E656C3A20004368616E6E65F1
:10137C006C206E616D6520646F65736E27742065DB
:10138C00786973740046756E6374696F6E206E6F46
:10139C00742079657420696D706C656D656E74650B
:1013AC00640A00746573746F5B305D203D3D204EA4
:1013BC00554C4C0A0064696F62656C6C6F6573699F
:0A13CC006D70617469636F0A000020
:00000001FF
