:100000000C94A2000C94C3000C94C3000C94C30085
:100010000C94C3000C94C3000C94C3000C94C30054
:100020000C94C3000C94C3000C94C3000C94C30044
:100030000C94C3000C94C3000C94C3000C94C30034
:100040000C94C3000C94C3000C94C3000C94C30024
:100050000C94C3000C94C3000C94C3000C94C30014
:100060000C94C3000C94C3000C94C3000C94C30004
:100070000C94C3000C94C3000C94C3000C94C300F4
:100080000C94C3000C94C3000C94C3000C94C300E4
:100090000C94C3000C94C3000C94C3000C94C300D4
:1000A0000C94C3000C94C3000C94C3000C94C300C4
:1000B0000C94C3000C94C3000C94C3000C94C300B4
:1000C0000C94C3000C94C3000C94C3000C94C300A4
:1000D0000C94C3000C94C3000C94C3000C94C30094
:1000E0000C94C3008D01920197019A019F01A40114
:1000F000A90188016C01040F000FFA0EF40E180D0F
:100100000A0F0D0F0C94A4010C94000F0C9497018E
:100110000C948D010C946C010C94180D0C949F019F
:100120000C94F40E0C949A010C940D0F0C94A901EC
:100130000C94FA0E0C9488010C940A0F0C94040F82
:100140000C94920111241FBECFEFD1E2DEBFCDBFD0
:1001500000E00CBF13E0A0E0B2E0ECEBF3E200E063
:100160000BBF02C007900D92A431B107D9F723E06D
:10017000A4E1B3E001C01D92A831B207E1F70E94EB
:10018000AB010C94DC110C9400001092C50082E3CA
:100190008093C40086E08093C20088E98093C10008
:1001A00008959091C00095FFFCCF8093C6000895FC
:1001B0009091C00095FFFCCF08958091C00087FF0B
:1001C000FCCF8091C6000895FC019091C00097FF7C
:1001D000FCCF9091C6009193992329F09A3011F0A9
:1001E0009D3099F711929E2F981B892F0895FC013D
:1001F0002081222351F031969091C00095FFFCCFD1
:100200002093C60021912111F7CF089584B5836A08
:1002100084BDE0E8F0E08081836A8083E0EBF0E079
:100220008081836A8083E0E9F0E08081836A808353
:10023000E0EAF0E08081836A808385B5816085BDD6
:10024000E1E8F0E0808181608083E1EBF0E0808193
:1002500081608083E1E9F0E0808181608083E1EA70
:10026000F0E0808181608083279A269A259A249ADB
:100270009D9AE1E0F1E080818064808380818061EB
:1002800080838081886080836B9A6C9A10928B0047
:1002900010928A0010928900109288001092B30088
:1002A0001092AB001092AA001092A9001092A80020
:1002B000109299001092980018BC10929B00109216
:1002C0009A0008958930910510F5FC018827EE58B1
:1002D000FF4F8F4F0C949F1068BD7093A9006093DF
:1002E000A8007093AB006093AA006093B300709372
:1002F00089006093880070938B0060938A007093EC
:1003000099006093980070939B0060939A00089501
:1003100070939B0060939A00089570938B00609394
:100320008A0008957093890060938800089560930F
:10033000B30008957093AB006093AA000895709382
:10034000A9006093A80008957093990060939800A5
:10035000089568BD08952F923F924F925F926F92D9
:100360007F928F929F92AF92BF92CF92DF92EF9245
:10037000FF920F931F93CF93DF93CDB7DEB7C9548E
:10038000D4400FB6F894DEBF0FBECDBF0E94060169
:100390001092C50082E38093C40086E08093C2007F
:1003A00088E98093C10082E190E00E94BB103C018B
:1003B0009C012E5E3F4FC15CDB4F39832883CF53B6
:1003C000D4408C0180E190E00E94BB10D8018D9355
:1003D0009D938D01C15CDB4FE881F981CF53D440FF
:1003E000EA17FB0779F76E01FFEFCF1AFBEFDF0A81
:1003F00082E1D6011D928A95E9F7D301ED91FC9136
:1004000011978EE480832FE42183828395E4938384
:100410001482158216821782108611861286138620
:1004200014861586168617861296ED91FC91139701
:10043000808321838283938314821582168217829C
:1004400010861186128613861486158616861786E0
:100450001496ED91FC911597808321838283938379
:1004600014821582168217821086118612861386D0
:1004700014861586168617861696ED91FC911797A9
:10048000808321838283938314821582168217824C
:100490001086118612861386148615861686178690
:1004A0001896ED91FC911997808321838283938321
:1004B0001482158216821782108611861286138680
:1004C00014861586168617861A96ED91FC911B9751
:1004D00080832183828393831482158216821782FC
:1004E0001086118612861386148615861686178640
:1004F0001C96ED91FC911D978083218382839383C9
:10050000148215821682178210861186128613862F
:1005100014861586168617861E96ED91FC911F97F8
:1005200080832183828393831482158216821782AB
:1005300010861186128613861486158616861786EF
:100540005096ED91FC915197148215821682178274
:1005500010861186128613861486158616861786CF
:1005600081E480838CE48183828313822E01B1E055
:100570004B0E5B1E80E091E0F2019C011192215034
:100580003040E1F79E012F5F3C4FCD5CDB4F39835C
:100590002883C353D440CE018F5F9D4F1C01C55C9F
:1005A000DB4F79826882CB53D440D90180E091E05F
:1005B000FC011D923197E9F7D101FC011D923197A1
:1005C000E9F7FFEF27EA31E6F15020403040E1F74C
:1005D00000C00000FE01EF5FFC4F8091C00087FF6C
:1005E000FCCF8091C6008193882329F08A3011F0D6
:1005F0008D3099F71082CE018F5F9C4FCD5BDB4F22
:1006000099838883C354D440D101FC019191809196
:10061000C00085FFFCCF9D93EC15FD05B9F7D10116
:100620008C918033B1F1882309F416C7E0E0F3E040
:1006300094E68091C00085FFFCCF9093C600919115
:100640009111F7CFD1019C918091C00085FFFCCF23
:100650009093C600F10191818091C00085FFFCCF8D
:100660009093C6008091C00085FFFCCF8AE0809304
:10067000C600FFEF29E638E1F15020403040E1F7B5
:1006800000C00000CD5CDB4FA881B981C353D440CA
:100690008DCF11968C91803309F45AC3813309F4BC
:1006A0009FC3823309F44AC1833309F468C0843399
:1006B00009F456C0853309F443C0863391F187337A
:1006C00001F1883379F08933A1F6E0EDF2E096E4A8
:1006D0008091C00085FFFCCF9093C600919191114D
:1006E000F7CFC7CFE0EDF2E096E48091C00085FF40
:1006F000FCCF9093C60091919111F7CFF1018181C8
:10070000E2CFE0EDF2E096E48091C00085FFFCCFFF
:100710009093C60091919111F7CFD10111968C91D0
:10072000D0CFE0EDF2E096E48091C00085FFFCCFF1
:100730009093C60091919111F7CFF1018181BFCFC4
:10074000E0EDF2E096E48091C00085FFFCCF90934D
:10075000C60091919111F7CFD10111968C91ADCF37
:10076000E0EDF2E096E48091C00085FFFCCF90932D
:10077000C60091919111F7CFF10181819BCFF101D9
:10078000E280EE2011F40C94340EF380FF2011F47B
:100790000C94A90F0481002311F40C949A0F158175
:1007A000112311F40C948C0FB681BB2311F40C941B
:1007B0007F0FA781AA2311F40C94730F90849920C2
:1007C00011F40C94680FA184AA2011F40C945E0F0C
:1007D0007285772311F40C94550F6385662311F409
:1007E0000C944D0F5485552311F40C94460F4585F8
:1007F000442311F40C94400F3685332311F40C94E8
:100800003B0F2785222311F40C94E00E8089882366
:1008100011F40C94300E9189EE2011F40C94340EE6
:10082000F201B080EB107AC0FF2011F40C94F10FAC
:10083000F201E180FE1072C0002311F40C94EC0F61
:10084000F201F2800F116AC0112311F40C94E70F2A
:10085000F2010381011362C0BB2311F40C94E20F77
:10086000F2011481B1135AC0AA2311F40C94DD0FC4
:10087000F201B581AB1352C0992011F40C94D80F3A
:10088000F201A681A9114AC0AA2011F40C94D20F3A
:10089000F781FA1143C0772311F40C94CC0FD201E5
:1008A0001896EC917E133AC0662311F40C9408104C
:1008B000D20119967C91671331C0552311F40C9421
:1008C0000210D2011A966C91561328C0442311F4D9
:1008D0000C94FC0FD2011B965C9154131FC0332360
:1008E00011F40C94F60FD2011C964C91341316C0DF
:1008F000222311F40C94C60FD2011D963C912313B0
:100900000DC0882311F40C94C00FD2011E962C91B7
:10091000281304C0992311F40C94B90FEAE2F2E011
:1009200084E59091C00095FFFCCF8093C600819133
:100930008111F7CFD10111968C91B9CECD5EDB4FED
:100940001882C351D440CC5EDB4F1882C451D440CE
:10095000CB5EDB4F1882C551D440CA5EDB4F188294
:10096000C651D440C95EDB4F1882C751D440C85E1F
:10097000DB4F1882C851D440C75EDB4F1882C95183
:10098000D440C65EDB4F1882CA51D440C55EDB4FEF
:100990001882CB51D440C45EDB4F1882CC51D44076
:1009A000C35EDB4F1882CD51D440C25EDB4F18824C
:1009B000CE51D440C15EDB4F1882CF51D440C05ECF
:1009C000DB4F1882C052D440CF5DDB4F1882C1523A
:1009D000D440CE5DDB4F1882C252D440FE01319626
:1009E000CD5BDB4FA881B981C354D4409D918091E8
:1009F000C00085FFFCCF9193AC15BD05B9F78E8182
:100A0000882311F40C94280E9B81CD5EDB4F9883D4
:100A1000C351D4403F81332311F40C94200E9C81A8
:100A2000CC5EDB4F9883C451D4402885222311F437
:100A30000C94180E9D81CB5EDB4F9883C551D4403A
:100A40009985992311F40C94100ECA5EDB4F8883AC
:100A5000C651D4408A85882311F40C94080EC95ECF
:100A6000DB4F3883C751D4403B85332311F40C94BA
:100A7000000EC85EDB4F2883C851D4402C8522234A
:100A800011F40C94F80DC75EDB4F9883C951D44024
:100A90009D85992311F40C94F00DC65EDB4F88837D
:100AA000CA51D4408E85882311F40C94E80DC55E9C
:100AB000DB4F3883CB51D4403F85332311F40C9462
:100AC000E00DC45EDB4F2883CC51D440288922231B
:100AD00011F40C94D80DC35EDB4F9883CD51D440F4
:100AE0009989992311F40C94D00DC25EDB4F888351
:100AF000CE51D4408A89882311F40C94C80DC15E6C
:100B0000DB4F3883CF51D4403B89332311F40C940D
:100B1000C00DC05EDB4F2883C052D4402C892223F5
:100B200011F40C94EC0ECF5DDB4F9883C152D4408E
:100B30009D89992311F40C94E40ECE5DDB4F8883DC
:100B4000C252D44044E150E0A3E1B0E062E170E081
:100B5000CD5EDB4F6880C351D440C55CDB4FA880BD
:100B6000B980CB53D440812C912CEE24E394F12C0A
:100B700003E114E00C0F1D1F0F5F1F4F762C20E0C8
:100B800030E0772009F441C0F50180819181FC01BA
:100B9000E20FF31FE081EE23C1F1E715E1F0E12C54
:100BA000F12C2FEF821A920A32E0A30EB11C89E0D9
:100BB00088169104E9F6E3E6F2E083E49091C00040
:100BC00095FFFCCF8093C60081918111F7CFD101B1
:100BD00011968C9169CD2F5F3F4FF80171908F0175
:100BE000772051F0FC01E20FF31F80818823B9F2D6
:100BF000EE24E394F12CC5CFFC01E20FF31F8081BA
:100C00008111CDCFEE24E394F12CF1E0EF16F10445
:100C100041F610E3180DE1E0F0E0EC0FFD1FE60FE8
:100C2000F71F808190E0C097E4E6E89F9001E99F7C
:100C3000300D1124E1E0F0E0EC0FFD1FEA0FFB1F87
:100C4000808190E0C097FC01EE0FFF1F880F991F75
:100C5000880F991F880F991F8E0F9F1F280F391F0C
:100C6000E1E0F0E0EC0FFD1FE40FF51F808190E064
:100C7000C097280F391FF401EE0FFF1FEC0DFD1D6B
:100C800031832083F8E08F16910411F40C940E1038
:100C9000F4013197E730F10508F454C030938B002C
:100CA00020938A00E0E4F2E093E78091C00085FFA2
:100CB000FCCF9093C60091919111F7CF8091C00025
:100CC00085FFFCCF1093C600EFE9F2E090E280913F
:100CD000C00085FFFCCF9093C60091919111F7CF92
:100CE000E1E0F0E0EC0FFD1FE60FF71F808190912F
:100CF000C00095FFFCCF8093C60021E030E02C0FB0
:100D00003D1FA20FB31F8C919091C00095FFFCCFA7
:100D10008093C600E1E0F0E0EC0FFD1FE40FF51F4B
:100D200080819091C00095FFFCCF8093C600809198
:100D3000C00085FFFCCF8AE08093C600D1011196E8
:100D40008C91B2CC8827E558FF4F8F4F0C949F10A1
:100D5000AE014F5F5F4FB2019201FE01EF5FFC4FAA
:100D600091918091C00085FFFCCFDA019D93AD0188
:100D7000D9011D929D01EC15FD0591F78B8188230A
:100D800041F0FE013496DB018D93BD01819181110B
:100D9000FACFE7E0F2E09DE48091C00085FFFCCF50
:100DA0009093C60091919111F7CFF2019081992310
:100DB00051F031968091C00085FFFCCF9093C60022
:100DC00091919111F7CF8091C00085FFFCCF8AE00F
:100DD0008093C600D10111968C91813309F061CCCA
:100DE0009E012F5F3F4FFE01EF5FFC4F919180917D
:100DF000C00085FFFCCFD9019D939D01EC15FD0539
:100E0000A9F72B8130E0F901F097C35CDB4FF98340
:100E1000E883CD53D440389708F0B4C4CD5DDB4FA0
:100E20001882C352D440CD5EDB4F1882C351D440E8
:100E3000CC5DDB4F1882C452D440CC5EDB4F1882AD
:100E4000C451D440CB5DDB4F1882C552D440CB5E39
:100E5000DB4F1882C551D440CA5DDB4F1882C652A1
:100E6000D440CA5EDB4F1882C651D440C95DDB4F07
:100E70001882C752D440C95EDB4F1882C751D44094
:100E8000C85DDB4F1882C852D440C85EDB4F188261
:100E9000C851D440C75DDB4F1882C952D440C75EE9
:100EA000DB4F1882C951D440C65DDB4F1882CA524D
:100EB000D440C65EDB4F1882CA51D440C55DDB4FBB
:100EC0001882CB52D440C55EDB4F1882CB51D44040
:100ED000C45DDB4F1882CC52D440C45EDB4F188215
:100EE000CC51D440C35DDB4F1882CD52D440C35E99
:100EF000DB4F1882CD51D440C25DDB4F1882CE52F9
:100F0000D440C25EDB4F1882CE51D440C15DDB4F6E
:100F10001882CF52D440C15EDB4F1882CF51D440EB
:100F2000C05DDB4F1882C053D440C05EDB4F1882D7
:100F3000C052D440CF5CDB4F1882C153D440CF5D48
:100F4000DB4F1882C152D440CE5CDB4F1882C253B3
:100F5000D440CE5DDB4F1882C252D4402C812A325D
:100F600009F400C4CD5DDB4F2883C352D4408D818A
:100F70008A3209F4F2C3CC5DDB4F8883C452D4407B
:100F80008E818A3209F4E4C3CB5DDB4F8883C5527E
:100F9000D4408F818A3209F4D6C3CA5DDB4F88837F
:100FA000C652D44088858A3209F4C8C3C95DDB4F74
:100FB0008883C752D44089858A3209F4BAC3C85D90
:100FC000DB4F8883C852D4408A858A3209F4ACC387
:100FD000C75DDB4F8883C952D4408B858A3209F4C0
:100FE0009EC3C65DDB4F8883CA52D4408C858A324B
:100FF00009F490C3C55DDB4F8883CB52D4408D8507
:101000008A3209F482C3C45DDB4F8883CC52D4405A
:101010008E858A3209F474C3C35DDB4F8883CD5259
:10102000D4408F858A3209F466C3C25DDB4F888362
:10103000CE52D44088898A3209F458C3C15DDB4F4F
:101040008883CF52D44089898A3209F44AC3C05D6B
:10105000DB4F8883C053D4408A898A3209F43CC369
:10106000CF5CDB4F8883C153D4408B898A3209F42B
:101070002EC3CE5CDB4F8883C253D44045E150E0A1
:1010800084E190E0E1E0F0E0EC0FFD1FE80FF91FD4
:10109000F080FF2009F4F1C2C65CDB4FF882CA532E
:1010A000D440FF2DCD5EDB4FF883C351D440E1E047
:1010B000F0E0EC0FFD1FE40FF51F3081C75CDB4F44
:1010C0003883C953D440332309F4B6C2CC5EDB4F16
:1010D0003883C451D440E3E0F0E0EC0FFD1FE80F8B
:1010E000F91F5081C85CDB4F5883C853D440552347
:1010F00009F481C2CB5EDB4F5883C551D440E4E094
:10110000F0E0EC0FFD1FE80FF91FA081C95CDB4F79
:10111000A883C753D440AA2309F451C2CA5EDB4F47
:10112000A883C651D440E5E0F0E0EC0FFD1FE80FC6
:10113000F91F2081CA5CDB4F2883C653D440222389
:1011400009F426C2C95EDB4F2883C751D440E6E0CC
:10115000F0E0EC0FFD1FE80FF91F5081CB5CDB4F77
:101160005883C553D440552309F400C2C85EDB4FF1
:101170005883C851D440E7E0F0E0EC0FFD1FE80FC2
:10118000F91F6080662009F4E0C1C75EDB4F68820A
:10119000C951D440E8E0F0E0EC0FFD1FE80FF91F63
:1011A0000081002309F4C1C1C65EDB4F0883CA5128
:1011B000D440E9E0F0E0EC0FFD1FE80FF91F80805C
:1011C000882009F4A3C1C55EDB4F8882CB51D4408F
:1011D000EAE0F0E0EC0FFD1FE80FF91F70807720C8
:1011E00009F486C1C45EDB4F7882CC51D440EBE079
:1011F000F0E0EC0FFD1FE80FF91F1081112309F437
:101200006AC1C35EDB4F1883CD51D440ECE0F0E0FF
:10121000EC0FFD1FE80FF91F9080992009F44FC1D2
:10122000C25EDB4F9882CE51D440EDE0F0E0EC0F8F
:10123000FD1FE80FF91FA080AA2009F435C1C15E87
:10124000DB4FA882CF51D440EEE0F0E0EC0FFD1F61
:10125000E80FF91FB080BB2009F41CC1C05EDB4F52
:10126000B882C052D440EFE0F0E0EC0FFD1FE80F71
:10127000F91FE080EE2009F404C1CF5DDB4FE88266
:10128000C152D440E0E1F0E0EC0FFD1FE80FF91F80
:10129000F080FF2009F4EDC0CE5DDB4FF882C25232
:1012A000D440CD5DDB4F2881C352D44080E190E033
:1012B000222309F4B6C3D2013C912313BEC0CC5DF6
:1012C000DB4F2881C452D440222309F4CFC5D20178
:1012D00011963C913213B1C0CB5DDB4F2881C552D2
:1012E000D440222309F4BDC5D20112963C91321399
:1012F000A4C0CA5DDB4F2881C652D440222309F422
:10130000ABC5D20113963C91321397C0C95DDB4F38
:101310002881C752D440222309F499C5D2011496DA
:101320003C9132138AC0C85DDB4F2881C852D4403B
:10133000222309F487C5D20115963C9132137DC052
:10134000C75DDB4F2881C952D440222309F475C5FB
:10135000D20116963C91321370C0C65DDB4F2881D6
:10136000CA52D440222309F463C5D20117963C9196
:10137000321363C0C55DDB4F2881CB52D44022239A
:1013800009F451C5D20118963C91321356C0C45D80
:10139000DB4F2881CC52D440222309F409C3D20167
:1013A00019963C91231349C0C35DDB4F2881CD5270
:1013B000D440222309F4F7C2D2011A963C91321389
:1013C0003CC0C25DDB4F2881CE52D440222309F4B9
:1013D000F4C2D2011B963C9132132FC0C15DDB4F8A
:1013E0002881CF52D440222309F4F4C1D2011C96A3
:1013F0003C91231322C0C05DDB4F2881C053D440F1
:10140000222309F41AC3D2011D963C91321315C050
:10141000CF5CDB4F2881C153D440222309F4BEC2E4
:10142000D2011E963C91321308C0CE5CDB4F28815E
:10143000C253D440222309F4C5C2EAE2F2E084E5B3
:101440009091C00095FFFCCF8093C60081918111DF
:10145000F7CFF101818125C9EEEEF2E094E78091AA
:10146000C00085FFFCCF9093C60091919111F7CFFA
:10147000DDC8CD5DDB4F2881C352D4408FE090E0C2
:1014800017CFCD5DDB4F2881C352D440F12C8EE0C5
:1014900090E00ECFCD5DDB4F2881C352D440F12CBC
:1014A000E12C8DE090E004CFCD5DDB4F2881C3526D
:1014B000D440F12CE12CB12C8CE090E0F9CECD5D44
:1014C000DB4F2881C352D440F12CE12CB12CA12C4C
:1014D0008BE090E0EDCECD5DDB4F2881C352D44050
:1014E000F12CE12CB12CA12C912C8AE090E0E0CEE3
:1014F000CD5DDB4F2881C352D440F12CE12CB12CBF
:10150000A12C912C10E089E090E0D2CECD5DDB4F94
:101510002881C352D440F12CE12CB12CA12C912C68
:1015200010E0712C88E090E0C3CECD5DDB4F2881C8
:10153000C352D440F12CE12CB12CA12C912C10E001
:10154000712C812C87E090E0B3CECD5DDB4F2881FC
:10155000C352D440F12CE12CB12CA12C912C10E0E1
:10156000712C812C00E086E090E0A2CECD5DDB4FB7
:101570002881C352D440F12CE12CB12CA12C912C08
:1015800010E0712C812C00E0612C85E090E090CE81
:10159000CD5DDB4F2881C352D440F12CE12CB12C1E
:1015A000A12C912C10E0712C812C00E0612CCB5CE3
:1015B000DB4F1882C553D44084E090E079CECD5DF6
:1015C000DB4F2881C352D440F12CE12CB12CA12C4B
:1015D000912C10E0712C812C00E0612CCB5CDB4F56
:1015E0001882C553D440CA5CDB4F1882C653D4401E
:1015F00083E090E05DCECD5DDB4F2881C352D440C7
:10160000F12CE12CB12CA12C912C10E0712C812C0F
:1016100000E0612CCB5CDB4F1882C553D440CA5C20
:10162000DB4F1882C653D440C95CDB4F1882C753C6
:10163000D44082E090E03CCEF12CE12CB12CA12CE6
:10164000912C10E0712C812C00E0612CCB5CDB4FE5
:101650001882C553D440CA5CDB4F1882C653D440AD
:10166000C95CDB4F1882C753D440C85CDB4F18827B
:10167000C853D44081E090E01BCEE12CB12CA12CCA
:10168000912C10E0712C812C00E0612CCB5CDB4FA5
:101690001882C553D440CA5CDB4F1882C653D4406D
:1016A000C95CDB4F1882C753D440C85CDB4F18823B
:1016B000C853D440C75CDB4F1882C953D440C65CC2
:1016C000DB4F1882CA53D44080E090E0F1CD44E172
:1016D00050E083E190E0D6CC43E150E082E190E03D
:1016E000D1CC42E150E081E190E0CCCC41E150E04E
:1016F00080E190E0C7CC40E150E08FE090E0C2CCC8
:101700004FE050E08EE090E0BDCC4EE050E08DE048
:1017100090E0B8CC4DE050E08CE090E0B3CC4CE0F1
:1017200050E08BE090E0AECC4BE050E08AE090E0FF
:10173000A9CC4AE050E089E090E0A4CC49E050E038
:1017400088E090E09FCC48E050E087E090E09ACCC1
:1017500047E050E086E090E095CC46E050E085E040
:1017600090E090CC8D80882009F432C1C65CDB4FBC
:101770008882CA53D44020E045E050E084E090E005
:10178000F82D90CCE8E1F2E083E49091C00095FF61
:10179000FCCF8093C60081918111F7CF80E090E06B
:1017A000C75BDB4F0FB6F894DEBF0FBECDBFDF9136
:1017B000CF911F910F91FF90EF90DF90CF90BF904E
:1017C000AF909F908F907F906F905F904F903F90E1
:1017D0002F900895F201248521112FCECD5EDB4F8D
:1017E0003881C351D440CB5BDB4F3883C554D440E0
:1017F000C55CDB4FA881B981CB53D440CA5BDB4FBA
:1018000099838883C654D4409F2DF72CCF5BDB4F40
:10181000D982C882C154D440E3E1F4E0EC0FFD1F4B
:101820003196CB5BDB4FD880C554D44060E070E08C
:1018300040E050E0C92EC85BDB4FF983E883C85411
:10184000D440DD2009F41AC12D913C911197C901B2
:10185000860F971FFC018081882309F40FC18D1525
:1018600009F4F0C09C2D1296C15CDB4F28813981B0
:10187000CF53D440A217B30779F67F2CF92ECA5B59
:10188000DB4F88819981C654D440CF5BDB4FC88041
:10189000D980C154D440009709F428C4C35CDB4FFD
:1018A00028813981CD53D440220F331FC55CDB4FD3
:1018B00048815981CB53D440420F531FDA01ED9137
:1018C000FC91C65CDB4FB881CA53D440B0838130F1
:1018D000910509F0F5C011821282138214821582DB
:1018E0001682178210861186128613861486158634
:1018F00016861786F601E20FF31F11821082CD5D66
:10190000DB4F8881C352D440882371F0E3E2F4E0D6
:10191000EC0FFD1F31969091C00095FFFCCF809396
:10192000C60081918111F7CFECE3F2E080E2909163
:10193000C00095FFFCCF8093C60081918111F7CF45
:101940008B819091C00095FFFCCF8093C600E9E0A9
:10195000F2E080E29091C00095FFFCCF8093C6003A
:1019600081918111F7CFDA01ED91FC91808188237B
:1019700051F031969091C00095FFFCCF8093C60046
:1019800081918111F7CF8091C00085FFFCCF8AE063
:101990008093C600F10181810C945103F2012685E8
:1019A00021114BCD1BCFF2012285211146CD16CF3F
:1019B000F2012185211141CD11CFF20123852111A1
:1019C0003CCD0CCFD2011F962C91211136CD06CFE4
:1019D000F12CE12CB12CA12C912C10E0712C00E009
:1019E000612CCB5CDB4F1882C553D440CA5CDB4F03
:1019F0001882C653D440C95CDB4F1882C753D44009
:101A0000C85CDB4F1882C853D440C75CDB4F1882D8
:101A1000C953D440C65CDB4F1882CA53D44080E01F
:101A200090E0F2013081332309F4D8CE20E045CC98
:101A3000309399002093980035C9F2012585211132
:101A4000FCCCCCCE6F5F7F4FC85BDB4FE881F98168
:101A5000C854D440D190C85BDB4FF983E883C854A5
:101A6000D440DD2069F0260F371FF90180818823DB
:101A700009F4F8CE41E050E0D110E6CE9C2D09C02B
:101A80009C2DF901E60FF71F20812111ECCE41E0DA
:101A900050E04130510509F0E6CECF5BDB4FC88006
:101AA000D980C154D440E8E4F2E093E48091C000CE
:101AB00085FFFCCF9093C60091919111F7CFC9CCCF
:101AC000C75CDB4F6881C953D44061838230910584
:101AD00009F402CFC85CDB4FA881C853D440A2836D
:101AE0008330910509F4F9CEC95CDB4FB881C75347
:101AF000D440B3838430910509F4F0CECA5CDB4F47
:101B00006881C653D44064838530910509F4E7CEDB
:101B1000CB5CDB4FA881C553D440A58386309105AB
:101B200009F4DECE66828730910509F4DACE0783A8
:101B30008830910509F4D6CE80868930910509F464
:101B4000D2CE71868A30910509F4CECE12878B30C1
:101B5000910509F4CACE93868C30910509F4C6CE5E
:101B6000A4868D30910509F4C2CEB5868E309105DC
:101B700009F4BECEE686409709F0BBCEF786BACE12
:101B800041E150E0A0E1B0E06FE070E00C94A80506
:101B900040E150E0AFE0B0E06EE070E00C94A805EA
:101BA0004FE050E0AEE0B0E06DE070E00C94A805CE
:101BB0004EE050E0ADE0B0E06CE070E00C94A805C1
:101BC0004DE050E0ACE0B0E06BE070E00C94A805B4
:101BD0004CE050E0ABE0B0E06AE070E00C94A805A7
:101BE0004BE050E0AAE0B0E069E070E00C94A8059A
:101BF0004AE050E0A9E0B0E068E070E00C94A8058D
:101C000049E050E0A8E0B0E067E070E00C94A8057F
:101C100048E050E0A7E0B0E066E070E00C94A80572
:101C200047E050E0A6E0B0E065E070E00C94A80565
:101C300046E050E0A5E0B0E064E070E00C94A80558
:101C400045E050E0A4E0B0E063E070E00C94A8054B
:101C500044E050E0A3E0B0E062E070E00C94A8053E
:101C600090E0E1100C941004D2018C9181110C943D
:101C70008E04E8EAF2E094E48091C00085FFFCCF96
:101C80009093C60091919111F7CFF2019081992321
:101C900051F031968091C00085FFFCCF9093C60033
:101CA00091919111F7CFF601C55CDB4F0881198145
:101CB000CB53D44040E39CE9A92E26EFB22EA7ECEB
:101CC000B2E09AE08091C00085FFFCCF9093C600FF
:101CD0009D919111F7CF8091C00085FFFCCF40937B
:101CE000C600A6EBB2E090E28091C00085FFFCCF79
:101CF0009093C6009D919111F7CFD8012D913D9100
:101D00008D01D9019C91992359F0D90111968091A7
:101D1000C00085FFFCCF9093C6009D919111F7CF35
:101D2000AEEBB2E099E08091C00085FFFCCF9093CC
:101D3000C6009D919111F7CF9F018081918164E64A
:101D400070E00E948B10DB01D0968091C00085FF6F
:101D5000FCCFA093C6005A2D56037001579FF00C7C
:101D60001124808191818E0D9F1D6AE070E00E9498
:101D70008B10DB01D0968091C00085FFFCCFA09333
:101D8000C6003296D9012D913C912E0D3F1D5B2D41
:101D90005603C001579F900D1124280F391F205D55
:101DA0003F4F8091C00085FFFCCF2093C6004F5F5E
:101DB000483309F084CFD10111968C910C945703CC
:101DC00090E080E00C940C0443E150E0A2E1B0E02C
:101DD00061E170E00C94A80542E150E0A1E1B0E0BF
:101DE00060E170E00C94A8053093A9002093A8004E
:101DF0000C9452063093AB002093AA000C94520628
:101E00002093B3000C9452063093890020938800ED
:101E10000C94520628BD0C94520630939B002093DC
:101E20009A000C945206F2012085211106CBD6CCE3
:101E3000F2012781211101CBD1CCF20126812111A0
:101E4000FCCACCCCF20125812111F7CAC7CCF20122
:101E500024812111F2CAC2CCF20123812111EDCAE1
:101E6000BDCCF20122812111E8CAB8CCF201218156
:101E70002111E3CAB3CC90E080E020E00C940C0484
:101E800090E080E020E030E00C940C0490E080E0F2
:101E900020E030E040E00C940C0490E080E020E092
:101EA00030E040E050E00C940C0490E080E020E052
:101EB00030E040E050E060E00C940C0490E080E002
:101EC00020E030E040E050E060E070E00C940C0472
:101ED00090E080E020E030E040E050E060E070E042
:101EE000A12C0C940C0490E080E020E030E040E075
:101EF00050E060E070E0A12C912C0C940C0490E078
:101F000080E020E030E040E050E060E070E0A12CB4
:101F1000912CA0E00C940C0490E080E020E030E0F4
:101F200040E050E060E070E0A12C912CA0E0B0E037
:101F30000C940C0490E080E020E030E040E050E0C1
:101F400060E070E0A12C912CA0E0B0E010E00C94D7
:101F50000C0490E080E020E030E040E050E060E001
:101F600070E0A12C912CA0E0B0E010E000E00C9417
:101F70000C04D2011F968C9181110C948E0479CEA1
:101F8000F201868581110C948E0473CEF201858551
:101F900081110C948E046DCEF201808581110C9418
:101FA0008E0467CEF201878181110C948E0461CE7C
:101FB000868181110C948E045CCE858181110C94F4
:101FC0008E0457CE848181110C948E0452CE83816D
:101FD00081110C948E044DCE828181110C948E045B
:101FE00048CE818181110C948E0443CEF201848508
:101FF00081110C948E043DCEF201838581110C94E5
:102000008E0437CEF201828581110C948E0431CE7C
:10201000F201818581110C948E042BCEF60131835F
:102020002083338322833583248337832683318738
:10203000208733872287358724873787268728BDDF
:102040003093A9002093A8003093AB002093AA00FE
:102050002093B300309389002093880030938B0045
:1020600020938A00309399002093980030939B002E
:1020700020939A00EEE7F2E081E49091C00095FF92
:10208000FCCF8093C60081918111F7CFE1E0F0E0B1
:10209000EC0FFD1FE60FF71F80819091C00095FFA8
:1020A000FCCF8093C60081E090E08C0F9D1FA80FAD
:1020B000B91F8C919091C00095FFFCCF8093C60012
:1020C000E1E0F0E0EC0FFD1FE40FF51F808190913F
:1020D000C00095FFFCCF8093C6008091C00085FFB3
:1020E000FCCF8AE08093C6000C949E06C35CDB4F55
:1020F00028813981CD53D440220F331FC55CDB4F7B
:1021000048815981CB53D440420F531FDA01ED91DE
:10211000FC911082E0CB97FB072E16F4009407D0B9
:1021200077FD09D00E94A71007FC05D03EF49095DA
:1021300081959F4F0895709561957F4F0895EE0F9B
:10214000FF1F881F8BBF0790F691E02D1994AA1BE3
:10215000BB1B51E107C0AA1FBB1FA617B70710F092
:10216000A61BB70B881F991F5A95A9F780959095C4
:10217000BC01CD0108950F931F93CF93DF9382305D
:10218000910510F482E090E0E0911603F0911703BE
:1021900020E030E0A0E0B0E0309719F140815181BB
:1021A0000281138148175907C8F08417950769F40D
:1021B000109731F012960C93129713961C9327C028
:1021C000009316031093170322C02115310519F04F
:1021D0004217530718F49A01BD01EF01DF01F8011E
:1021E000DBCF21153105F9F0281B390B24303105DF
:1021F00080F48A819B816115710521F0FB01938335
:10220000828304C09093170380931603FE013296D5
:1022100044C0FE01E20FF31F8193919322503109D4
:10222000398328833AC02091140330911503232B5E
:1022300041F4209102023091030230931503209360
:10224000140320910002309101022115310541F45F
:102250002DB73EB74091040250910502241B350B67
:10226000E0911403F0911503E217F307A0F42E1B7D
:102270003F0B2817390778F0AC014E5F5F4F2417EA
:10228000350748F04E0F5F1F50931503409314031A
:102290008193919302C0E0E0F0E0CF01DF91CF9114
:1022A0001F910F910895CF93DF93009709F481C098
:1022B000FC01329713821282A0911603B09117038A
:1022C000109781F420813181820F931F2091140394
:1022D000309115032817390751F5F0931503E09352
:1022E000140367C0ED0120E030E0CE17DF0740F4B3
:1022F0004A815B819E0141155105F1F0EA01F5CF5C
:10230000D383C28340815181840F951FC817D90799
:1023100059F488819981840F951F02969183808357
:102320008A819B81938382832115310529F4F0935F
:102330001703E09316033DC0E901FB83EA8349914B
:102340005991C40FD51FEC17FD0761F4808191816D
:10235000840F951F0296E901998388838281938176
:102360009B838A83E0E0F0E012968D919C91139715
:10237000009719F0FD01DC01F7CF8D919C91119729
:102380009D012E5F3F4F820F931F209114033091C8
:1023900015032817390769F4309729F410921703A9
:1023A0001092160302C013821282B0931503A093F9
:0C23B0001403DF91CF910895F894FFCF43
:1023BC000000180320004D79206E6577206E616D4A
:1023CC00652069733A20004368616E6E656C206EFF
:1023DC006F742076616C6964005468612773206E99
:1023EC006F74206D79206E616D6500202D3E207319
:1023FC0077697463685F004368616E6E656C206E0C
:10240C00616D6520616C72656164792065786973B2
:10241C0074004368616E6E656C206E616D6520643E
:10242C006F65736E277420657869737400414C4C2A
:10243C00206368616E6E656C7320617265206E6FCF
:10244C00772073657474656420746F3A200020766D
:10245C00616C75653A2000446576696365206E6130
:10246C006D653A2000204E616D653A200009766159
:10247C006C75653A20000A5377697463685F00468F
:10248C00756E6374696F6E206E6F7420796574203D
:10249C00696D706C656D656E7465640A0074657346
:1024AC00746F5B305D203D3D204E554C4C0A0064F2
:1024BC00696F62656C6C6F6573696D70617469636B
:0424CC006F0A000093
:00000001FF
