:100000000C948A000C94AB000C94AB000C94AB00E5
:100010000C94AB000C94AB000C94AB000C94AB00B4
:100020000C94AB000C94AB000C94AB000C94AB00A4
:100030000C94AB000C94AB000C94AB000C94AB0094
:100040000C94AB000C94AB000C94AB000C94AB0084
:100050000C94AB000C94AB000C94AB000C94AB0074
:100060000C94AB000C94AB000C94AB000C94AB0064
:100070000C94AB000C94AB000C94AB000C94AB0054
:100080000C94AB000C94AB000C94AB000C94AB0044
:100090000C94AB000C94AB000C94AB000C94AB0034
:1000A0000C94AB000C94AB000C94AB000C94AB0024
:1000B0000C94AB000C94AB000C94AB000C94AB0014
:1000C0000C94AB000C94AB000C94AB000C94AB0004
:1000D0000C94AB000C94AB000C94AB000C94AB00F4
:1000E0000C94AB004D0167016E01750179017D0132
:1000F000460143010C944D010C9467010C947D0161
:100100000C9475010C9479010C946E010C944301CC
:100110000C94460111241FBECFEFD1E2DEBFCDBF4C
:1001200000E00CBF12E0A0E0B2E0ECE4F0E200E09E
:100130000BBF02C007900D92A43FB107D9F722E090
:10014000A4EFB2E001C01D92A83FB207E1F70E9400
:1001500084010C9424100C9400001092C50082E3DA
:100160008093C40086E08093C20088E98093C10038
:1001700008959091C00095FFFCCF8093C60008952C
:100180009091C00095FFFCCF08958091C00087FF3B
:10019000FCCF8091C6000895FC019091C00097FFAC
:1001A000FCCF9091C6009193992329F09A3011F0D9
:1001B0009D3099F711929E2F981B892F0895FC016D
:1001C0002081222351F031969091C00095FFFCCF01
:1001D0002093C60021912111F7CF089584B5836A39
:1001E00084BDE0E8F0E08081836A8083E0EBF0E0AA
:1001F0008081836A8083E0EAF0E08081836A808383
:1002000085B5896085BDE1E8F0E080818960808303
:10021000E1EBF0E0808189608083E1EAF0E08081B9
:1002200089608083279A269A259A249A9D9AE1E0EC
:10023000F1E080818064808380818061808380811F
:100240008860808317BC10928B0010928A001092F5
:100250008900109288001092B3001092B40010929E
:10026000A9001092A8001092AB001092AA0018BC2E
:1002700008958830910548F4FC018827EE58FF4F17
:100280008F4F0C94E70E8CE488BD08958CE490E0C9
:100290009093AB008093AA0008958CE487BD2CE472
:1002A00030E030938B0020938A00309389002093B4
:1002B00088008093B3008093B4003093A90020930A
:1002C000A8003093AB002093AA0088BD08958CE469
:1002D00090E090938B0080938A0008958CE490E0E6
:1002E000909389008093880008958CE48093B300F4
:1002F00008958CE48093B40008958CE490E090938A
:10030000A9008093A80008952F923F924F925F9288
:100310006F927F928F929F92AF92BF92CF92DF9215
:10032000EF92FF920F931F93CF93DF93CDB7DEB77A
:10033000CB54D4400FB6F894DEBF0FBECDBF0E94A1
:10034000EE001092C50082E38093C40086E08093A3
:10035000C20088E98093C10080E190E00E94030F11
:10036000CB5CDB4F99838883C553D4404096C05CF7
:10037000DB4F99838883C054D440CB5CDB4F08812A
:100380001981C553D44080E190E00E94030FD80149
:100390008D939D938D01C05CDB4FE881F981C05442
:1003A000D440EA17FB0779F79E012F5D3B4FCD5CE8
:1003B000DB4F39832883C353D44080E1D9011D9298
:1003C0008A95E9F7CB5CDB4FA881B981C553D4404E
:1003D000ED91FC9111978EE480832FE42183828339
:1003E00095E49383148215821682178210861186F3
:1003F0001286138614861586168617861296ED9138
:10040000FC911397808321838283938314821582C6
:100410001682178210861186128613861486158618
:10042000168617861496ED91FC911597808321838B
:100430008283938314821582168217821086118616
:100440001286138614861586168617861696ED91E3
:10045000FC91179780832183828393831482158272
:1004600016821782108611861286138614861586C8
:10047000168617861896ED91FC9119978083218333
:1004800082839383148215821682178210861186C6
:100490001286138614861586168617861A96ED918F
:1004A000FC911B978083218382839383148215821E
:1004B0001682178210861186128613861486158678
:1004C000168617861C96ED91FC911D9780832183DB
:1004D0008283938314821582168217821086118676
:1004E0001286138614861586168617861E96ED913B
:1004F000FC911F97808321838283938314821582CA
:100500001682178210861186128613861486158627
:10051000168617862E01B1E04B0E5B1E80E091E03F
:10052000F2019C01119221503040E1F7AE014F5F82
:100530005C4FCF5CDB4F59834883C153D440CE011D
:100540008F5F9D4F3C01DE01AF5FBB4F1D01FA0184
:1005500080E091E09C01119221503040E1F7D301FD
:10056000FC011D923197E9F7FFEF27EA31E6F150E0
:1005700020403040E1F700C00000FE01EF5FFC4F7B
:100580008091C00087FFFCCF8091C60081938823B3
:1005900029F08A3011F08D3099F71082AE014F5F4B
:1005A0005C4FCA5BDB4F59834883C654D440D301A8
:1005B000FA0191918091C00085FFFCCF9D93E215D7
:1005C000F305B9F7D3018C918033B1F1882309F495
:1005D0000EC6E0EEF2E094E68091C00085FFFCCF0D
:1005E0009093C60091919111F7CFD3019C91809186
:1005F000C00085FFFCCF9093C600F30191818091EC
:10060000C00085FFFCCF9093C6008091C00085FF9D
:10061000FCCF8AE08093C600FFEF29E638E1F15075
:1006200020403040E1F700C00000CF5CDB4FE881A4
:10063000F981C153D4408CCF11968C91803309F449
:10064000CFC2813309F414C3823309F447C1833321
:1006500009F468C0843309F456C0853309F443C0F3
:10066000863391F1873301F1883379F08933A1F62C
:10067000E0EBF2E096E48091C00085FFFCCF909320
:10068000C60091919111F7CFC7CFE0EBF2E096E46D
:100690008091C00085FFFCCF9093C600919191118D
:1006A000F7CFF3018181E2CFE0EBF2E096E48091B5
:1006B000C00085FFFCCF9093C60091919111F7CFB8
:1006C000D30111968C91D0CFE0EBF2E096E48091CB
:1006D000C00085FFFCCF9093C60091919111F7CF98
:1006E000F3018181BFCFE0EBF2E096E48091C0009E
:1006F00085FFFCCF9093C60091919111F7CFD30164
:1007000011968C91ADCFE0EBF2E096E48091C000C1
:1007100085FFFCCF9093C60091919111F7CFF30123
:1007200081819BCFF301E280EE2009F414C7F380AE
:10073000FF2011F40C94B50E0481002311F40C94E5
:10074000A60E1581112311F40C94C50EB681BB239E
:1007500011F40C94D10DA781AA2311F40C94720EFC
:10076000B084BB2011F40C94670EC184CC2011F42A
:100770000C945D0E7285772311F40C94540E6385EE
:10078000662311F40C94850E5485552311F40C94B2
:100790007E0E4585442311F40C948D0E368533234B
:1007A00009F4D4C62785222311F40C94D90B80892F
:1007B000882311F40C94D60B9189EE2009F4CBC652
:1007C000F201D080ED107AC0FF2011F40C944F0E8E
:1007D000F201E180EF1072C0002311F40C94450E79
:1007E000F201F2800F116AC0112311F40C944A0E29
:1007F000F2010381011362C0BB2311F40C94300E8B
:10080000F20114811B135AC0AA2311F40C943A0E5E
:10081000F201B581BA1352C0BB2011F40C94350E0D
:10082000F201A681BA124AC0CC2011F40C943F0EFA
:10083000F781CF1243C0772311F40C94CB0DD20172
:100840001896EC917E133AC0662311F40C94F00DC7
:10085000D20119967C91761331C0552311F40C9472
:10086000EA0DD2011A966C91561328C0442311F454
:100870000C94E40DD2011B965C9154131FC03323DA
:1008800011F40C94DE0DD2011C964C91431316C04A
:10089000222311F40C94A00ED2011D963C91321328
:1008A0000DC0882311F40C949A0ED2011E962C913F
:1008B000281304C0992311F40C94930EEAE2F2E099
:1008C00084E59091C00095FFFCCF8093C600819194
:1008D0008111F7CFD30111968C91BCCED1011C921E
:1008E00011961C92119712961C92129713961C92B5
:1008F000139714961C92149715961C92159716969A
:100900001C92169717961C92179718961C92189778
:1009100019961C9219971A961C921A971B961C925C
:100920001B971C961C921C971D961C921D971E9639
:100930001C921E971F961C92FE013196CA5BDB4FDC
:10094000A881B981C654D4409D918091C00085FF93
:10095000FCCF9193A215B305B9F78E81882309F4D2
:100960001CC79B81F10190833F81332309F40CC79D
:100970009C8191832885222309F4FDC69D81928361
:100980009985992309F4EEC683838A85882309F41F
:10099000E0C634833B85332309F4D2C625832C85F6
:1009A000222309F4C4C696839D85992309F4B6C60B
:1009B00087838E85882309F4A8C630873F85332333
:1009C00009F49AC621872889222309F48CC69287C4
:1009D0009989992309F47EC683878A89882309F433
:1009E00070C634873B89332309F462C625872C8976
:1009F000222311F40C94000E96879D89992311F4FB
:100A00000C94F60D878704E110E0F3E1EF2EF12C52
:100A1000A2E1CA2ED12CD1018C90CB5CDB4F688136
:100A20007981C553D440A12CB12C41E050E0D101D3
:100A30001196982C20E030E09920E1F1FB018081B3
:100A40009181FC01E20FF31FE081EE2399F1E9159A
:100A5000D9F040E050E0FFEFAF1ABF0A6E5F7F4F62
:100A600028E0A216B10419F7E3E6F2E093E48091DE
:100A7000C00085FFFCCF9093C60091919111F7CFF4
:100A8000D30111968C91E3CD2F5F3F4F9D9099201C
:100A900049F0FC01E20FF31F80818823D1F241E08D
:100AA00050E0CACFFC01E20FF31F80818111D1CF4A
:100AB00041E050E04130510571F680E3982E9A0CE8
:100AC000E1E0F0E0EC0FFD1FEC0DFD1D208130E0BA
:100AD0002053310984E6829FA001839F500D112489
:100AE000E1E0F0E0EC0FFD1FEE0DFF1D808190E0D6
:100AF000C0979C01220F331F880F991F880F991FE1
:100B0000880F991F820F931F840F951FE1E0F0E07B
:100B1000EC0FFD1FE00FF11F608170E06053710961
:100B2000680F791FF501EE0FFF1F21E234E02C0F53
:100B30003D1FE20FF31F71836083C5010E943901DD
:100B4000E0E4F2E093E78091C00085FFFCCF909352
:100B5000C60091919111F7CF8091C00085FFFCCF25
:100B60009092C600EEE7F2E090E28091C00085FF2F
:100B7000FCCF9093C60091919111F7CFE1E0F0E0A6
:100B8000EC0FFD1FEC0DFD1D80819091C00095FFC5
:100B9000FCCF8093C600E1E0F0E0EC0FFD1FEE0D0E
:100BA000FF1D80819091C00095FFFCCF8093C6000F
:100BB000E1E0F0E0EC0FFD1FE00FF11F808190916C
:100BC000C00095FFFCCF8093C6008091C00085FFD8
:100BD000FCCF8AE08093C600D30111968C9137CD6B
:100BE000AE014F5F5F4FB2019201FE01EF5FFC4F1C
:100BF00091918091C00085FFFCCFDA019D93AD01FA
:100C0000D9011D929D01E215F30591F78B8188238F
:100C100041F0FE013496DB018D93BD01819181117C
:100C2000FACFE7E0F2E09DE48091C00085FFFCCFC1
:100C30009093C60091919111F7CFF2019081992381
:100C400051F031968091C00085FFFCCF9093C60093
:100C500091919111F7CF8091C00085FFFCCF8AE080
:100C60008093C600D30111968C91813309F0ECCCAE
:100C70009E012F5F3F4FFE01EF5FFC4F91918091EE
:100C8000C00085FFFCCFD9019D939D01E215F305BE
:100C9000A9F74B8150E0FA01F097C45CDB4FF98370
:100CA000E883CC53D440389708F028C4CF5EDB4F9C
:100CB0001882C151D440D1011C92CE5EDB4F188204
:100CC000C251D44011961C921197CD5EDB4F188211
:100CD000C351D44012961C921297CC5EDB4F1882FF
:100CE000C451D44013961C921397CB5EDB4F1882ED
:100CF000C551D44014961C921497CA5EDB4F1882DB
:100D0000C651D44015961C921597C95EDB4F1882C8
:100D1000C751D44016961C921697C85EDB4F1882B6
:100D2000C851D44017961C921797C75EDB4F1882A4
:100D3000C951D44018961C921897C65EDB4F188292
:100D4000CA51D44019961C921997C55EDB4F188280
:100D5000CB51D4401A961C921A97C45EDB4F18826E
:100D6000CC51D4401B961C921B97C35EDB4F18825C
:100D7000CD51D4401C961C921C97C25EDB4F18824A
:100D8000CE51D4401D961C921D97C15EDB4F188238
:100D9000CF51D4401E961C921E97C05EDB4F188226
:100DA000C052D4401F961C924C814A3209F496C31B
:100DB000CF5EDB4F4883C151D4408D818A3209F424
:100DC00088C3CE5EDB4F8883C251D4408E818A3285
:100DD00009F47AC3CD5EDB4F8883C351D4408F8141
:100DE0008A3209F46CC3CC5EDB4F8883C451D44093
:100DF00088858A3209F45EC3CB5EDB4F8883C55198
:100E0000D44089858A3209F450C3CA5EDB4F888397
:100E1000C651D4408A858A3209F442C3C95EDB4F89
:100E20008883C751D4408B858A3209F434C3C85EA5
:100E3000DB4F8883C851D4408C858A3209F426C39D
:100E4000C75EDB4F8883C951D4408D858A3209F44F
:100E500018C3C65EDB4F8883CA51D4408E858A3260
:100E600009F40AC3C55EDB4F8883CB51D4408F851C
:100E70008A3209F4FCC2C45EDB4F8883CC51D44073
:100E800088898A3209F4EEC2C35EDB4F8883CD5174
:100E9000D44089898A3209F4E0C2C25EDB4F88837C
:100EA000CE51D4408A898A3209F4D2C2C15EDB4F66
:100EB0008883CF51D4408B898A3209F4C4C2C05E82
:100EC000DB4F8883C052D44025E130E084E190E0DC
:100ED000E1E0F0E0EC0FFD1FE80FF91FA080AA2071
:100EE00009F48BC2C65CDB4FA882CA53D4405A2D8A
:100EF000F1015083E1E0F0E0EC0FFD1FE20FF31F82
:100F0000A081C55CDB4FA883CB53D440AA2309F44E
:100F100057C2F101A183E3E0F0E0EC0FFD1FE80F01
:100F2000F91F3081C75CDB4F3883C953D44033236A
:100F300009F42AC2D10112963C93E4E0F0E0EC0FF0
:100F4000FD1FE80FF91F2081C85CDB4F2883C853C1
:100F5000D440222309F401C2D10113962C93E5E079
:100F6000F0E0EC0FFD1FE80FF91F2081C95CDB4F9B
:100F70002883C753D440222309F4DDC1D10114963C
:100F80002C93FE01E80FF91FF680FF2009F4C1C180
:100F9000D1011596FC92FE01E80FF91F078100238D
:100FA00009F4A6C1F1010683FE01E80FF91F1085BF
:100FB000112309F48DC1D10117961C93FE01E80F8E
:100FC000F91FE184EE2009F474C1F101E086FE010D
:100FD000E80FF91FA284AA2009F45DC1D101199676
:100FE000AC92FE01E80FF91F9384992009F446C1E1
:100FF000F1019286FE01E80FF91FC484CC2009F4A8
:1010000031C1D1011B96CC92FE01E80FF91FB584C6
:10101000BB2009F41CC1F101B486FE01E80FF91FE1
:10102000D684DD2009F409C1D1011D96DC92FE01B0
:10103000E80FF91F3785332309F4F6C0F10136872D
:10104000FE01E80FF91F2089222309F4DDC0D10138
:101050001F962C93CF5EDB4F4881C151D44080E175
:1010600090E0442309F4D9C0F20150814513B0C087
:10107000CE5EDB4F4881C251D440442309F4B0C452
:10108000F20151815413A4C0CD5EDB4F4881C3519E
:10109000D440442309F4A0C4F2015281541398C0EF
:1010A000CC5EDB4F4881C451D440442309F490C442
:1010B000F201538154138CC0CB5EDB4F4881C55184
:1010C000D440442309F480C4F2015481541380C0F5
:1010D000CA5EDB4F4881C651D440442309F470C432
:1010E000F2015581541374C0C95EDB4F4881C7516A
:1010F000D440442309F460C4F2015681451368C00A
:10110000C85EDB4F4881C851D440442309F450C421
:10111000F201578154135CC0C75EDB4F4881C9514F
:10112000D440442309F449C3F2015085541350C0FC
:10113000C65EDB4F4881CA51D440442309F462C4DF
:10114000F2015185541344C0C55EDB4F4881CB5139
:10115000D440442309F452C4F2015285541338C0D8
:10116000C45EDB4F4881CC51D440442309F442C4CF
:10117000F201538545132CC0C35EDB4F4881CD512E
:10118000D440442309F432C4F2015485541320C0DE
:10119000C25EDB4F4881CE51D440442309F43AC4A7
:1011A000F2015585541314C0C15EDB4F4881CF5105
:1011B000D440442309F42AC4F2015685451308C0DB
:1011C000C05EDB4F4881C052D440442309F426C49A
:1011D000EAE2F2E084E59091C00095FFFCCF8093B5
:1011E000C60081918111F7CFF30181812DCAEEEC08
:1011F000F2E094E78091C00085FFFCCF9093C60099
:1012000091919111F7CFE5C9CF5EDB4F4881C15174
:10121000D4408FE090E0411127CFD2015C9155235B
:1012200009F4CEC240E022CFCF5EDB4F4881C151EE
:10123000D44020E08EE090E014CFCF5EDB4F4881B9
:10124000C151D44020E030E08DE090E00ACFCF5E85
:10125000DB4F4881C151D44020E030E0D12C8CE0FC
:1012600090E0FFCECF5EDB4F4881C151D44020E0FB
:1012700030E0D12CB12C8BE090E0F3CECF5EDB4F91
:101280004881C151D44020E030E0D12CB12CC12C98
:101290008AE090E0E6CECF5EDB4F4881C151D4407A
:1012A00020E030E0D12CB12CC12C912C89E090E0D1
:1012B000D8CECF5EDB4F4881C151D44020E030E032
:1012C000D12CB12CC12C912CA12C88E090E0C9CE5E
:1012D000CF5EDB4F4881C151D44020E030E0D12CBB
:1012E000B12CC12C912CA12CE12C87E090E0B9CE3F
:1012F000CF5EDB4F4881C151D44020E030E0D12C9B
:10130000B12CC12C912CA12CE12C10E086E090E0B6
:10131000A8CECF5EDB4F4881C151D44020E030E001
:10132000D12CB12CC12C912CA12CE12C10E000E08F
:1013300085E090E096CECF5EDB4F4881C151D4402E
:1013400030E0D12CB12CC12C912CA12CE12C10E03F
:1013500000E0F12C84E090E084CECF5EDB4F48814A
:10136000C151D44030E0D12CB12CC12C912CA12CF6
:10137000E12C10E000E0F12CC95CDB4F1882C75370
:10138000D44083E090E06DCECF5EDB4F4881C15109
:10139000D44020E0D12CB12CC12C912CA12CE12CDB
:1013A00010E000E0F12CC95CDB4F1882C753D44039
:1013B000C85CDB4F1882C853D44082E090E051CE25
:1013C00020E030E0D12CB12CC12C912CA12CE12CAF
:1013D00010E000E0F12CC95CDB4F1882C753D44009
:1013E000C85CDB4F1882C853D440C75CDB4F1882FF
:1013F000C953D44081E090E034CE20E030E0D12CDD
:10140000B12CC12C912CE12C10E000E0F12CC95C36
:10141000DB4F1882C753D440C85CDB4F1882C853D7
:10142000D440C75CDB4F1882C953D440C55CDB4F46
:101430001882CB53D440C65CDB4F1882CA53D440C9
:1014400080E090E00ECE24E130E083E190E040CDFA
:1014500023E130E082E190E03BCD22E130E081E128
:1014600090E036CD21E130E080E190E031CD20E127
:1014700030E08FE090E02CCD2FE030E08EE090E087
:1014800027CD2EE030E08DE090E022CD2DE030E061
:101490008CE090E01DCD2CE030E08BE090E018CDAA
:1014A0002BE030E08AE090E013CD2AE030E089E0E4
:1014B00090E00ECD29E030E088E090E009CD28E012
:1014C00030E087E090E004CD27E030E086E090E077
:1014D000FFCC26E030E085E090E0FACCCD80CC2057
:1014E00009F498C3C65CDB4FC882CA53D44040E0BD
:1014F00025E030E084E090E05C2DFACCE8E1F2E019
:1015000083E49091C00095FFFCCF8093C600819149
:101510008111F7CF80E090E0C55BDB4F0FB6F89408
:10152000DEBF0FBECDBFDF91CF911F910F91FF9016
:10153000EF90DF90CF90BF90AF909F908F907F9073
:101540006F905F904F903F902F90089590E080E0D3
:1015500020E0E11035C9D2018C918111AFC9E8E8D2
:10156000F2E094E48091C00085FFFCCF9093C60028
:1015700091919111F7CFF2019081992351F0319619
:101580008091C00085FFFCCF9093C600919191118E
:10159000F7CFFE01EF5DFB4FCB5CDB4F088119817C
:1015A000C553D44040E3BCE9CB2E86EFD82EA7EA42
:1015B000B2E09AE08091C00085FFFCCF9093C60016
:1015C0009D919111F7CF8091C00085FFFCCF409392
:1015D000C600A6E9B2E090E28091C00085FFFCCF92
:1015E0009093C6009D919111F7CFD8012D913D9117
:1015F0008D01D9019C91992359F0D90111968091BF
:10160000C00085FFFCCF9093C6009D919111F7CF4C
:10161000AEE9B2E099E08091C00085FFFCCF9093E5
:10162000C6009D919111F7CF9F018081918164E661
:1016300070E00E94D30EDB01D0968091C00085FF40
:10164000FCCFA093C6005C2D56037001579FF00C91
:101650001124808191818E0D9F1D6AE070E00E94AF
:10166000D30EDB01D0968091C00085FFFCCFA09304
:10167000C6003296D9012D913C912E0D3F1D5D2D56
:101680005603C001579F900D1124280F391F205D6C
:101690003F4F8091C00085FFFCCF2093C6004F5F75
:1016A000483309F084CFD30111968C910C942A030E
:1016B00001E110E050E1E52EF12C6FE0C62ED12CB7
:1016C000AAC900E110E07FE0E72EF12CEEE0CE2E7B
:1016D000D12CA1C90FE010E0FEE0EF2EF12CADE01F
:1016E000CA2ED12C98C90EE010E0BDE0EB2EF12CF3
:1016F0008CE0C82ED12C8FC90DE010E09CE0E92EC3
:10170000F12C2BE0C22ED12C86C90CE010E03BE07E
:10171000E32EF12C4AE0C42ED12C7DC90BE010E061
:101720005AE0E52EF12C69E0C62ED12C74C90AE0EE
:1017300010E079E0E72EF12CE8E0CE2ED12C6BC939
:1017400009E010E0F8E0EF2EF12CA7E0CA2ED12C32
:1017500062C908E010E0B7E0EB2EF12C86E0C82E5D
:10176000D12C59C907E010E096E0E92EF12C25E0D4
:10177000C22ED12C50C906E010E035E0E32EF12C4A
:1017800044E0C42ED12C47C905E010E054E0E52E1A
:10179000F12C63E0C62ED12C3EC904E010E073E0CA
:1017A000E72EF12CE2E0CE2ED12C35C990E00C943E
:1017B000DD0390E080E00C94DD034085411108CD0D
:1017C000D1018C90CB5CDB4F48815981C553D4400B
:1017D000C85BDB4F99838883C854D4409A2DC25C80
:1017E000DB4F39822882CE53D440CE5BDB4F598207
:1017F0004882C254D440532E3B2D5A01CC5BDB4F60
:1018000079826882C454D440792CC25CDB4FA881B1
:10181000B981CE53D4401196382CE0E0F0E060E07E
:1018200070E0992EC65BDB4FB983A883CA54D440BD
:10183000332009F413C1D5014D915C91CA018E0F7B
:101840009F1FDC018C91882309F408C1831509F4DA
:10185000EAC0992DB2E0AB0EB11CC05CDB4FE88151
:10186000F981C054D440AE16BF0679F6A92E972C44
:10187000B32E352DC85BDB4F88819981C854D44085
:10188000C25CDB4F28803980CE53D440CE5BDB4F27
:1018900048805980C254D440CC5BDB4F688079804B
:1018A000C454D440009709F461C1C45CDB4F488143
:1018B0005981CC53D440440F551FCB5CDB4F68811A
:1018C0007981C553D440640F751FDB01ED91FC9104
:1018D000C65CDB4FB881CA53D440B08381309105D8
:1018E00009F0E9C0118212821382148215821682D5
:1018F0001782108611861286138614861586168620
:101900001786E1E2F4E0EC0FFD1FE40FF51F1182F2
:101910001082CF5EDB4F8881C151D440882371F0A3
:10192000E1E1F4E0EC0FFD1F31969091C00095FFCE
:10193000FCCF8093C60081918111F7CFECE3F2E0F8
:1019400080E29091C00095FFFCCF8093C60081910A
:101950008111F7CF8B819091C00095FFFCCF8093D0
:10196000C600E9E0F2E080E29091C00095FFFCCF74
:101970008093C60081918111F7CFDB01ED91FC913D
:101980008081882351F031969091C00095FFFCCF63
:101990008093C60081918111F7CF8091C00085FFAF
:1019A000FCCF8AE08093C600F30181810C9424036C
:1019B000478141110DCC04CF4681411109CC00CFA4
:1019C0004581411105CCFCCE4481411101CCF8CEBA
:1019D00043814111FDCBF4CE42814111F9CBF0CED0
:1019E000D20111964C914111F3CBEACE44854111BD
:1019F000EFCBE6CE43854111EBCBE2CE42854111E0
:101A0000E7CBDECE41854111E3CBDACE46854111ED
:101A1000DFCBD6CE45854111DBCBD2CEF201478557
:101A20004111D6CBCDCE3196C65BDB4FA881B981B3
:101A3000CA54D4403D90C65BDB4FB983A883CA54D7
:101A4000D440332069F04E0F5F1FDA018C91882358
:101A500009F4FFCE61E070E03110EDCE992D08C0A1
:101A6000992DE40FF51F40814111F4CE61E070E043
:101A70006130710509F0EECEC25CDB4F2880398001
:101A8000CE53D440CE5BDB4F48805980C254D44003
:101A9000CC5BDB4F68807980C454D440E8E4F2E04A
:101AA00093E48091C00085FFFCCF9093C600919194
:101AB0009111F7CF99CBC55CDB4FA881CB53D440B4
:101AC000A1838230910509F40ECFC75CDB4FB8814A
:101AD000C953D440B2838330910509F405CFC85C63
:101AE000DB4FA881C853D440A3838430910509F407
:101AF000FCCEC95CDB4FB881C753D440B48385307A
:101B0000910509F4F3CEF5828630910509F4EFCE04
:101B100006838730910509F4EBCE17838830910551
:101B200009F4E7CEE0868930910509F4E3CEA18679
:101B30008A30910509F4DFCE92868B30910509F445
:101B4000DBCEC3868C30910509F4D7CEB4868D30B8
:101B5000910509F4D3CED5868E30910509F4CFCE08
:101B60003687409709F0CCCE2787CBCEC45CDB4FBD
:101B700048815981CC53D440440F551FCB5CDB4F77
:101B800068817981C553D440640F751FDB01ED91E5
:101B9000FC911082A7CEF201808581110C945E0425
:101BA000DECC90E080E020E030E040E050E060E01B
:101BB00070E0C12CB12CA0E00C94DD03F20184850F
:101BC00081110C945E04CBCCF201838581110C94BD
:101BD0005E04C5CCF201828581110C945E04BFCCF9
:101BE000F201818581110C945E04B9CC03E110E00F
:101BF00092E1E92EF12C21E1C22ED12C0C940B059F
:101C000002E110E031E1E32EF12C40E1C42ED12CB1
:101C10000C940B0520E030E0D12CB12C912CA12CA0
:101C2000E12C10E000E0F12CC95CDB4F1882C753B7
:101C3000D440C85CDB4F1882C853D440C75CDB4F2C
:101C40001882C953D440C55CDB4F1882CB53D440B3
:101C5000C65CDB4F1882CA53D44080E090E0DDCAF6
:101C6000848181110C945E047ACC868181110C945C
:101C70005E0475CC858181110C945E0470CCF201F8
:101C8000878181110C945E046ACC828181110C944D
:101C90005E0465CC838181110C945E0460CC8181EB
:101CA00081110C945E045BCC90E080E020E030E099
:101CB00040E050E060E00C94DD0390E080E020E044
:101CC00030E040E050E060E070E00C94DD0390E034
:101CD00080E020E030E040E050E060E070E0C12CC7
:101CE0000C94DD0390E080E020E030E040E050E044
:101CF00060E070E0C12CB12C0C94DD0390E080E03A
:101D000020E030E040E00C94DD0390E080E020E053
:101D100030E040E050E00C94DD0390E080E020E013
:101D200030E00C94DD03D2011F968C9181110C944C
:101D30005E0415CCF201868581110C945E040FCCF3
:101D4000F201858581110C945E0409CC90E080E05D
:101D500020E030E040E050E060E070E0C12CB12CC9
:101D6000A0E0B0E010E00C94DD0390E080E020E023
:101D700030E040E050E060E070E0C12CB12CA0E029
:101D8000B0E010E000E00C94DD0390E080E020E0A3
:101D900030E040E050E060E070E0C12CB12CA0E009
:101DA000B0E00C94DD0397FB072E16F4009407D0E7
:101DB00077FD09D00E94EF0E07FC05D03EF4909508
:101DC00081959F4F0895709561957F4F0895EE0F0F
:101DD000FF1F881F8BBF0790F691E02D1994AA1B57
:101DE000BB1B51E107C0AA1FBB1FA617B70710F006
:101DF000A61BB70B881F991F5A95A9F78095909538
:101E0000BC01CD0108950F931F93CF93DF938230D0
:101E1000910510F482E090E0E091F602F091F70273
:101E200020E030E0A0E0B0E0309719F1408151812E
:101E30000281138148175907C8F08417950769F480
:101E4000109731F012960C93129713961C9327C09B
:101E50000093F6021093F70222C02115310519F004
:101E60004217530718F49A01BD01EF01DF01F80191
:101E7000DBCF21153105F9F0281B390B2430310552
:101E800080F48A819B816115710521F0FB019383A8
:101E9000828304C09093F7028093F602FE0132968B
:101EA00044C0FE01E20FF31F819391932250310948
:101EB000398328833AC02091F4023091F502232B14
:101EC00041F420910202309103023093F5022093F5
:101ED000F40220910002309101022115310541F4F4
:101EE0002DB73EB74091040250910502241B350BDB
:101EF000E091F402F091F502E217F307A0F42E1B33
:101F00003F0B2817390778F0AC014E5F5F4F24175D
:101F1000350748F04E0F5F1F5093F5024093F402CF
:101F20008193919302C0E0E0F0E0CF01DF91CF9187
:101F30001F910F910895CF93DF93009709F481C00B
:101F4000FC01329713821282A091F602B091F7023F
:101F5000109781F420813181820F931F2091F40228
:101F60003091F5022817390751F5F093F502E09307
:101F7000F40267C0ED0120E030E0CE17DF0740F447
:101F80004A815B819E0141155105F1F0EA01F5CFCF
:101F9000D383C28340815181840F951FC817D9070D
:101FA00059F488819981840F951F029691838083CB
:101FB0008A819B81938382832115310529F4F093D3
:101FC000F702E093F6023DC0E901FB83EA83499101
:101FD0005991C40FD51FEC17FD0761F480819181E1
:101FE000840F951F0296E9019983888382819381EA
:101FF0009B838A83E0E0F0E012968D919C91139789
:10200000009719F0FD01DC01F7CF8D919C9111979C
:102010009D012E5F3F4F820F931F2091F40230915C
:10202000F5022817390769F4309729F41092F7025E
:102030001092F60202C013821282B093F502A093AE
:0C204000F402DF91CF910895F894FFCFD7
:10204C000000F80220004D79206E6577206E616DDE
:10205C00652069733A20004368616E6E656C206E72
:10206C006F742076616C6964005468612773206E0C
:10207C006F74206D79206E616D6500202D3E20738C
:10208C0077697463685F004368616E6E656C206E7F
:10209C00616D6520616C7265616479206578697326
:1020AC0074004368616E6E656C206E616D652064B2
:1020BC006F65736E27742065786973740020766180
:1020CC006C6F72653A2000446576696365206E61B9
:1020DC006D653A2000204E616D653A2000097661ED
:1020EC006C75653A20000A5377697463685F004623
:1020FC00756E6374696F6E206E6F742079657420D1
:10210C00696D706C656D656E7465640A00746573D9
:10211C00746F5B305D203D3D204E554C4C0A006485
:10212C00696F62656C6C6F6573696D7061746963FE
:04213C006F0A000026
:00000001FF
