:100000000C9472000C948B000C948B000C948B005D
:100010000C948B000C948B000C948B000C948B0034
:100020000C948B000C948B000C948B000C948B0024
:100030000C948B000C948B000C948B000C948B0014
:100040000C948B000C948B000C948B000C948B0004
:100050000C948B000C948B000C948B000C948B00F4
:100060000C948B000C948B000C948B000C948B00E4
:100070000C948B000C948B000C948B000C948B00D4
:100080000C948B000C948B000C948B000C948B00C4
:100090000C948B000C948B000C948B000C948B00B4
:1000A0000C948B000C948B000C948B000C948B00A4
:1000B0000C948B000C948B000C948B000C948B0094
:1000C0000C948B000C948B000C948B000C948B0084
:1000D0000C948B000C948B000C948B000C948B0074
:1000E0000C948B0011241FBECFEFD1E2DEBFCDBF39
:1000F00000E00CBF12E0A0E0B2E0E4E2F6E000E0D5
:100100000BBF02C007900D92A833B107D9F70E9428
:10011000D6000C9410030C9400001092C50082E3EA
:100120008093C40086E08093C20088E98093C10078
:1001300008959091C00095FFFCCF8093C60008956C
:100140009091C00095FFFCCF08958091C00087FF7B
:10015000FCCF8091C6000895FC019091C00097FFEC
:10016000FCCF9091C6009193992329F09A3011F019
:100170009D3099F711929E2F981B892F0895FC01AD
:100180002081222351F031969091C00095FFFCCF41
:100190002093C60021912111F7CF089584B583687B
:1001A00084BD85B5816085BD279A0895CF93DF937F
:1001B000CDB7DEB7C151D4400FB6F894DEBF0FBE45
:1001C000CDBF84B5836884BD85B5816085BD279A20
:1001D0001092C50082E38093C40086E08093C20041
:1001E00088E98093C10017BCCE018F5F9C4F6C01E2
:1001F0008E010F5F1B4FFE01EF5FFE4F7F01612CF1
:10020000772473942AE0B22EF601C301119201976C
:10021000E9F7F6018091C00087FFFCCF8091C6000E
:100220008193882329F08A3011F08D3099F710825C
:100230004601FE01EF5FFD4FD6019D918091C00008
:1002400085FFFCCF9193A017B107B9F7CF5FDD4FC2
:100250008881C150D240803309F0B7C0CE5FDD4FF6
:100260008881C250D240803309F42EC1813309F411
:10027000B9C0823309F1833391F1843309F443C067
:10028000853309F454C0863309F465C0873309F413
:1002900076C0883309F487C0893309F0B5CFE2E12D
:1002A000F2E096E48091C00085FFFCCF9093C600F9
:1002B00091919111F7CFA8CFE2E1F2E096E480911D
:1002C000C00085FFFCCF9093C60091919111F7CFAC
:1002D000CE5FDD4F8881C250D240833371F6E2E1B8
:1002E000F2E096E48091C00085FFFCCF9093C600B9
:1002F00091919111F7CFCE5FDD4F8881C250D240EE
:10030000843309F0BDCFE2E1F2E096E48091C000D1
:1003100085FFFCCF9093C60091919111F7CFCE5FEE
:10032000DD4F8881C250D240853309F0ACCFE2E185
:10033000F2E096E48091C00085FFFCCF9093C60068
:1003400091919111F7CFCE5FDD4F8881C250D2409D
:10035000863309F09BCFE2E1F2E096E48091C000A1
:1003600085FFFCCF9093C60091919111F7CFCE5F9E
:10037000DD4F8881C250D240873309F08ACFE2E155
:10038000F2E096E48091C00085FFFCCF9093C60018
:1003900091919111F7CFCE5FDD4F8881C250D2404D
:1003A000883309F079CFE2E1F2E096E48091C00071
:1003B00085FFFCCF9093C60091919111F7CFCE5F4E
:1003C000DD4F8881C250D24067CFE2E1F2E096E48F
:1003D0008091C00085FFFCCF9093C6009191911150
:1003E000F7CF12CFDE011196F40191914F01809168
:1003F000C00085FFFCCF9D9380169106A9F78B81E5
:1004000090E00E94AA029C019C81992339F0D701B7
:10041000FE0135969D9391919111FCCF4901880C75
:10042000991CF801E80DF91DF182E082E0E3F2E0A9
:1004300083E79091C00095FFFCCF8093C600819127
:100440008111F7CF4AE050E0BE016F5E7B4FC901DA
:100450000E94C802FC012081222359F0FC01319640
:100460008091C00085FFFCCF2093C600219121110F
:10047000F7CFE3E0F2E090E28091C00085FFFCCF8F
:100480009093C60091919111F7CFF801E80DF91DF5
:100490000190F081E02D9081992351F03196809167
:1004A000C00085FFFCCF9093C60091919111F7CFCA
:1004B0008091C00085FFFCCFB092C600CE5FDD4FBB
:1004C0008881C250D240D5CE9E012F5F3F4FA701F9
:1004D000C701D6017D916091C00065FFFCCFF90195
:1004E00071939F01FC011192CF01A017B10791F701
:1004F0008B81882341F0DE011496FA018193AF01CC
:100500008D918111FACFA1E0B2E09DE48091C0000D
:1005100085FFFCCF9093C6009D919111F7CFF70115
:100520009081992359F0D70111968091C00085FFE1
:10053000FCCF9093C6009D919111F7CF8091C000A0
:1005400085FFFCCFB092C600CE5FDD4F8881C250E0
:10055000D2408CCEFC0188279927E8942191203243
:10056000E9F3293010F02E30C8F32B3241F02D3250
:1005700039F4689404C00E94DE02820F911D21911B
:1005800020532A30C0F31EF4909581959F4F089513
:100590004532510520F4423010F00C94D302FB0197
:1005A0001082CB010895BB274A3031F4992322F4FD
:1005B000BDE2909581959F4F0C94E7027AE0979F5A
:1005C000902D879F802D910D11240895BB27FB014D
:1005D0005527AA27880F991FAA1FA41710F0A41B3C
:1005E00083955051B9F7A05DAA3308F0A95DA19396
:1005F000009779F7B111B1931192CB010C940003DC
:10060000DC01FC01672F71917723E1F7329704C079
:100610007C916D9370836291AE17BF07C8F3089504
:04062000F894FFCF7C
:100624004D79206E6577206E616D652069733A207F
:100634000046756E6374696F6E206E6F7420796501
:100644007420696D706C656D656E7465640A007301
:0806540077697463685F000020
:00000001FF
