:100000000C9472000C948B000C948B000C948B005D
:100010000C948B000C948B000C948B000C948B0034
:100020000C948B000C948B000C948B000C948B0024
:100030000C948B000C948B000C948B000C948B0014
:100040000C948B000C948B000C948B000C948B0004
:100050000C948B000C948B000C948B000C948B00F4
:100060000C948B000C948B000C948B000C948B00E4
:100070000C948B000C948B000C948B000C948B00D4
:100080000C948B000C948B000C948B000C948B00C4
:100090000C948B000C948B000C948B000C948B00B4
:1000A0000C948B000C948B000C948B000C948B00A4
:1000B0000C948B000C948B000C948B000C948B0094
:1000C0000C948B000C948B000C948B000C948B0084
:1000D0000C948B000C948B000C948B000C948B0074
:1000E0000C948B0011241FBECFEFD1E2DEBFCDBF39
:1000F00000E00CBF12E0A0E0B2E0E6EDF5E000E0C9
:100100000BBF02C007900D92AA3EB107D9F70E941B
:10011000E3000C94E9020C9400001092C50082E305
:100120008093C40086E08093C20088E98093C10078
:1001300008959091C00095FFFCCF8093C60008956C
:100140009091C00095FFFCCF08958091C00087FF7B
:10015000FCCF8091C6000895FC019091C00097FFEC
:10016000FCCF9091C6009193992329F09A3011F019
:100170009D3099F711929E2F981B892F0895FC01AD
:100180002081222351F031969091C00095FFFCCF41
:100190002093C60021912111F7CF089584B5836A79
:1001A00084BDE0E8F0E08081836A808385B581606A
:1001B00085BDE1E8F0E0808181608083279A259AFF
:1001C000269A9D9A0895CF93DF93CDB7DEB7C85096
:1001D000D3400FB6F894DEBF0FBECDBF0E94CE0055
:1001E0001092C50082E38093C40086E08093C20031
:1001F00088E98093C10017BC109289001092880092
:1002000010928B0010928A0018BCE1E0F2E087E4C3
:100210009091C00095FFFCCF8093C6008191811121
:10022000F7CFFE01EF5FFD4F8091C00087FFFCCF4D
:100230008091C6008193882329F08A3011F08D3097
:1002400099F710825E018FEFA81A8CEFB80A01E0CF
:1002500012E00C0F1D1F085F1F4FD501FE01EF5F5D
:10026000FD4F81919091C00095FFFCCF8D93E017D9
:10027000F107B9F7ECE1F2E08DE49091C00095FF51
:10028000FCCF8093C60081918111F7CFF501808169
:10029000882351F031969091C00095FFFCCF809358
:1002A000C60081918111F7CF8091C00085FFFCCFFE
:1002B0008AE08093C6008AE0982E66246A944424DB
:1002C0004A94512C2BE9E22EF12C3BE9832E4CE48D
:1002D000742E5CE4C52ED12CEDE2F2E097E580911E
:1002E000C00085FFFCCF9093C60091919111F7CF8C
:1002F000FE01EF5FFD4F8091C00087FFFCCF809132
:10030000C6008193882329F08A3011F08D3099F747
:100310001082DE01AF5FBE4FFE01EF5FFD4F919196
:100320008091C00085FFFCCF9D93EA15FB05B9F7CE
:1003300048E050E0B501CE018F5F9E4F0E94DB0286
:10034000892B41F4C75FDE4F8881C950D1408F357A
:1003500009F463C046E050E063EC72E0CE018F5FC9
:100360009E4F0E94DB02892B69F0E1EAF2E09DE4F6
:100370008091C00085FFFCCF9093C60091919111B0
:10038000F7CFAACFEBECF2E097E48091C00085FFB5
:10039000FCCF9093C60091919111F7CFFE01EF5FD2
:1003A000FD4F8091C00087FFFCCF8091C6008193F4
:1003B000882329F08A3011F08D3099F71082D50109
:1003C000FE01EF5FFD4F91918091C00085FFFCCF52
:1003D0009D93E017F107B9F7ECE1F2E09DE480911D
:1003E000C00085FFFCCF9093C60091919111F7CF8B
:1003F000F5019081992351F031968091C00085FFDD
:10040000FCCF9093C60091919111F7CF8091C000DD
:1004100085FFFCCF9092C6005FCFC65FDE4F88811C
:10042000CA50D1408F3609F095CFC55FDE4F888125
:10043000CB50D1408E3609F471C0863609F08ACF90
:10044000C45FDE4F8881CC50D140863609F082CF20
:1004500017BC109289001092880010928B001092A5
:100460008A0018BCE1E9F2E084E49091C00095FFB5
:10047000FCCF8093C60081918111F7CF2DCF90934F
:10048000C600919191114DC0FE01EF5FFD4F80912B
:10049000C00087FFFCCF8091C6008193882329F09C
:1004A0008A3011F08D3099F71082DE011196FE012D
:1004B000EF5FFD4F91918091C00085FFFCCF9D9330
:1004C000EA15FB05B9F743E050E06CE872E0CE01B5
:1004D00001960E94DB02892B09F456C043E050E0EC
:1004E00067E972E0CE0101960E94DB02892BA9F137
:1004F00044E050E06BE972E0CE0101960E94DB021D
:10050000892BA1F0E1EAF2E09DE48091C00085FF33
:10051000FCCF9093C60091919111F7CFE8E7F2E0FC
:1005200098E48091C00085FFFCCFA9CF67BC5092B2
:10053000890040928800F0928B00E0928A0088BC8B
:10054000E1E9F2E084E49091C00095FFFCCF809354
:10055000C60081918111F7CFBFCE87BCF092890090
:10056000E0928800F0928B00E0928A0088BCE1E97A
:10057000F2E084E49091C00095FFFCCF8093C60028
:1005800081918111F7CFA8CE77BCD0928900C0921B
:100590008800D0928B00C0928A0078BCE1E9F2E03A
:1005A00084E49091C00095FFFCCF8093C6008191B8
:1005B0008111F7CF91CEFB01DC014150504030F06A
:1005C0008D910190801919F40020B9F7881B990BBF
:0605D0000895F894FFCF2E
:1005D60047697665206D652061206E616D65210A2B
:1005E6002028382063686172290A004D79206E65DB
:1005F60077206E616D652069733A200057686174D3
:1006060020646F20796F752077616E7420746F2077
:10061600646F3F0A2028416C6C2074686520636F04
:100626006D6D616E647320617265206465736372BB
:100636006962656420696E20726561646D652E74F9
:1006460078742029200A00486F77206D756368202A
:10065600696E74656E736974793F0A0033302500DC
:10066600446F6E65210A0036302500313030250092
:100676004D6D6D6D2E2E2E4920646F6E2774206B86
:100686006E6F77207468697320636F6D6D616E6439
:10069600210A0072656E616D650047697665206D99
:1006A600652061206E6577206E616D65210A2028C0
:0A06B600382063686172290A000011
:00000001FF
