:100000000C9472000C948B000C948B000C948B005D
:100010000C948B000C948B000C948B000C948B0034
:100020000C948B000C948B000C948B000C948B0024
:100030000C948B000C948B000C948B000C948B0014
:100040000C948B000C948B000C948B000C948B0004
:100050000C948B000C948B000C948B000C948B00F4
:100060000C948B000C948B000C948B000C948B00E4
:100070000C948B000C948B000C948B000C948B00D4
:100080000C948B000C948B000C948B000C948B00C4
:100090000C948B000C948B000C948B000C948B00B4
:1000A0000C948B000C948B000C948B000C948B00A4
:1000B0000C948B000C948B000C948B000C948B0094
:1000C0000C948B000C948B000C948B000C948B0084
:1000D0000C948B000C948B000C948B000C948B0074
:1000E0000C948B0011241FBECFEFD1E2DEBFCDBF39
:1000F00000E00CBF12E0A0E0B2E0EEE7F2E000E0CA
:100100000BBF02C007900D92A435B107D9F70E942A
:10011000CE000C943D010C9400001092C50082E3C7
:100120008093C40086E08093C20088E98093C10078
:1001300008959091C00095FFFCCF8093C60008956C
:100140009091C00095FFFCCF08958091C00087FF7B
:10015000FCCF8091C6000895FC019091C00097FFEC
:10016000FCCF9091C6009193992329F09A3011F019
:100170009D3099F711929E2F981B892F0895FC01AD
:100180002081222351F031969091C00095FFFCCF41
:100190002093C60021912111F7CF0895CF93DF93CB
:1001A000CDB7DEB760970FB6F894DEBF0FBECDBFF8
:1001B0001092C50082E38093C40086E08093C20061
:1001C00088E98093C100E1E0F2E088E49091C0000A
:1001D00095FFFCCF8093C60081918111F7CF9E01DE
:1001E0002F5E3F4F4AE0E6E2F2E097E48091C000E4
:1001F00085FFFCCF9093C60091919111F7CFFE013E
:1002000039968091C00087FFFCCF8091C600819312
:10021000882329F08A3011F08D3099F71082FE0181
:100220003996DE01119691918091C00085FFFCCF37
:100230009D93E217F307B9F7E4E4F2E09DE48091BF
:10024000C00085FFFCCF9093C60091919111F7CF2C
:100250009981992359F0FE0132968091C00085FF63
:10026000FCCF9093C60091919111F7CF8091C0007F
:0E02700085FFFCCF4093C600B6CFF894FFCFB9
:10027E0048656C6C6F212049276D206120736D617C
:10028E00727420686F6D6520636F6E74726F6C6C24
:10029E0065722E0A0047697665206D652061206EB5
:1002AE00616D652120286D61782037206368617249
:1002BE00290A004D79206E6577206E616D65206983
:0402CE00733A20005F
:00000001FF
